:02000004080AE8
:1000000000000A08F0490A08000006000600050181
:080010000402E50C00000000F1
:0400180064460A0828
:1000200009480A4908B5884205D0094A824202D0E7
:10003000121A04F047FA0748074A0021121A04F07E
:100040004FFA064808BD00BF0000002054490A08C6
:10005000740000207400002079050020790500203C
:1000600070B502F0F3FB0025054E064CA41BA40856
:10007000AC4200D170BD56F8043B98470135F7E714
:1000800028490A084C490A0800F052B808B500F09F
:1000900077F9BDE8084002F091BB02F0CBB802F05E
:1000A000C9B802F0CFB80078B0FA80F040097047C4
:1000B000012303707047000010B40B4B0B4C1B68FE
:1000C00021680B4A8B4206D91368C831B3FA83F30F
:1000D0005B0913602160126802B1024600210548E5
:1000E00010BC01F065BD00BFAC000020E80000209E
:1000F000D8000020FC00002070B506460C461546CE
:100100002AB9BDE870400368C9B29B681847002946
:100110000BDA0A2A09D12D2102F0C9F961423046D1
:10012000EAB2BDE8704002F0D1B92146F7E700001D
:1001300010B502F029FF4FF4165102F00BFF1C4CD2
:100140000321022003F04CF91A4800F04FFC20462E
:1001500000230222102101F012FE002320461A463D
:10016000FF2101F0F8FD00222046114601F0BEFDFE
:1001700020460024104902F096F9104B1C7001F043
:10018000ABFE0F4B00F59C5008301860022223464E
:100190000C490D4802F02EF8234602220B490C4868
:1001A00002F028F8BDE81040642002F0ADBA00BFAC
:1001B000C8000020FC00002078460A08B400002097
:1001C000F80000209400002086460A08E000002085
:1001D0008D460A0810B52D4801F07EFD2C4B1C7889
:1001E0004CBB22462146294801F080FD2949274879
:1001F00002F059F922460821244801F077FD264BE8
:100200000A2219682148FFF777FF012221461F487B
:1002100001F06CFD21491D4802F045F90122082139
:100220001A4801F063FDBDE810401D4B0A22196811
:100230001648FFF761BF00221448114601F056FD31
:100240001849124802F02FF9002208210F4801F046
:100250004DFD154B022219680C4802F017FA0122D5
:1002600000210A4801F042FD1049084802F01BF93C
:1002700001220821054801F039FDBDE810400C4B72
:1002800002221968014802F001BA00BFC80000202C
:10029000B500002094460A08E00000209D460A08A8
:1002A00094000020A6460A08DC000020AF460A0899
:1002B000900000200A46014610B11046FFF7FCBE30
:1002C000014801F075BC00BFFC00002038B51C4D92
:1002D00004462B786BB901282CD11A4B1B684BBBF9
:1002E00001F0FAFD184B194A186013682C7032336C
:1002F0001360174B1A68154B1B689A420FD901F00F
:10030000EBFD114B1B68C01AB0F5FA7F09D9012C1F
:1003100003D102200B4B1C6038BD5CB92C7000204F
:10032000FAE7084B1A682AB9012C03D103202A7076
:100330001C60F1E7034B1C60631E58425841EBE719
:1003400010010020C000002098000020B000002014
:10035000AC00002038B5046805467CB16368013BF9
:1003600063605BB9236820469B689847A368013B9C
:10037000A3601BB923682046DB689847284638BD30
:100380002DE9F0478CB001F0A7FDA14DA14E2860EA
:10039000022003F04FF8FFF799FF307002F0F4FDF0
:1003A00004460A22317802F091F8204602F082F8E1
:1003B00002F0EAFD984902F076F802F0E5FD074602
:1003C000964C0A22217802F081F8384602F072F841
:1003D0002378042B63D8DFE813F00500650087005D
:1003E000620052028E4F8F4E3B78BFF35B8F13F04B
:1003F000010F09D13846FFF756FE28B101F06CFD18
:1004000030603846FFF754FE874B2A681B689A42D3
:100410000DD901238548237001F05EFC002283483A
:10042000114601F063FC8249804802F03CF88149A2
:100430002B680A68804C934207D9236802F5FA7248
:10044000B3FA83F35B0923600A6002F09DFD0A2280
:100450002168FFF751FE01F03FFD3368C01AB0F587
:100460007A7F1CD9754C00220E21704801F03EFCA9
:100470002368092B09DC0A2200216C48FFF73CFEA7
:1004800000220F21694801F031FC21680A2201395C
:1004900066482160FFF730FE01F01EFD3060684BBA
:1004A0001868AEE13378013B012B17D80223237083
:1004B00001F012FD5C4B00F51C501030186001F08B
:1004C0000BFD0A225F4B18605F4B58481A6001F021
:1004D00003FC02F059FD5D4901F0E5FF5C480CB0FA
:1004E000BDE8F04700F0B8BA4F4B2A681B68594E78
:1004F0009A4240F2DA8004232370574B4FF00A08E7
:10050000186803F00FFE554B0146186803F012FF00
:10051000074601F0E1FC524B1860524BC3F80080D3
:10052000514B186803F0FEFD03F0A2F934A3D3E9A0
:10053000002303F0F5F903F0EBFC03F099F932A383
:10054000D3E9002303F0ECF903F0E2FC824603F068
:100550008DFF464B04461860384603F089F928A3FE
:10056000D3E9002303F0DCF903F0D2FC03F080F9B7
:1005700025A3D3E9002303F0D3F903F0C9FC814696
:1005800003F074FF3A4F3B493860504603F0D2FE07
:10059000394B38491860484603F0CCFE374B2146AA
:1005A00018604246364C04A801F044FF42463968C0
:1005B00008A801F03FFF2378049A32498DF80030F3
:1005C00002A83C2302F0A0FA03A8FFF7C3FE237899
:1005D000089A2D498DF8003002A83C2302F094FAC5
:1005E00003A8FFF7B7FEFFF7F5FD43F697223B6838
:1005F00093424BDD124B19684EE000BFAFF3008011
:10060000AFCBBA134001543F08A68B2EBA688C407A
:10061000AC0000209C000020B8460A08B40000206E
:10062000840000208C000020F8000020C80000207A
:10063000C6460A08E8000020D8000020000000207C
:100640007C000020EC000020A4000020CF460A0817
:10065000FC00002080000020B8000020BC0000202A
:10066000A0000020A8000020E4000020E0000020FE
:100670009400002000C08F45DC0000209000002086
:1006800088000020DC460A08E5460A0842F20F729C
:10069000934240F3B98031680020FFF70BFE08A8B1
:1006A00001F06DFE04A801F06AFE914C2B682268EF
:1006B000904F9B1A142B11D9DFF83C820B2002F0CB
:1006C000CCFE03F02FFDD8F8001003F077FC3B6858
:1006D000C8F8000001333B602B6823603B680A2B9D
:1006E00040F08E80DFF81082DFF81092D8F800001A
:1006F00003F0BEF878A3D3E9002303F011F903F067
:10070000BFFB044603F00EFD01460546D9F8000084
:1007100003F054FC7A4AC9F80000136879480133A1
:100720001360794B1A68A242B8BF1C6000240023F2
:1007300022462146C8F800303C6001F0D7FA7349E0
:10074000704801F0B0FE01F0C7FBDFF8C481D8F8B3
:100750000030C01AB0F57A7F1DD96E4F22460E21A7
:10076000684801F0C3FA3B68092B09DC0A222146DC
:100770006448FFF7C1FC22460F21624801F0B6FA37
:1007800039680A2201395F483960FFF7B5FC01F08A
:10079000A3FBC8F80000012200215A4801F0A6FA84
:1007A0005D4B1C7894BB5D49564801F07CFE02F01D
:1007B000EBFB5B4901F077FE01220421514801F077
:1007C00095FA284603F054F845A3D3E9002303F033
:1007D000A7F803F09DFB03F04BF843A3D3E90023F4
:1007E00003F09EF803F094FB0446014602224548BC
:1007F00001F04CFF02F0C8FB0222214601F063FF2A
:100800003068FFF759FC69E6464BF4E6012CF7D156
:1008100045493C4801F047FE02F0B6FB434901F070
:1008200042FE22460421374801F060FA284603F0D0
:100830001FF82BA3D3E9002303F072F803F068FB41
:1008400003F016F828A3D3E9002303F069F803F0B6
:100850005FFB03F00DF822A3D3E9002303F060F857
:1008600003F056FB03F004F81FA3D3E9002303F0C1
:1008700057F803F04DFB2E4903F05CFDB4E72D4D16
:100880002B680BB90123237001F026FB2A4C236847
:10089000C01AB0F57A7F7FF621AE00220E211948EA
:1008A00001F024FA2B68092B09DC0A2200211548E3
:1008B000FFF722FC00220F21124801F017FA2968E5
:1008C0000A2201390F482960FFF716FC01F004FBEA
:1008D000206003E6AFF300809A9999999999B93FFE
:1008E000AFCBBA134001543F08A68B2EBA688C4098
:1008F000C4000020F0000020F4000020BC00002014
:10090000B8000020C8000020E4000020EF460A08DC
:10091000EC000020A4000020B5000020A1460A0839
:10092000FA460A0874000020B3460A0800470A087D
:1009300000C08F45A8000020A000002038B500248A
:10094000144B154D1C70154801F0BEF9022303220B
:100950000121134800F06FF822462978204601F063
:100960006AF9104B224618602146287801F063F995
:100970000D4B297818602246084601F05CF90B4BB4
:10098000224618602146204601F055F9084B1860B0
:1009900038BD00BF8800002004000020C8000020EF
:1009A000FC0000207C00002074000020800000205B
:1009B0007800002038B50446C0680D4608B101F043
:1009C00041FCA379062B0CBF04200320684380B2AE
:1009D000A08001F02FFCE06028B10021A28803F084
:1009E0007FFD658038BDA0806080FBE710B50446C0
:1009F0000121C07902F0F4FC0021E07902F001FD50
:100A00000123237010BD38B5037805460C461BB191
:100A10000021C07902F0E4FC2B78EC7153B1A4B250
:100A20002046012102F0DCFC2046BDE838400021D0
:100A300002F0E7BC38BD70B5002504461646837148
:100A4000C0E9035505700572FFF7B4FF2046314633
:100A5000FFF7D9FF204670BDC368002B00F041842A
:100A6000F0B583790446023BDBB2042B8CBF322500
:100A7000284A87B098BF52F8235001F025FA23691D
:100A8000C01AA842F9D372B6A388A579ADF80A3086
:100A9000BDF80A30022DE1689BB200F06E82072D8E
:100AA00000F06B82062D00F01D84052D00F0A1835F
:100AB000082D00F09E83002D40F04F85002B00F0A4
:100AC00092834FF40006144A0496BDF80A300331AD
:100AD000033B9BB2ADF80A3011F8033CDBB28DF852
:100AE000073011F8023CDBB28DF8063011F8013CFA
:100AF000DBB28DF808309DF807009DF806301B0228
:100B000043EA00439DF80800034303938DF8055022
:100B10001BE100BF08470A0814010020004600BF7F
:100B200000BF00BF00BF00BF00BF00BF00BF00BFCD
:100B300000BF00BF00BF00BF00BF00BF00BF00BFBD
:100B400000BF00BF00BF00BF00BF00BF00BF00BFAD
:100B500000BF00BF00BF00BF00BF00BF00BF00BF9D
:100B600000BF00BF00BF00BF00BF00BF00BF00BF8D
:100B700000BF00BF00BF00BF00BF00BF00BF00BF7D
:100B800000BF00BF00BF00BF00BF00BF00BF00BF6D
:100B900000BF00BF00BF00BF00BF00BF00BF00BF5D
:100BA00000BF00BF00BF00BF00BF00BF00BF00BF4D
:100BB00000BF00BF00BF00BF00BF00BF00BF00BF3D
:100BC00000BF00BF00BF00BF00BF00BF00BF00BF2D
:100BD00000BF00BF00BF00BF00BF00BF00BF00BF1D
:100BE00000BF00BF00BF00BF00BF00BF00BF00BF0D
:100BF00000BF00BF00BF00BF00BF00BF00BF00BFFD
:100C000000BF00BF00BF00BF00BF00BF00BF00BFEC
:100C100000BF00BF00BF00BF00BF00BF00BF00BFDC
:100C200000BF00BFE3791068C3EBC30300EB830789
:100C300050F82330B8885883004600BF00BF00BF7B
:100C400000BF00BF00BF00BF00BF00BF00BF00BFAC
:100C500000BF00BF00BF00BF00BF00BF00BF00BF9C
:100C600000BF00BF00BF00BF00BF00BF00BF00BF8C
:100C700000BF00BF00BF00BF00BF00BF00BF00BF7C
:100C800000BF00BF00BF00BF00BF00BF00BF00BF6C
:100C900000BF00BF00BF00BF00BF00BF00BF00BF5C
:100CA00000BF00BF00BF00BF00BF00BF00BF00BF4C
:100CB00000BF00BF00BF00BF00BF00BF00BF00BF3C
:100CC00000BF00BF00BF00BF00BF00BF00BF00BF2C
:100CD00000BF00BF00BF00BF00BF00BF00BF00BF1C
:100CE00000BF00BF00BF00BF00BF00BF00BF00BF0C
:100CF00000BF00BF00BF00BF00BF00BF00BF00BFFC
:100D000000BF00BF00BF00BF00BF00BF00BF00BFEB
:100D100000BF00BF00BF00BF00BF00BF00BF00BFDB
:100D200000BF00BF00BF00BF00BF00BF00BF00BFCB
:100D300000BF049B5B0804939DF805300133DBB2D0
:100D4000172B8DF8053000F22387E3791068C3EB89
:100D5000C30300EB830750F82330B8881883039847
:100D6000049B18427FF4DAAE004600BF00BF00BF0C
:100D700000BF00BF00BF00BF00BF00BF00BF00BF7B
:100D800000BF00BF00BF00BF00BF00BF00BF00BF6B
:100D900000BF00BF00BF00BF00BF00BF00BF00BF5B
:100DA00000BF00BF00BF00BF00BF00BF00BF00BF4B
:100DB00000BF00BF00BF00BF00BFE3791068C3EBF6
:100DC000C30300EB830750F82330B88858830046EC
:100DD00000BF00BF00BF00BF00BF00BF00BF00BF1B
:100DE00000BF00BF00BF00BF00BF00BF00BF00BF0B
:100DF00000BF00BF00BF00BF00BF00BF00BF00BFFB
:100E000000BF00BF00BF00BF00BF00BF00BF00BFEA
:100E100000BF00BF00BF00BF00BF00BF00BF00BFDA
:100E200000BF00BF00BF00BF00BF00BF00BF00BFCA
:100E300000BF00BF00BF00BF00BF00BF00BF00BFBA
:100E400000BF00BF00BF00BF00BF00BF00BF00BFAA
:100E500000BF00BF00BF00BF00BF00BF00BF00BF9A
:100E600000BF00BF00BF00BF00BF00BF00BF00BF8A
:100E700000BF00BF00BF00BF00BF00BF00BF00BF7A
:100E800000BF00BF00BF00BF00BF00BF00BF00BF6A
:100E900000BF00BF00BF00BF00BF00BF00BF00BF5A
:100EA00000BF00BF00BF00BF00BF00BF00BF00BF4A
:100EB00000BF00BF00BF00BF00BF00BF00BF00BF3A
:100EC00000BF00BF00BF00BF00BF00BF00BF00BF2A
:100ED00000BF00BF00BF00BF00BF00BF00BF00BF1A
:100EE00000BF00BF00BF00BF00BF00BF00BF00BF0A
:100EF00000BF00BF00BF00BF00BF00BF00BF00BFFA
:100F000000BF00BF00BF00BF00BF00BF00BF00BFE9
:100F100000BF00BF00BF00BF00BF00BF00BF00BFD9
:100F200000BF00BF00BF00BF00BF00BF00BF00BFC9
:100F300000BF00BF00BF00BF00BF00BF00BF00BFB9
:100F400000BF00BF00BF00BF00BF00BF00BF00BFA9
:100F500000BF00BF00BF00BF00BF00BF00BF00BF99
:100F600000BF00BF00BF00BF00BF00BF00BF00BF89
:100F700000BF00BF00BF00BFDBE6002B00F03381E5
:100F80004FF400054FF0000C124A08460495BDF8D6
:100F90000A300331033B9BB2ADF80A3011F8033C31
:100FA000DBB28DF8063011F8023CDBB28DF8073069
:100FB0008378DBB28DF808309DF806609DF8073025
:100FC0009DF808001B0243EA0643034303938DF890
:100FD00005C07FE014010020004600BF00BF00BF35
:100FE00000BF00BF00BF00BF00BF00BF00BF00BF09
:100FF00000BF00BF00BF00BF00BF00BF00BF00BFF9
:1010000000BF00BF00BF00BF00BF00BF00BF00BFE8
:1010100000BF00BF00BF00BF00BF00BF00BF00BFD8
:1010200000BF00BF00BF00BF00BF00BF00BF00BFC8
:1010300000BF00BF00BF00BF00BF00BF00BF00BFB8
:1010400000BF00BF00BF00BF00BF00BF00BF00BFA8
:1010500000BF00BF00BF00BF00BF00BF00BF00BF98
:1010600000BF00BF00BF00BF00BF00BF00BF00BF88
:1010700000BFE3791068C3EBC30300EB830650F8AD
:101080002330B0885883004600BF00BF00BF00BFB8
:1010900000BF00BF00BF00BF00BF00BF00BF00BF58
:1010A00000BF00BF00BF00BF00BF00BF00BF00BF48
:1010B00000BF00BF00BF00BF00BF00BF049B5B08B4
:1010C00004939DF805300133DBB2172B8DF8053002
:1010D00000F28380E3791068C3EBC30300EB83065F
:1010E00050F82330B08818830398049B18427FF48B
:1010F00073AF004600BF00BF00BF00BF00BF00BF0E
:1011000000BF00BF00BF00BF00BF00BF00BF00BFE7
:1011100000BF00BF00BF00BF00BFE3791068C3EB92
:10112000C30300EB830650F82330B0885883004691
:1011300000BF00BF00BF00BF00BF00BF00BF00BFB7
:1011400000BF00BF00BF00BF00BF00BF00BF00BFA7
:1011500000BF00BF00BF00BF00BF00BF00BF00BF97
:1011600000BF00BF00BF00BF00BF00BF00BF00BF87
:1011700000BF00BF00BF00BF00BF00BF00BF00BF77
:1011800000BF00BF00BF00BF00BF00BF00BF00BF67
:1011900000BF00BF00BF00BF00BF00BF00BF00BF57
:1011A00000BF00BF00BF00BF00BF00BF00BF00BF47
:1011B00000BF00BF00BF00BF00BF00BF00BF00BF37
:1011C00000BF00BF00BF00BF00BF00BF00BF00BF27
:1011D00000BF00BF00BF00BF70E7BDF80A309BB280
:1011E000002B7FF4D2AE62B600F06EFE206107B035
:1011F000F0BD002BF7D04FF400054FF0000C544B1E
:101200001868544B0495BDF80A200331033A92B292
:10121000ADF80A2011F8032CD2B28DF8062011F88F
:10122000022CD2B28DF8072011F8012CD2B28DF821
:1012300008209DF806609DF80720120242EA064247
:101240009DF80860324303928DF805C0E2795F682B
:10125000C2EBC20200EB8206B68850F82220059746
:101260001683039E049A164225D05A68059E921B47
:101270004F2AFAD9E279C2EBC20200EB8206B688A5
:1012800050F8222056835A6805925A68059E921B90
:10129000072AFAD9049A520804929DF805200132CF
:1012A000D2B2172A8DF80520D0D9BDF80A2092B203
:1012B000002AA7D197E75A68059E921B182AFAD9E7
:1012C000E279C2EBC20200EB8206B68850F8222017
:1012D00056835A6805925A68059E921B452AFAD988
:1012E000D8E77047002B3FF47EAF4FF00045002653
:1012F000174A0495BDF80A300431043B9BB2ADF89F
:101300000A3011F8043CDBB28DF8073011F8033CC9
:10131000DBB28DF8063011F8023CDBB28DF80830F4
:1013200011F8013CDBB28DF809309DF807009DF8FB
:1013300006301B0443EA00639DF808009DF809701D
:101340003B4343EA002303938DF805607FE000BF31
:1013500014010020001000E0004600BF00BF00BFE5
:1013600000BF00BF00BF00BF00BF00BF00BF00BF85
:1013700000BF00BF00BF00BF00BF00BF00BF00BF75
:1013800000BF00BF00BF00BF00BF00BF00BF00BF65
:1013900000BF00BF00BF00BF00BF00BF00BF00BF55
:1013A00000BF00BF00BF00BF00BF00BF00BF00BF45
:1013B00000BF00BF00BF00BF00BF00BF00BF00BF35
:1013C00000BF00BF00BFE3791068C3EBC30300EBAD
:1013D000830750F82330B8885883004600BF00BF09
:1013E00000BF00BF00BF00BF00BF00BF00BF00BF05
:1013F00000BF00BF00BF00BF00BF00BF00BF00BFF5
:1014000000BF00BF00BF00BF00BF00BF00BF00BFE4
:1014100000BF00BF00BF00BF00BF00BF00BF00BFD4
:1014200000BF00BF00BF00BF00BF00BF00BF00BFC4
:1014300000BF00BF00BF00BF049B5B0804939DF882
:1014400005300133DBB21F2B8DF805307ED8E379F0
:101450001068C3EBC30300EB830750F82330B88850
:1014600018830398049B18427FF476AF004600BFB0
:1014700000BF00BF00BF00BF00BF00BF00BF00BF74
:1014800000BF00BF00BF00BF00BF00BF00BF00BF64
:1014900000BF00BFE3791068C3EBC30300EB830711
:1014A00050F82330B8885883004600BF00BF00BF03
:1014B00000BF00BF00BF00BF00BF00BF00BF00BF34
:1014C00000BF00BF00BF00BF00BF00BF00BF00BF24
:1014D00000BF00BF00BF00BF00BF00BF00BF00BF14
:1014E00000BF00BF00BF00BF00BF00BF00BF00BF04
:1014F00000BF00BF00BF00BF00BF00BF00BF00BFF4
:1015000000BF00BF00BF00BF00BF00BF00BF00BFE3
:1015100000BF00BF00BF00BF00BF00BF00BF00BFD3
:1015200000BF00BF00BF00BF00BF00BF00BF00BFC3
:1015300000BF00BF00BF00BF00BF00BF00BF00BFB3
:1015400000BF00BF00BF00BF00BF75E7BDF80A3095
:101550009BB2002B7FF4CDAE45E6032D00F0288131
:10156000002B3FF440AE4FF400050026164A0495C8
:10157000BDF80A30E079033B9BB2ADF80A300B7836
:101580001768DBB28DF807304B78C0EBC000DBB2D8
:101590008DF808308B780331DBB28DF806309DF87A
:1015A00007C09DF808301B0243EA0C439DF806C0B3
:1015B00043EA0C0307EB800C039357F820308DF8B7
:1015C0000560BCF804007AE014010020049B5B086D
:1015D0000493004600BF00BF00BF00BF00BF00BFB4
:1015E00000BF00BF00BF00BF00BF00BF00BF00BF03
:1015F00000BF00BF00BF00BF00BF00BF00BF00BFF3
:1016000000BF00BF00BF00BF00BF00BF00BF00BFE2
:1016100000BF00BF00BF00BF00BF00BF00BF00BFD2
:1016200000BF00BF00BF00BF00BF00BF00BF00BFC2
:1016300000BF00BF00BF00BF00BF00BF00BF00BFB2
:1016400000BF00BF00BF00BF00BF00BF00BF00BFA2
:1016500000BF00BF00BF00BFE07917689DF80530EC
:10166000C0EBC00007EB800C013357F82000BCF83A
:101670000470DBB28DF805300783004600BF00BF61
:1016800000BF00BF00BF00BF00BF00BF00BF00BF62
:1016900000BF00BF00BF00BF00BF00BF00BF00BF52
:1016A00000BF00BF9DF80530182B7AD0E379106891
:1016B000C3EBC30300EB830750F82330B88858838B
:1016C0000398049B184281D1004600BF00BF00BFB1
:1016D00000BF00BF00BF00BF00BF00BF00BF00BF12
:1016E00000BF00BF00BF00BF00BFE3791068C3EBBD
:1016F000C30300EB830750F82330B88818839DF8A4
:1017000005300133DBB28DF80530049B5B08049390
:10171000004600BF00BF00BF00BF00BF00BF00BF4A
:1017200000BF00BF00BF00BF00BF00BF00BF00BFC1
:1017300000BF00BF00BF00BF00BF00BF00BF00BFB1
:1017400000BF00BF00BF00BF00BF00BF00BF00BFA1
:1017500000BF00BF00BF00BF00BF00BF00BF00BF91
:1017600000BF00BF00BF00BF00BF00BF00BF00BF81
:1017700000BF00BF00BF00BF00BF00BF00BF00BF71
:1017800000BF00BF00BF00BF00BF00BF00BF00BF61
:1017900000BF00BF00BF00BF00BF9DF80530182B81
:1017A00084D1BDF80A309BB2002B7FF4E0AE1AE57D
:1017B000002B3FF418AD4FF400050026124A0495A3
:1017C000BDF80A300331033B9BB2ADF80A3011F883
:1017D000033CDBB28DF8073011F8023CDBB28DF828
:1017E000063011F8013CDBB28DF808309DF8070097
:1017F0009DF806301B0243EA00439DF808000343AE
:1018000003938DF80560E0E014010020004600BF5E
:1018100000BF00BF00BF00BF00BF00BF00BF00BFD0
:1018200000BF00BF00BF00BF00BF00BF00BF00BFC0
:1018300000BF00BF00BF00BF00BF00BF00BF00BFB0
:1018400000BF00BF00BF00BF00BF00BF00BF00BFA0
:1018500000BF00BF00BF00BF00BF00BF00BF00BF90
:1018600000BF00BF00BF00BF00BF00BF00BF00BF80
:1018700000BF00BF00BF00BF00BF00BF00BF00BF70
:1018800000BF00BF00BF00BF00BF00BF00BF00BF60
:1018900000BF00BF00BF00BF00BF00BF00BF00BF50
:1018A00000BF00BF00BF00BF00BF00BF00BF00BF40
:1018B00000BF00BF00BF00BF00BF00BF00BF00BF30
:1018C00000BF00BF00BF00BF00BF00BF00BF00BF20
:1018D00000BF00BF00BF00BF00BF00BF00BF00BF10
:1018E00000BF00BF00BF00BF00BF00BF00BF00BF00
:1018F00000BF00BF00BF00BF00BF00BF00BF00BFF0
:1019000000BF00BF00BF00BF00BF00BF00BF00BFDF
:1019100000BF00BF00BF00BF00BF00BF00BF00BFCF
:1019200000BF00BF00BF00BF00BF00BF00BFE37922
:101930001068C3EBC30300EB830750F82330B8886B
:101940005883004600BF00BF00BF00BF00BF00BFFC
:1019500000BF00BF00BF00BF00BF00BF00BF00BF8F
:1019600000BF00BF00BF00BF00BF00BF00BF00BF7F
:1019700000BF00BF00BF00BF00BF00BF00BF00BF6F
:1019800000BF00BF00BF00BF00BF00BF00BF00BF5F
:1019900000BF00BF00BF00BF00BF00BF00BF00BF4F
:1019A00000BF00BF00BF00BF00BF00BF00BF00BF3F
:1019B00000BF049B5B0804939DF805300133DBB244
:1019C000172B8DF8053000F2EB80E3791068C3EB3C
:1019D000C30300EB830750F82330B88818830398BB
:1019E000049B18427FF412AF004600BF00BF00BF47
:1019F00000BF00BF00BF00BF00BF00BF00BF00BFEF
:101A000000BF00BF00BF00BF00BF00BF00BF00BFDE
:101A100000BF00BF00BF00BF00BF00BF00BF00BFCE
:101A200000BF00BF00BF00BF00BF00BF00BF00BFBE
:101A300000BF00BF00BF00BF00BF00BF00BF00BFAE
:101A400000BF00BF00BF00BF00BF00BF00BF00BF9E
:101A500000BF00BF00BF00BF00BF00BF00BF00BF8E
:101A600000BF00BF00BF00BF00BFE3791068C3EB39
:101A7000C30300EB830750F82330B888588300462F
:101A800000BF00BF00BF00BF00BF00BF00BF00BF5E
:101A900000BF00BF00BF00BF00BF00BF00BF00BF4E
:101AA00000BF00BF00BF00BF00BF00BF00BF00BF3E
:101AB00000BF00BF00BF00BF00BF00BF00BF00BF2E
:101AC00000BF00BF00BF00BF00BF00BF00BF00BF1E
:101AD00000BF00BF00BF00BF00BF00BF00BF00BF0E
:101AE00000BF00BF00BF00BF00BF00BF00BF00BFFE
:101AF00000BF00BF00BF00BF00BF00BF00BF00BFEE
:101B000000BF00BF00BF00BF00BF00BF00BF00BFDD
:101B100000BF00BF00BF00BF00BF00BF00BF00BFCD
:101B200000BF00BF00BF00BF00BF00BF00BF00BFBD
:101B300000BF00BF00BF00BF00BF00BF00BF00BFAD
:101B400000BF00BF00BF00BF00BF00BF00BF00BF9D
:101B500000BF00BF00BF00BF00BF00BF00BF00BF8D
:101B600000BF00BF00BF00BF00BF00BF00BF00BF7D
:101B700000BF00BF00BF00BF00BF00BF00BF00BF6D
:101B800000BF00BF00BF00BF00BF00BF00BF10E725
:101B9000BDF80A309BB2002B7EF496AFFFF723BB53
:101BA000BDF80A309BB2002B7FF409AEFFF71BBBD8
:101BB0004388F0B58B422DD9067AC2F30743C2F3AE
:101BC0000724D5B23EB1734374437543C3F307236F
:101BD000C4F307242D0A90F806C0C768BCF1060FAD
:101BE0000CBF042603264E43ACF1020CB919BCF11C
:101BF000060F1DD8DFE80CF0041C08040F040400D5
:101C0000BC554B708D7005E0FE2B28BFFE23BB55E5
:101C10004D708C70F0BDBB554C708D70037A120EF8
:101C200013B9D2B2CA70F5E75A43C2F30722F9E7F3
:101C3000BB554C70E6E742EA012242EA0040704799
:101C400008B500F0F9F8014B186008BD1401002038
:101C5000704710B504461021FEF723FA204610BD48
:101C600070B50E46054601F075FC3E2101F096FA6E
:101C70000024A64207DD01F06DFC0368295D9B6826
:101C800098470134F5E701F065FCBDE8704001F0CC
:101C90008CBA402307B58DF8051001A802218DF8F4
:101CA0000430FFF7DDFF012003B05DF804FB802363
:101CB00007B502218DF8050001A88DF80430FFF763
:101CC000CFFF03B05DF804FB00224260014A0260CE
:101CD000704700BF24470A0808B50120FFF7E7FF57
:101CE000BDE808404FF4FA6000F0E6B807B56AB9FD
:101CF00041F0800180238DF8051001A802218DF8A4
:101D00000430FFF7ADFF03B05DF804FB41F0C00104
:101D1000F0E7437A43F00402427243F00C00FFF70D
:101D2000C6BF38B514460D4601F014FC622101F01F
:101D300035FA01F00FFC036829469B68984701F0CB
:101D400009FC036821469B68984701F003FCBDE845
:101D5000384001F02ABA70B5044616461D460A46B8
:101D60000421FFF7DEFF324620460321FFF7D9FFAB
:101D70002A462046BDE870400221FFF7D2BF70B569
:101D8000154604461E4601F0E5FB01F0FDF9012D64
:101D900088BF237A257384BF43F00803237200238E
:101DA00063732EB1012D02BF237A43F00403237223
:101DB0004CF2503000F080F8207A40F02000FFF71D
:101DC00076FF41F2941000F077F8207A40F020007E
:101DD000FFF76DFF962000F06FF8207A40F02000AA
:101DE000FFF765FF207A40F02000FFF760FF042333
:101DF00020466372FFF78DFF2046FFF76DFF022339
:101E00000620A372FFF753FF002220461146FFF77A
:101E100088FF204600220121FFF783FF2046AA22E7
:101E20000821FFF77EFFFF232046BDE870401A46D9
:101E30001946FFF790BF000008B5024B1B681B68EE
:101E4000019308BDB001060808B5024B1B685B682A
:101E5000019308BDB001060808B5024B1B689B68DA
:101E6000019308BDB001060808B5024B1B68DB688A
:101E7000019308BDB001060808B5024B1B681B6939
:101E8000019308BDB001060808B5024B1B685B69E9
:101E9000019308BDB001060808B5024B1B681B6B17
:101EA000019308BDB001060808B5024B1B685B68CA
:101EB000019308BD9C01060808B5024B1B68DB684E
:101EC000019308BD9C01060808B5024B1B681B69FD
:101ED000019308BD9C01060808B5024B1B685B69AD
:101EE000019308BD9C01060808B5024B1B685B6C9A
:101EF000019308BDD001060808B5024B1B689B6C16
:101F0000019308BDD001060808B5024B1B685B6A47
:101F1000019308BDC401060808B5024B1B689B6A03
:101F2000019308BDC401060808B5024B1B68DB6AB3
:101F3000019308BDC401060808B5024B1B681B6B62
:101F4000019308BDC401060808B5024B1B685B6B12
:101F5000019308BDC401060808B5024B1B689B6BC2
:101F6000019308BDC401060808B5024B1B681B6C31
:101F7000019308BDC401060808B5024B1B681B6E1F
:101F8000019308BDC401060808B5024B1B68DB6C51
:101F9000019308BDAC01060808B5024B1B689B6D98
:101FA000019308BDAC01060808B5024B1B68DB6D48
:101FB000019308BDAC01060808B5024B1B681B6EF7
:101FC000019308BDAC01060808B5024B1B685B6EA7
:101FD000019308BDAC01060808B5024B1B689B6E57
:101FE000019308BDAC01060808B5024B1B68DB6E07
:101FF000019308BDAC01060808B5024B1B681B6FB6
:10200000019308BDAC01060808B5024B1B685B6F65
:10201000019308BDAC01060808B5034B1B68D3F853
:102020008030019308BD0000AC01060808B5024BE2
:102030001B68DB69019308BDB401060808B5024BB3
:102040001B681B6A019308BDB401060808B5024B62
:102050001B681B68019308BDD801060808B5024B30
:102060001B685B68019308BDD801060808B5024BE0
:102070001B681B69019308BDD801060808B5024B0F
:102080001B685B69019308BDD801060808B5024BBF
:102090001B689B69019308BDD801060808B5024B6F
:1020A0001B68DB69019308BDD801060808B5024B1F
:1020B0001B681B6A019308BDD801060808B5024BCE
:1020C0001B689B6C019308BDC001060808B5024B54
:1020D0001B685B68019308BDA401060808B5024BA4
:1020E0001B685B69019308BDA401060808B5024B93
:1020F0001B68DB6C019308BDA401060808B5024B00
:102100001B685B6D019308BDA401060808B5034B6D
:102110001B68D3F89030019308BD0000A4010608A5
:1021200008B5034B1B68D3F89C30019308BD000031
:10213000A401060808B5024B1B685B68019308BD43
:10214000C801060808B5024B1B689B68019308BDCF
:10215000C801060808B5024B1B68DB68019308BD7F
:10216000C801060808B5024B1B681B69019308BD2E
:10217000C801060808B5024B1B685B69019308BDDE
:10218000C801060808B5024B1B689B69019308BD8E
:10219000C801060808B5024B1B68DB69019308BD3E
:1021A000C801060808B5024B1B681B6A019308BDED
:1021B000C801060808B5024B1B681B6B019308BDDC
:1021C000C801060808B5024B1B685B6B019308BD8C
:1021D000C801060808B5024B1B681B6C019308BDBB
:1021E000C801060808B5024B1B685B6C019308BD6B
:1021F000C801060808B5024B1B681B68019308BD9F
:10220000CC01060808B5024B1B685B69019308BD49
:10221000CC01060808B5024B1B681B6A019308BD78
:10222000CC01060808B5024B1B68DB6B019308BDA7
:10223000CC01060808B5024B1B681B68019308BD5A
:10224000A001060808B5024B1B685B68019308BD36
:10225000A001060808B5024B1B689B68019308BDE6
:10226000A001060808B5024B1B68DB6A019308BD94
:10227000A001060808B5024B1B681B6B019308BD43
:10228000A001060808B5024B1B681B6C019308BD32
:10229000A001060808B5024B1B685B6C019308BDE2
:1022A000A001060870B5002604460D4640F8086FE8
:1022B000FFF71AFE28462570FFF7B8FE2046666035
:1022C00070BD000002220020044B1A60044B054A36
:1022D000C3E900009A60FFF7F9BE00BF24010020A7
:1022E000180100200000FFFF10B5044602F049F974
:1022F000431E20462344834206D90278197800F809
:10230000011B03F80129F6E710BD70B50C46911EBC
:1023100022291DD8254630B9302223449D4210D2AF
:1023200005F8012BFAE7B0FBF2F602FB1600C1B28A
:10233000092894BF30315731C9B2304605F8011B26
:10234000E9E7002320462B70FFF7CEFF204670BD43
:102350000020FCE738B5031E0C4615460DDA2D2289
:10236000B3F1004F0CBF1846584201230A702A46A9
:102370001944FFF7CAFF204638BD0123F9E710B51D
:1023800004460068FFF75EFF204610BD10B5044606
:10239000006808B1FFF756FF0023C4E9013323604A
:1023A00010BD38B504460D4600680131FFF752FFF5
:1023B00010B1C4E90005012038BD10B5036804461A
:1023C00023B143688B4201D3012010BD2046FFF7A3
:1023D000E8FF0028F9D0A368002BF5D1226813701C
:1023E000F2E770B50E46114604461546FFF7E5FFC5
:1023F00020B92046FFF7CAFF204670BD2A46314665
:102400002068A56002F05EF800212268A368D1541C
:10241000F2E738B505460C4649B1084602F0B1F876
:10242000214602462846FFF7DCFF284638BDFFF765
:10243000ADFFFAE710B5002304468AB0C4E90033C3
:10244000A3602373084601A9FFF784FF204601A972
:10245000FFF7DFFF20460AB010BDF8B506460D466F
:1024600000248F18BD420CD0336830469B6815F8A5
:10247000011B9847031E01DB1C44F3E7002C08BF37
:102480001C462046F8BD70B505460C46084649B1C5
:1024900002F077F82B68024621462846BDE87040D6
:1024A000DB68184770BD08B5FFF7EDFF08BD03688E
:1024B0009B68184738B50D210546FFF7F8FF0A213C
:1024C00004462846FFF7F3FF204438BD0023012AC5
:1024D00098BF0A2230B58BB00C468DF8243009A97C
:1024E0002546B4FBF2F404FB1253DBB2092B94BF74
:1024F00030333733DBB2AA4201F8013DF0D9FFF7A0
:10250000C2FF0BB030BD00002DE9F74F054619465C
:10251000104692461F469DF8306001F09BFC40B18A
:1025200051492846FFF7AFFF0446204603B0BDE8F7
:10253000F08F27F000444FF0FF32504621464B4BBE
:1025400001F088FC48B94FF0FF3250462146474B16
:1025500001F062FC08B94649E3E74FF0604250469B
:102560003946444B01F06CFC08B14349D9E74FF0C0
:10257000604250463946414B01F044FC0028F4D1FA
:10258000002200235046394601F03CFC044630B19D
:102590002D212846FFF78BFF044607F100474FF037
:1025A000000B00204FF000083549DFF8D8905FFAA3
:1025B0008BF39E4206D942464B4601F0DBFA0BF103
:1025C000010BF4E73B46524600F0F4FF8946804693
:1025D00001F07EFC074601F029F902460B46404611
:1025E000494600F0E5FF0A228046894628463946DA
:1025F000FFF76CFF0444002E97D028462249FFF7CE
:1026000042FF4FF0000ADFF87CB00444002E8CD06B
:1026100052465B464046494601F082F9804689466B
:1026200001F02EFC071E1BDA2D212846FFF73FFF85
:10263000034679420A2228460193FFF747FF019B90
:10264000013E034438461C4401F000F902460B46A3
:102650004046494600F0ACFFF6B280468946D5E7D1
:1026600039460023E6E700BF34470A08FFFFEF7F43
:1026700038470A08FFFFEF413C470A08FFFFEFC158
:102680000000E03F00002440F8460A0837B5054640
:102690001446084601F0ECF8E4B202460B46284620
:1026A0000094FFF731FF03B030BD37B59DF8181027
:1026B00005460091FFF728FF04462846FFF7FAFE7B
:1026C000204403B030BD37B504460846154601F036
:1026D000CFF8009502460B462046FFF7E6FF03B011
:1026E00030BD0000014B024A1A60704728010020EB
:1026F00040470A08024B1A68024B1A60704700BF35
:10270000080000202C0100200021FFF7E7BC10B5D5
:102710008368044613B1032201469847204610BD42
:1027200013B56C460B46024603C884E8030093E8E1
:10273000030082E8030094E8030083E8030002B08A
:1027400010BD00000022014B9A607047300100204C
:10275000014B1860704700BF0C00002008B5134BF8
:1027600043B100F011FC03681B699847002801DDA4
:10277000AFF300800E4B43B100F0A2FE03681B696B
:102780009847002801DDAFF300800A4B0BB1AFF38F
:102790000080094B43B100F031FC03681B69984786
:1027A000002801DDAFF3008008BD00BF000000007D
:1027B00000000000000000000000000008B5FFF766
:1027C000CDFFFFF789FB014B186008BDB404002062
:1027D0000548064A08B5121A054901F073FE054B73
:1027E000054A1A6008BD00BF004002400440024094
:1027F00050490A08004002401E1C279A002307B5D2
:102800001A466FF077010093FFF78AFC03B05DF87A
:1028100004FB000007B543880A2B08D0502B0BD1CE
:10282000094B1B684BB103B05DF804EB1847FFF789
:10283000E5FF03B05DF804FB00231A466FF0770153
:102840000093FFF76DFCF4E744010020002110B570
:102850001148FFF71FFD114B1A68114B9A420CBF2C
:10286000012200220F4B1A7001D0FFF7B1FFFFF7D2
:102870001BFB044601F03CFE0B4B13B12046AFF3AB
:10288000008000210848FFF7CDFCBDE81040002182
:102890000648FFF73BBC00BF51270A080040024032
:1028A0001E1C279A400100200000000015280A087D
:1028B00070470020704710B504461021FDF7F1FB6A
:1028C000204610BD08B5FFF7F6FF08BD002230B561
:1028D0004FF69C74026084808D888C800C688580A3
:1028E00004600A6030BD10B504460068FFF7AAFC1A
:1028F000204610BD38B5C468F4B12378022B03D14B
:1029000004F10C00FFF7EFFF656835B12846FFF7CB
:10291000FEFE10212846FDF7C4FBA56835B1284608
:10292000FFF7F5FE10212846FDF7BBFB2046BDE86A
:1029300038401421FDF7B5BB38BD0B6803604B6808
:10294000436013B15A6801325A60704737B5044684
:1029500068460D46FFF7F1FF009B019A23600023B4
:10296000626001A801930093FDF7F4FC35B1281DC6
:10297000FDF7F0FC08212846FDF793FB204603B045
:1029800030BD826810B50AB900F00AFEC368BDE820
:102990001040184708B5006800F11001FFF7F1FF7B
:1029A00008BD826810B50AB900F0FAFDC368BDE839
:1029B0001040184708B5006800F11001FFF7F1FF5B
:1029C00008BD000038B500230446036010200D4602
:1029D000FDF763FB28B10123C0E90133024BC56059
:1029E00003602060204638BD68470A0838B50023D8
:1029F00083608B6804460D462BB102229847EB6832
:102A0000E360AB68A360204638BD0000F0B589B034
:102A100004686846FFF75AFF4FF00203D4E84F2FCF
:102A2000002A03D1C4E8413F0029F7D125D104F1A0
:102A30000C0569462846FFF749FF0123BFF35B8F6A
:102A400063700020BFF35B8F04F1080353E8006F4D
:102A500043E80002002AF9D1BFF35B8F6EB1FFF7A4
:102A600045FB78B129463046FFF78BFF3046FFF72C
:102A70004EFE10213046FDF714FB6846FFF733FF8A
:102A800009B0F0BD314602A8FFF7B0FFE068B4F925
:102A9000105008B101F05AFD06901020ADF81C50FE
:102AA000FDF7FBFA0546E8B1002787601820FDF71F
:102AB000F4FA044688B10146876002A8FFF730FEA9
:102AC000049BA268A360059B0492E26806A9E360E8
:102AD00004F110000592FFF7F9FE084B2C60EB6043
:102AE000074BAB6006A8FFF7FEFE02A8FFF70FFE3C
:102AF000002229460348FFF701FBB7E795290A089A
:102B0000212C0A08E5300A082DE9F0478AB005466D
:102B10000C46174698469DF84890FFF773FB07AEA2
:102B2000824638BB4FF62E73059005A93046ADF8A6
:102B30001830FFF7CBFE1420FDF7AFFA044648B17A
:102B4000022303700123C0E901AA437031460C300F
:102B5000FFF7BCFE2846214640F8044BFFF732FF42
:102B60003046FFF7C0FE05A8FFF7BDFE28460AB0B5
:102B7000BDE8F0870C234FF0000A1420CDE908AA25
:102B80000793FDF78AFA014628B1C0E901AA80F847
:102B900000A080F801A004A80391FFF713FF1F4BCA
:102BA00008200893FDF779FA824610B103A9FFF7D0
:102BB000C4FE42463946204600965FFA89F3CDF8B6
:102BC00024A0FFF727FBB8B9039B5B7803F0FF0253
:102BD00093B94FF69C7305A903A80592ADF8183078
:102BE000FFF714FF05A8FFF77EFE05A80999FFF778
:102BF000ADFE06A8FDF7AEFB03A905A8FFF79DFEF5
:102C0000059B069A2B6000236A6006A8069305932D
:102C1000FDF7A0FB04A8FDF79DFBA7E79D2C0A0884
:102C2000012AF8B5054603D10B6803600020F8BD02
:102C3000022A10D0032AF9D10468002CF6D004F13E
:102C40001000FFF750FE2046FFF761FD18212046D7
:102C5000FDF727FAEAE718200E68FDF71EFA04468A
:102C600050B13146FFF7C2FE3069B6F9147008B1B1
:102C700001F06CFC2061A7822C60D7E738B50023F7
:102C800083608B6804460D462BB102229847EB689F
:102C9000E360AB68A360204638BD0000F0B5044691
:102CA00089B00D4601A81146FFF750FEA4B124B229
:102CB0001DB1284601F04AFC054601A803A9039569
:102CC000ADF81040FFF7A2FE03A8FFF70CFE02A824
:102CD000FDF740FB09B0F0BD0123019DD5E84F2F62
:102CE000002A03D1C5E8413F0029F7D1EFD12B736A
:102CF000BFF35B8F6B70BFF35B8F2B1D53E8006FCF
:102D000043E80042002AF9D1BFF35B8F002EDED0EA
:102D10002046FFF7EBF9074660B1304605F10C019C
:102D2000FFF73FFE3046FFF7F2FC10213046FDF77B
:102D3000B8F9CCE7314603A8FFF7A0FF2B7B1020A2
:102D40008DF81C30FDF7A9F90546D0B18760142035
:102D5000FDF7A3F9044678B10146876003A8FFF7A1
:102D6000DFFC059BA268A360069B0592E268E36016
:102D70009DF81C3006922374064B2C60EB60064BCA
:102D8000AB6003A8FFF7C3FC002229460348FFF706
:102D9000B5F9C7E7B5290A08A12D0A08E5300A08E0
:102DA000012A70B5044603D10B680360002070BD92
:102DB000022A0CD0032AF9D10468002CF6D0204650
:102DC000FFF7A5FC14212046FDF76BF9EEE7142070
:102DD0000E68FDF762F9054620B13146FFF74EFF58
:102DE000337C2B742560E1E77047F8B50E4600246C
:102DF00000F10807051D17F8011D0A223046FFF7EC
:102E000065FBAF42044401D12046F8BD002CF2D04E
:102E10002E213046FFF74BFB0444ECE710B5044687
:102E20001821FDF73EF9204610BD000010B50446FC
:102E3000044B1122002140F8043B01F051FB2046D5
:102E400010BD00BF84470A080346074A10B543F87F
:102E5000042B01F1100251F8044B914243F8044B4A
:102E6000F9D10A781A7010BD84470A08024AC0E9ED
:102E7000002104220275704784470A0810B59DF8A6
:102E8000084044EA0324042344EA024444EA016477
:102E90004460037510BD000013B5044C04609DF838
:102EA00010400094FFF7EAFF02B010BD84470A0803
:102EB000417470477047704708B50021007CFFF7E8
:102EC000E5F840EAE07008BD08B50121007CFFF795
:102ED000DDF840EAE07008BD08B5007CFFF7CEF8E9
:102EE00020EAE07008BD08B5007CFFF7BFF820EAD3
:102EF000E07008BD38B50446007C0D46FFF7BEF80B
:102F0000002801DC607C28B12946207CFFF7C6F848
:102F100020EAE07038BD007CFFF7C8B810B5044661
:102F20001421FDF7BEF8204610BD704710B54FF4D0
:102F30007A73044608460021C4E90113044B207447
:102F40002360012311466374FFF780F8204610BD0B
:102F500098470A080022007CFFF780B810B50446A5
:102F60001422002101F0BCFA054B20466360054B9A
:102F7000E36040F2011323818123238210BD00BF4F
:102F8000780100207902002030B50E4D87B001A8ED
:102F9000FFF7E4FF2978BFF35B8F11F001040ED136
:102FA0002846FDF780F850B1214601AA0648FFF7F0
:102FB000BDFF2846FDF77CF8044801F07DFA024881
:102FC00007B030BD4801002050010020B52E0A088E
:102FD00010B504461422002101F082FA054B204668
:102FE0006360054BE36040F2011323818123238258
:102FF00010BD00BFFA020020FB03002010B50E4CEC
:1030000086B001A8FFF7E4FF2378BFF35B8FDB07EF
:103010000ED42046FDF747F850B1012101AA074818
:10302000FFF784FF2046FDF743F8054801F044FA16
:10303000024806B010BD00BF4C0100206401002012
:103040002B2F0A0870474174704708B5007CFEF7C3
:103050008BFF20EAE07008BD08B5007CFEF75CFF3E
:1030600020EAE07008BD08B5007CFEF765FF40EA85
:10307000E07008BD08B5007CFEF756FF40EAE0703E
:1030800008BD007CFEF760BF70B5467C04460D4667
:103090002EB12946207CBDE87040FEF735BF007C8C
:1030A000FEF762FF0028F4DC304670BD10B5044620
:1030B0001421FCF7F6FF204610BD000010B54FF4B8
:1030C0007A730446084611460022C4E90123044BE2
:1030D0002074236001236374FEF74EFF204610BD69
:1030E000C8470A0810B5836804460BB900F058FABF
:1030F000C3689847A3681BB103222146204698471E
:103100002046BDE810401021FCF7CBBF7047F8B552
:10311000064615460C468F18BC4206D0336830462A
:103120009B6814F8011B9847F6E72846F8BD002273
:10313000007CFEF741BF0021007CFEF745BF002167
:10314000007CFEF749BF0021007CFEF74DBF002147
:10315000007CFEF751BF10B504461421FCF7A1FF17
:10316000204610BD10B54FF47A730446084600217E
:10317000C4E90113034B114623602074FEF74CFF92
:10318000204610BDF8470A080023007C1A4619465D
:10319000FEF7FABE0022007CFEF7FEBEC9B2FFF7C2
:1031A000F9BF0022007CFEF7FFBE0121FFF7F9BF47
:1031B000002240681146FEF7D5BFF0B5154689B02C
:1031C00011220E460446002103A801F089F9284681
:1031D00001F0D7F9002781B273682846009703AA47
:1031E000FEF76CFF30B139462046FFF73FFE204620
:1031F00009B0F0BD204603A9FFF726FEF7E700223D
:1032000040681146FEF7CEBF002240681146FEF727
:10321000D9BF00224068FEF7CDBF0022406881F090
:103220000101FEF7B7BF002340681A461946FEF7B2
:10323000A9BF002340681A461946FEF79BBF00222B
:1032400040681146FEF77EBF002202214068FEF76B
:1032500081BF002340681A46FEF76CBF0422024B70
:103260005A60024A1A6070477C04002020480A080D
:10327000002340681A46FEF75DBF00220221406825
:10328000FEF768BF002240681146FEF75BBF0022D0
:1032900040681146FEF766BF002340681A4619468B
:1032A000FEF768BF002340681A461946FEF76ABF5A
:1032B00000214068FEF78EBF00214068FEF792BFF4
:1032C0000022406881F00101FEF764BF00224068DF
:1032D000FEF770BF002240681146FEF773BF002260
:1032E00040681146FEF75EBF70B515468EB00446C5
:1032F00008A8FFF79BFD1122002103A801F0F0F8B8
:103300000026284601F03DF90A4B009681B25B6821
:10331000284603AAFEF7D2FE30B131462046FFF719
:10332000A5FD20460EB070BD204603A9FFF78CFD19
:10333000F7E700BF7C040020024B034A1A6000221A
:103340005A607047840400205C480A08024B986861
:1033500008B1FEF7D1BD704790040020172870B562
:10336000044601D9002070BDA0F10D03022B0BD93A
:10337000012824D800F0EEF80021007CFEF744FE7E
:1033800080F00100C0B2EEE7124E3178BFF35B8FE0
:1033900011F001050DD13046FCF785FE48B12946F4
:1033A0000D48FEF77FFF3046FCF782FE0B4801F028
:1033B00083F8094B1878FEF741FE0028D2D1123C61
:1033C000012C05D800F07CF8007CFEF7C5FDD7E79E
:1033D0000120C8E78C040020900400204D330A0827
:1033E000172838B504460D460AD8FF2908D0FFF73C
:1033F000B5FF28B129462046BDE83840FEF72CBD70
:1034000038BD38B504460D46FEF72EFDFF2810D016
:10341000062804D84D2323FA00F0C30709D4204618
:10342000FFF79CFF28B129462046BDE83840FEF74B
:1034300023BD38BD10B50446FEF716FD031FDBB2F1
:10344000012B08D92046FFF789FF20B12046BDE8AF
:103450001040FEF719BD002010BD10B50446092824
:103460009CBF0A34A4B22046FFF778FF50B1032175
:103470002046FEF7E9FC032804D12046BDE81040B1
:10348000FEF70ABD002010BD7047000070B514257E
:1034900004462A46002101F023F825808025074EA6
:1034A000284631462581258200F078F83146606053
:1034B000284600F073F8E060204670BD90480A0886
:1034C00030B50E4D87B02978BFF35B8F11F0010442
:1034D00011D12846FCF7E7FD68B101A8FFF7D6FF38
:1034E000214601AA0648FFF7E9FD2846FCF7E0FD62
:1034F000044800F0E1FF024807B030BD9C04002002
:10350000A004002089340A08002307B51A4619468A
:1035100000930348FFF7C0FC03B05DF804FB00BF55
:10352000B80400207047000070B514232025084E11
:1035300004460360314685600561284600F02EF898
:1035400031466060284600F029F8E060204670BDF2
:1035500090480A0830B50E4D87B02978BFF35B8FCD
:1035600011F0010411D12846FCF79DFD68B101A8B6
:10357000FFF7DAFF214601AA0648FFF7F3FD2846C8
:10358000FCF796FD044800F097FF024807B030BDF5
:10359000D0040020D404002025350A08FCF77FBDA4
:1035A00008B5FEF75FFE000081F0004102E000BFB9
:1035B00083F0004330B54FEA41044FEA430594EAF3
:1035C000050F08BF90EA020F1FBF54EA000C55EA2E
:1035D000020C7FEA645C7FEA655C00F0E2804FEAFF
:1035E0005454D4EB5555B8BF6D420CDD2C4480EAE1
:1035F000020281EA030382EA000083EA010180EA11
:10360000020281EA0303362D88BF30BD11F0004F5E
:103610004FEA01314FF4801C4CEA113102D0404294
:1036200061EB410113F0004F4FEA03334CEA1333CF
:1036300002D0524263EB430394EA050F00F0A780E7
:10364000A4F10104D5F1200E0DDB02FA0EFC22FAE2
:1036500005F2801841F1000103FA0EF2801843FAD6
:1036600005F359410EE0A5F120050EF1200E012AC7
:1036700003FA0EFC28BF4CF0020C43FA05F3C01805
:1036800051EBE37101F0004507D54FF0000EDCF17E
:10369000000C7EEB00006EEB0101B1F5801F1BD327
:1036A000B1F5001F0CD349085FEA30004FEA3C0C2B
:1036B00004F101044FEA445212F5800F80F09A8021
:1036C000BCF1004F08BF5FEA500C50F1000041EB25
:1036D000045141EA050130BD5FEA4C0C404141EB29
:1036E0000101013C28BFB1F5801FE9D291F0000F24
:1036F00004BF01460020B1FA81F308BF2033A3F1D3
:103700000B03B3F120020CDA0C3208DD02F1140CC9
:10371000C2F10C0201FA0CF021FA02F10CE002F104
:103720001402D8BFC2F1200C01FA02F120FA0CFCFD
:10373000DCBF41EA0C019040E41AA2BF01EB045146
:10374000294330BD6FEA04041F3C1CDA0C340EDC44
:1037500004F11404C4F1200220FA04F001FA02F387
:1037600040EA030021FA04F345EA030130BDC4F145
:103770000C04C4F1200220FA02F001FA04F340EA3A
:103780000300294630BD21FA04F0294630BD94F0EB
:10379000000F83F4801306BF81F480110134013DD2
:1037A0004EE77FEA645C18BF7FEA655C29D094EA43
:1037B000050F08BF90EA020F05D054EA000C04BFC1
:1037C0001946104630BD91EA030F1EBF00210020AC
:1037D00030BD5FEA545C05D14000494128BF41F04B
:1037E000004130BD14F580043CBF01F5801130BDAF
:1037F00001F0004545F0FE4141F470014FF000003A
:1038000030BD7FEA645C1ABF194610467FEA655CEA
:103810001CBF0B46024650EA013406BF52EA03358C
:1038200091EA030F41F4002130BD00BF90F0000F7A
:1038300004BF0021704730B54FF4806404F13204B6
:103840004FF000054FF0000150E700BF90F0000F6F
:1038500004BF0021704730B54FF4806404F1320496
:1038600010F0004548BF40424FF000013EE700BF66
:1038700042004FEAE2014FEA31014FEA02701FBFF6
:1038800012F07F4393F07F4F81F06051704732F028
:103890007F4208BF704793F07F4F04BF41F400217F
:1038A000704730B54FF4607401F0004521F00041DD
:1038B0001CE700BF50EA010208BF704730B54FF067
:1038C00000050AE050EA010208BF704730B511F068
:1038D000004502D5404261EB41014FF4806404F1A0
:1038E00032045FEA915C3FF4D8AE4FF003025FEA26
:1038F000DC0C18BF03325FEADC0C18BF033202EBAA
:10390000DC02C2F1200300FA03FC20FA02F001FA03
:1039100003FE40EA0E0021FA02F11444BDE600BFA6
:1039200070B54FF0FF0C4CF4E06C1CEA11541DBF55
:103930001CEA135594EA0C0F95EA0C0F00F0DEF820
:103940002C4481EA030621EA4C5123EA4C5350EA05
:10395000013518BF52EA033541F4801143F4801356
:1039600038D0A0FB02CE4FF00005E1FB02E506F0E7
:103970000042E0FB03E54FF00006E1FB03569CF03C
:10398000000F18BF4EF0010EA4F1FF04B6F5007F42
:1039900064F5407404D25FEA4E0E6D4146EB0606B4
:1039A00042EAC62141EA55514FEAC52040EA5E503D
:1039B0004FEACE2EB4F1FD0C88BFBCF5E06F1ED8E7
:1039C000BEF1004F08BF5FEA500E50F1000041EB1E
:1039D000045170BD06F0004646EA010140EA0200CB
:1039E00081EA0301B4EB5C04C2BFD4EB0C0541EAED
:1039F000045170BD41F480114FF0000E013C00F302
:103A0000AB8014F1360FDEBF002001F0004170BD25
:103A1000C4F10004203C35DA0C341BDC04F114043E
:103A2000C4F1200500FA05F320FA04F001FA05F2CA
:103A300040EA020001F0004221F0004110EBD37097
:103A400021FA04F642EB06015EEA430E08BF20EAC3
:103A5000D37070BDC4F10C04C4F1200500FA04F366
:103A600020FA05F001FA04F240EA020001F00041F8
:103A700010EBD37041F100015EEA430E08BF20EA6B
:103A8000D37070BDC4F1200500FA05F24EEA020EB3
:103A900020FA04F301FA05F243EA020321FA04F0E2
:103AA00001F0004121FA04F220EA020000EBD37099
:103AB0005EEA430E08BF20EAD37070BD94F0000F99
:103AC0000FD101F00046400041EB010111F4801FCD
:103AD00008BF013CF7D041EA060195F0000F18BF7E
:103AE000704703F00046520043EB030313F4801FBA
:103AF00008BF013DF7D043EA0603704794EA0C0F74
:103B00000CEA135518BF95EA0C0F0CD050EA410689
:103B100018BF52EA4306D1D181EA030101F0004106
:103B20004FF0000070BD50EA410606BF104619462E
:103B300052EA430619D094EA0C0F02D150EA01363A
:103B400013D195EA0C0F05D152EA03361CBF10467B
:103B500019460AD181EA030101F0004141F0FE411A
:103B600041F470014FF0000070BD41F0FE4141F49E
:103B7000780170BD70B54FF0FF0C4CF4E06C1CEA9E
:103B800011541DBF1CEA135594EA0C0F95EA0C0F53
:103B900000F0A7F8A4EB050481EA030E52EA03350E
:103BA0004FEA013100F088804FEA03334FF080552F
:103BB00045EA131343EA12634FEA022245EA11155C
:103BC00045EA10654FEA00260EF000419D4208BF0D
:103BD000964244F1FD0404F5407402D25B084FEABA
:103BE0003202B61A65EB03055B084FEA32024FF466
:103BF00080104FF4002CB6EB020E75EB030E22BFC3
:103C0000B61A754640EA0C005B084FEA3202B6EB82
:103C1000020E75EB030E22BFB61A754640EA5C0031
:103C20005B084FEA3202B6EB020E75EB030E22BFC1
:103C3000B61A754640EA9C005B084FEA3202B6EBC2
:103C4000020E75EB030E22BFB61A754640EADC0081
:103C500055EA060E18D04FEA051545EA16754FEAE3
:103C600006164FEAC30343EA52734FEAC2025FEA01
:103C70001C1CC0D111F4801F0BD141EA00014FF090
:103C800000004FF0004CB6E711F4801F04BF014361
:103C90000020B4F1FD0C88BFBCF5E06F3FF6AFAE7D
:103CA000B5EB030C04BFB6EB020C5FEA500C50F10D
:103CB000000041EB045170BD0EF0004E4EEA113190
:103CC00014EB5C04C2BFD4EB0C0541EA045170BD97
:103CD00041F480114FF0000E013C90E645EA060EDB
:103CE0008DE60CEA135594EA0C0F08BF95EA0C0F09
:103CF0003FF43BAF94EA0C0F0AD150EA01347FF451
:103D000034AF95EA0C0F7FF425AF104619462CE727
:103D100095EA0C0F06D152EA03353FF4FDAE10468A
:103D2000194622E750EA410618BF52EA43067FF4DB
:103D3000C5AE50EA41047FF40DAF52EA43057FF46B
:103D4000EBAE12E74FF0FF3C06E000BF4FF0010C76
:103D500002E000BF4FF0010C4DF804CD4FEA410CDA
:103D60007FEA6C5C4FEA430C18BF7FEA6C5C1BD0A7
:103D700001B050EA410C0CBF52EA430C91EA030F28
:103D800002BF90EA020F0020704710F1000F91EA85
:103D9000030F58BF994208BF90422CBFD8176FEA53
:103DA000E37040F0010070474FEA410C7FEA6C5C21
:103DB00002D150EA013C07D14FEA430C7FEA6C5C28
:103DC000D6D152EA033CD3D05DF8040B704700BF54
:103DD0008446104662468C461946634600E000BFA2
:103DE00001B5FFF7B7FF002848BF10F1000F01BD74
:103DF0004DF808EDFFF7F4FF0CBF012000205DF83F
:103E000008FB00BF4DF808EDFFF7EAFF34BF0120C3
:103E100000205DF808FB00BF4DF808EDFFF7E0FF5C
:103E200094BF012000205DF808FB00BF4DF808EDAD
:103E3000FFF7CEFF94BF012000205DF808FB00BF14
:103E40004DF808EDFFF7C4FF34BF012000205DF8F6
:103E500008FB00BF4FEA410C7FEA6C5C02D150EADC
:103E6000013C0AD14FEA430C7FEA6C5C02D152EA72
:103E7000033C02D14FF0000070474FF00100704743
:103E80004FEA410212F5001215D211D56FF4787382
:103E9000B3EB625212D94FEAC12343F0004343EA25
:103EA000505311F0004F23FA02F018BF4042704700
:103EB0004FF00000704750EA013005D111F000408A
:103EC00008BF6FF0004070474FF00000704700BF20
:103ED0004A0011D212F5001211D20DD56FF4787389
:103EE000B3EB62520ED44FEAC12343F0004343EADE
:103EF000505323FA02F070474FF00000704750EA29
:103F0000013002D14FF0FF3070474FF00000704792
:103F10004FEA4102B2F1E04324BFB3F5001CDCF1EB
:103F2000FE5C0DD901F0004C4FEAC0024CEA507023
:103F3000B2F1004F40EB830008BF20F00100704752
:103F400011F0804F21D113F13872BCBF01F0004055
:103F5000704741F480114FEA5252C2F11802C2F187
:103F6000200C10FA0CF320FA02F018BF40F0010008
:103F70004FEAC1234FEAD32303FA0CFC40EA0C00BA
:103F800023FA02F34FEA4303CCE77FEA625307D1F7
:103F900050EA01331EBF4FF0FE4040F4400070472E
:103FA00001F0004040F0FE4040F40000704700BFC8
:103FB00080F0004002E000BF81F0004142001FBFDE
:103FC0005FEA410392EA030F7FEA226C7FEA236CE7
:103FD0006AD04FEA1262D2EB1363C1BFD2184140DC
:103FE00048404140B8BF5B42192B88BF704710F072
:103FF000004F40F4000020F07F4018BF404211F015
:10400000004F41F4000121F07F4118BF494292EA7C
:10401000030F3FD0A2F1010241FA03FC10EB0C00A8
:10402000C3F1200301FA03F100F0004302D5494235
:1040300060EB4000B0F5000F13D3B0F1807F06D3E2
:1040400040084FEA310102F10102FE2A51D2B1F1DA
:10405000004F40EBC25008BF20F0010040EA0300CF
:104060007047490040EB0000013A28BFB0F5000F4F
:10407000EDD2B0FA80FCACF1080CB2EB0C0200FA05
:104080000CF0AABF00EBC25052421843BCBFD04054
:104090001843704792F0000F81F4000106BF80F4CE
:1040A00000000132013BB5E74FEA41037FEA226C91
:1040B00018BF7FEA236C21D092EA030F04D092F05C
:1040C000000F08BF0846704790EA010F1CBF002090
:1040D000704712F07F4F04D1400028BF40F00040ED
:1040E000704712F100723CBF00F50000704700F00D
:1040F000004343F0FE4040F4000070477FEA226234
:1041000016BF08467FEA23630146420206BF5FEA04
:10411000412390EA010F40F4800070474FF0000304
:1041200004E000BF10F0004348BF40425FEA000CCB
:1041300008BF704743F0964301464FF000001CE073
:1041400050EA010208BF70474FF000030AE000BFC9
:1041500050EA010208BF704711F0004302D5404207
:1041600061EB41015FEA010C02BF84460146002079
:1041700043F0B64308BFA3F18053A3F50003BCFA94
:104180008CF2083AA3EBC25310DB01FA02FC634441
:1041900000FA02FCC2F12002BCF1004F20FA02F248
:1041A00043EB020008BF20F00100704702F120023B
:1041B00001FA02FCC2F1200250EA4C0021FA02F29C
:1041C00043EB020008BF20EADC7070474FF0FF0CA1
:1041D0001CEAD0521EBF1CEAD15392EA0C0F93EA9C
:1041E0000C0F6FD01A4480EA010C400218BF5FEA3E
:1041F00041211ED04FF0006343EA501043EA5111B1
:10420000A0FB01310CF00040B1F5000F3EBF4900AA
:1042100041EAD3715B0040EA010062F17F02FD2AAE
:104220001DD8B3F1004F40EBC25008BF20F0010091
:10423000704790F0000F0CF0004C08BF49024CEAA8
:10424000502040EA51207F3AC2BFD2F1FF0340EA3A
:10425000C250704740F400004FF00003013A5DDCAB
:1042600012F1190FDCBF00F000407047C2F10002EC
:10427000410021FA02F1C2F1200200FA02FC5FEAD9
:10428000310040F1000053EA4C0308BF20EADC7023
:10429000704792F0000F00F0004C02BF400010F495
:1042A000000F013AF9D040EA0C0093F0000F01F042
:1042B000004C02BF490011F4000F013BF9D041EA64
:1042C0000C018FE70CEAD15392EA0C0F18BF93EA66
:1042D0000C0F0AD030F0004C18BF31F0004CD8D190
:1042E00080EA010000F00040704790F0000F17BF17
:1042F00090F0004F084691F0000F91F0004F14D05D
:1043000092EA0C0F01D142020FD193EA0C0F03D1B4
:104310004B0218BF084608D180EA010000F00040B7
:1043200040F0FE4040F40000704740F0FE4040F492
:10433000400070474FF0FF0C1CEAD0521EBF1CEA31
:10434000D15392EA0C0F93EA0C0F69D0A2EB03024F
:1043500080EA010C49024FEA402037D04FF08053E9
:1043600043EA111143EA10130CF000408B4238BFAE
:104370005B0042F17D024FF4000C8B4224BF5B1ABC
:1043800040EA0C00B3EB510F24BFA3EB510340EA0A
:104390005C00B3EB910F24BFA3EB910340EA9C00B8
:1043A000B3EBD10F24BFA3EBD10340EADC001B0128
:1043B00018BF5FEA1C1CE0D1FD2A3FF650AF8B42CC
:1043C00040EBC25008BF20F0010070470CF0004CD9
:1043D0004CEA50207F32C2BFD2F1FF0340EAC25004
:1043E000704740F400004FF00003013A37E792F0C5
:1043F000000F00F0004C02BF400010F4000F013A23
:10440000F9D040EA0C0093F0000F01F0004C02BF1D
:10441000490011F4000F013BF9D041EA0C0195E786
:104420000CEAD15392EA0C0F08D142027FF47DAF1F
:1044300093EA0C0F7FF470AF084676E793EA0C0F0F
:1044400004D14B023FF44CAF08466EE730F0004C0D
:1044500018BF31F0004CCAD130F000427FF45CAF9D
:1044600031F000437FF43CAF5FE700BF4FEA40020A
:10447000B2F1FE4F0FD34FF09E03B3EB12620DD992
:104480004FEA002343F0004310F0004F23FA02F0FC
:1044900018BF404270474FF00000704712F1610FA3
:1044A00001D1420205D110F0004008BF6FF000407A
:1044B00070474FF000007047002301461A46184627
:1044C00000F068B80A44914200F1FF3300D1704710
:1044D00010B511F8014B914203F8014FF9D110BD0D
:1044E00003460244934200D1704703F8011BF9E7E9
:1044F00038B5104B04461D68AB6BB3B91820FDF7F7
:1045000099FE0246A86320B942210B4B0B48FDF7E8
:10451000B9FE0B490B4BC0E900130B4B0021836024
:104520000B2383810120C2E904010022AB6B1C61D3
:104530005A6138BD0C00002091480A08A8480A08B2
:104540000E33CDAB34126DE6ECDE0500024B0146B6
:10455000186800F003B800BF0C00002070B50446D6
:1045600008460D4600F00DF8461C31462046FDF782
:1045700081FE044618B132462946FFF7A3FF2046C4
:1045800070BD034613F8012B002AFBD1181A01381D
:10459000704700002DE9F843DFF8AC800646D8F8F4
:1045A00000001F460D46914600F058F8274B1C6846
:1045B00034B9274C1C60274B13B11B68C4F88830F2
:1045C00063681F2B07DDD8F8000000F049F84FF0B2
:1045D000FF30BDE8F8835EB3D4F8880088B91E4B7D
:1045E00023B9D8F8000000F03AF8F0E74FF48470EF
:1045F000FDF720FE0028F4D00023C0E94033C4F8C2
:10460000880001226368022E40F8239002FA03F228
:1046100000EB8301D0F8003143EA0203C0F8003117
:10462000C1F8807002BFD0F804311343C0F80431E0
:104630006368D8F800005A1C0233626044F82350C3
:1046400000F00EF80020C4E7700000207405002080
:10465000E80400200000000035220A087047704777
:104660007047000021000A0861000A0889000A0852
:104670008D000A08000000005741524D494E472066
:1046800055502E2E2E0061766750504D006D61788A
:1046900050504D004D41582050504D3A0041564722
:1046A0002050504D3A004D4158204241433A00417C
:1046B0005647204241433A00446576696365204D80
:1046C0006F64653A200052454144592E2E2E004217
:1046D0007574746F6E2070726573730050504D6501
:1046E00076656E740050504D6576656E743200527A
:1046F000454144494E472E2E2E0050504D3A200041
:104700004241433A200000002C0100001800000044
:10471000F40100002C010000500000000000000027
:1047200000000000511C0A08531C0A08931C0A08C8
:104730005B240A086E616E00696E66006F76660023
:104740006170700025592D256D2D25645425483A3A
:10475000254D3A2553257A0061736374696D6500B0
:104760000000000000000000B1280A08B7280A086D
:10477000F5280A08C5280A08B3280A08000000001E
:1047800000000000EB2D0A08E92D0A081D2E0A087A
:104790000000000000000000B72E0A081D2F0A08C4
:1047A000F52E0A085B240A08E72E0A08B92E0A0823
:1047B000C92E0A08172F0A08D92E0A08B12E0A088E
:1047C000000000000000000045300A08AD300A0873
:1047D00089300A085B240A0859300A0875300A082B
:1047E00067300A0883300A0847300A084B300A0845
:1047F00000000000000000000D310A0857310A08CF
:104800002F310A080F310A0837310A083F310A08E8
:1048100047310A084F310A0800000000000000007C
:1048200053320A0849320A083F320A08B1310A08ED
:1048300033320A0827320A08B1320A08B9320A08A4
:104840001B320A0813320A0809320A08FF310A0823
:10485000BB310A08000000000000000071320A08A5
:104860007B320A0885320A088F320A0899320A0810
:10487000A5320A08B1320A08B9320A08C1320A0858
:10488000CD320A08D5320A08DF320A08E9320A08AE
:10489000005245454E54206D616C6C6F63207375FA
:1048A00063636565646564002F6D6E742F776F7246
:1048B0006B73706163652F776F726B737061636583
:1048C0002F4743432D31302D706970656C696E65DB
:1048D0002F6A656E6B696E732D4743432D31302D02
:1048E000706970656C696E652D34385F32303230B6
:1048F000313132345F313630363138303634312F61
:104900007372632F6E65776C69622F6E65776C6961
:10491000622F6C6962632F7374646C69622F7261B9
:104920006E642E63000000003D090A08411C0A085D
:10493000C5220A08E5260A08F5260A0845270A08B6
:104940005D320A0839330A0809350A0800000000F8
:044950000000000063
:10495400050000006400000058470A081000002009
:104964000000000000000000000000000000000043
:104974000000000000000000000000000000000033
:104984000000000000000000000000000000000023
:104994000000000000000000000000000000000013
:1049A4000000000000000000000000000000000003
:1049B40000000000000000000000000000000000F3
:0449C4007805002052
:1049C800FFFFFFFF00000102030405060708090AAC
:1049D8000B0C0D0E0F101112131415161718191AA7
:0849E8001B1C1D1E1F202800EE
:0449F00078563412AF
:04000005080A0020C5
:00000001FF
