:02000004080AE8
:1000000000000A0828380A0800000600060005015A
:080010000402E50C00000000F1
:0400180004350A0899
:1000200009480A4908B5884205D0094A824202D0E7
:10003000121A03F0B3F90748074A0021121A03F015
:10004000BBF9064808BD00BF0000002084370A083D
:100050007C0000207C0000201D0500201D050020E4
:1000600070B501F09DFF0025054E064CA41BA408A9
:10007000AC4200D170BD56F8043B98470135F7E714
:100080005C370A0880370A0800F014B808B500F099
:10009000ABF8BDE8084001F03BBF01F073BD01F0D3
:1000A00079BD0078B0FA80F04009704701230370F1
:1000B0007047000038B5002502F074F8124C4FF478
:1000C000165102F055F8114800F068F9022210218B
:1000D0002046002301F02BFB0D4B1D6001F0CCFBF3
:1000E0000C4B00F59C4020302A461860FF212B461F
:1000F000204601F008FB2046074901F0ABFDBDE8B2
:100100003840642001F0C4BE84000020A400002018
:100110007C0000208000002018350A080000000044
:1001200070B5044603F0E0F802F084FC0022284B8E
:1001300002F0D8FC22A3D3E9002302F0FDFD02F077
:10014000C9FF054602F02EF8224901F083FD02F0B6
:1001500029F8214901F07EFD02F024F8002C064622
:1001600029DA2D2101F07AFD61420A22304601F0A0
:100170008EFD304601F075FD02F014F8174901F0CC
:1001800069FD02F00FF80222294601F05FFE02F03D
:1001900009F8134901F071FD284602F04BFC0AA34F
:1001A000D3E9002302F0C8FD00220E4B02F09AFCB6
:1001B00002F090FF70BD2146D7E700BFAFF300808B
:1001C0000000000000FEAF409A9999999999F13F7B
:1001D000000014401C350A082F350A083B350A0870
:1001E00045350A0800408F402DE9F04101F044FBFD
:1001F000444F04463B68444D8342444E22D20A2079
:1002000002F012FAFFF78CFF3B68286003F5FA63EF
:100210003B6001F0C7FF3E4901F01CFD01F0C2FF49
:100220000222296801F012FE01F0BCFF394901F0F9
:1002300024FD05223368013393FBF2F202EB8202C4
:100240009B1A336001220021334801F027FA296804
:100250000222314801F0FAFD0022304F1046397871
:1002600001F0C1F9002205461146387801F0BBF9CA
:100270003A7880461146002001F0B5F90022074681
:100280001146104601F0AFF933680246042B2BD813
:10029000DFE803F0032A1A361800214B21481B68B7
:1002A000A3423CBF012333601F4E3168A14207D2F5
:1002B000036801F57A71B3FA83F35B090360316077
:1002C000016891B12A460FE0174D16482968A142EE
:1002D00007D2036801F5FA71B3FA83F35B0903608F
:1002E0002960016809B13A460021104801F038F947
:1002F0000E4800F089F8BDE8F0410A2001F0C8BDC1
:100300004246F1E79C000020A00000207C00002075
:1003100048350A084E350A08840000200C000020E9
:10032000800000209400002098000020A4000020FD
:1003300010B5074801F0A0F9BDE81040054B064A8A
:1003400006491B7812780988054800F04CB800BFB0
:10035000840000200800002004000020000000208D
:10036000A400002038B50446C0680D4608B101F06D
:1003700011FCA379062B0CBF04200320684380B234
:10038000A08001F0FFFBE06028B10021A28803F00B
:1003900013F8658038BDA0806080FBE710B5044687
:1003A0000121C07902F016F90021E07902F023F969
:1003B0000123237010BD38B5037805460C461BB1E8
:1003C0000021C07902F006F92B78EC7153B1A4B288
:1003D0002046012102F0FEF82046BDE83840002109
:1003E00002F009B938BD70B5002504461646837180
:1003F000C0E9035505700572FFF7B4FF204631468A
:10040000FFF7D9FF204670BDC368002B00F0418480
:10041000F0B583790446023BDBB2042B8CBF322556
:10042000284A87B098BF52F8235001F01DFA23697B
:10043000C01AA842F9D372B6A388A579ADF80A30DC
:10044000BDF80A30022DE1689BB200F06E82072DE4
:1004500000F06B82062D00F01D84052D00F0A183B5
:10046000082D00F09E83002D40F04F85002B00F0FA
:1004700092834FF40006144A0496BDF80A30033103
:10048000033B9BB2ADF80A3011F8033CDBB28DF8A8
:10049000073011F8023CDBB28DF8063011F8013C50
:1004A000DBB28DF808309DF807009DF806301B027E
:1004B00043EA00439DF80800034303938DF8055079
:1004C0001BE100BF54350A08B8000020004600BFF9
:1004D00000BF00BF00BF00BF00BF00BF00BF00BF24
:1004E00000BF00BF00BF00BF00BF00BF00BF00BF14
:1004F00000BF00BF00BF00BF00BF00BF00BF00BF04
:1005000000BF00BF00BF00BF00BF00BF00BF00BFF3
:1005100000BF00BF00BF00BF00BF00BF00BF00BFE3
:1005200000BF00BF00BF00BF00BF00BF00BF00BFD3
:1005300000BF00BF00BF00BF00BF00BF00BF00BFC3
:1005400000BF00BF00BF00BF00BF00BF00BF00BFB3
:1005500000BF00BF00BF00BF00BF00BF00BF00BFA3
:1005600000BF00BF00BF00BF00BF00BF00BF00BF93
:1005700000BF00BF00BF00BF00BF00BF00BF00BF83
:1005800000BF00BF00BF00BF00BF00BF00BF00BF73
:1005900000BF00BF00BF00BF00BF00BF00BF00BF63
:1005A00000BF00BF00BF00BF00BF00BF00BF00BF53
:1005B00000BF00BF00BF00BF00BF00BF00BF00BF43
:1005C00000BF00BF00BF00BF00BF00BF00BF00BF33
:1005D00000BF00BFE3791068C3EBC30300EB8307E0
:1005E00050F82330B8885883004600BF00BF00BFD2
:1005F00000BF00BF00BF00BF00BF00BF00BF00BF03
:1006000000BF00BF00BF00BF00BF00BF00BF00BFF2
:1006100000BF00BF00BF00BF00BF00BF00BF00BFE2
:1006200000BF00BF00BF00BF00BF00BF00BF00BFD2
:1006300000BF00BF00BF00BF00BF00BF00BF00BFC2
:1006400000BF00BF00BF00BF00BF00BF00BF00BFB2
:1006500000BF00BF00BF00BF00BF00BF00BF00BFA2
:1006600000BF00BF00BF00BF00BF00BF00BF00BF92
:1006700000BF00BF00BF00BF00BF00BF00BF00BF82
:1006800000BF00BF00BF00BF00BF00BF00BF00BF72
:1006900000BF00BF00BF00BF00BF00BF00BF00BF62
:1006A00000BF00BF00BF00BF00BF00BF00BF00BF52
:1006B00000BF00BF00BF00BF00BF00BF00BF00BF42
:1006C00000BF00BF00BF00BF00BF00BF00BF00BF32
:1006D00000BF00BF00BF00BF00BF00BF00BF00BF22
:1006E00000BF049B5B0804939DF805300133DBB227
:1006F000172B8DF8053000F22387E3791068C3EBE0
:10070000C30300EB830750F82330B888188303989D
:10071000049B18427FF4DAAE004600BF00BF00BF62
:1007200000BF00BF00BF00BF00BF00BF00BF00BFD1
:1007300000BF00BF00BF00BF00BF00BF00BF00BFC1
:1007400000BF00BF00BF00BF00BF00BF00BF00BFB1
:1007500000BF00BF00BF00BF00BF00BF00BF00BFA1
:1007600000BF00BF00BF00BF00BFE3791068C3EB4C
:10077000C30300EB830750F82330B8885883004642
:1007800000BF00BF00BF00BF00BF00BF00BF00BF71
:1007900000BF00BF00BF00BF00BF00BF00BF00BF61
:1007A00000BF00BF00BF00BF00BF00BF00BF00BF51
:1007B00000BF00BF00BF00BF00BF00BF00BF00BF41
:1007C00000BF00BF00BF00BF00BF00BF00BF00BF31
:1007D00000BF00BF00BF00BF00BF00BF00BF00BF21
:1007E00000BF00BF00BF00BF00BF00BF00BF00BF11
:1007F00000BF00BF00BF00BF00BF00BF00BF00BF01
:1008000000BF00BF00BF00BF00BF00BF00BF00BFF0
:1008100000BF00BF00BF00BF00BF00BF00BF00BFE0
:1008200000BF00BF00BF00BF00BF00BF00BF00BFD0
:1008300000BF00BF00BF00BF00BF00BF00BF00BFC0
:1008400000BF00BF00BF00BF00BF00BF00BF00BFB0
:1008500000BF00BF00BF00BF00BF00BF00BF00BFA0
:1008600000BF00BF00BF00BF00BF00BF00BF00BF90
:1008700000BF00BF00BF00BF00BF00BF00BF00BF80
:1008800000BF00BF00BF00BF00BF00BF00BF00BF70
:1008900000BF00BF00BF00BF00BF00BF00BF00BF60
:1008A00000BF00BF00BF00BF00BF00BF00BF00BF50
:1008B00000BF00BF00BF00BF00BF00BF00BF00BF40
:1008C00000BF00BF00BF00BF00BF00BF00BF00BF30
:1008D00000BF00BF00BF00BF00BF00BF00BF00BF20
:1008E00000BF00BF00BF00BF00BF00BF00BF00BF10
:1008F00000BF00BF00BF00BF00BF00BF00BF00BF00
:1009000000BF00BF00BF00BF00BF00BF00BF00BFEF
:1009100000BF00BF00BF00BF00BF00BF00BF00BFDF
:1009200000BF00BF00BF00BFDBE6002B00F033813B
:100930004FF400054FF0000C124A08460495BDF82C
:100940000A300331033B9BB2ADF80A3011F8033C87
:10095000DBB28DF8063011F8023CDBB28DF80730BF
:100960008378DBB28DF808309DF806609DF807307B
:100970009DF808001B0243EA0643034303938DF8E6
:1009800005C07FE0B8000020004600BF00BF00BFE8
:1009900000BF00BF00BF00BF00BF00BF00BF00BF5F
:1009A00000BF00BF00BF00BF00BF00BF00BF00BF4F
:1009B00000BF00BF00BF00BF00BF00BF00BF00BF3F
:1009C00000BF00BF00BF00BF00BF00BF00BF00BF2F
:1009D00000BF00BF00BF00BF00BF00BF00BF00BF1F
:1009E00000BF00BF00BF00BF00BF00BF00BF00BF0F
:1009F00000BF00BF00BF00BF00BF00BF00BF00BFFF
:100A000000BF00BF00BF00BF00BF00BF00BF00BFEE
:100A100000BF00BF00BF00BF00BF00BF00BF00BFDE
:100A200000BFE3791068C3EBC30300EB830650F803
:100A30002330B0885883004600BF00BF00BF00BF0E
:100A400000BF00BF00BF00BF00BF00BF00BF00BFAE
:100A500000BF00BF00BF00BF00BF00BF00BF00BF9E
:100A600000BF00BF00BF00BF00BF00BF049B5B080A
:100A700004939DF805300133DBB2172B8DF8053058
:100A800000F28380E3791068C3EBC30300EB8306B5
:100A900050F82330B08818830398049B18427FF4E1
:100AA00073AF004600BF00BF00BF00BF00BF00BF64
:100AB00000BF00BF00BF00BF00BF00BF00BF00BF3E
:100AC00000BF00BF00BF00BF00BFE3791068C3EBE9
:100AD000C30300EB830650F82330B08858830046E8
:100AE00000BF00BF00BF00BF00BF00BF00BF00BF0E
:100AF00000BF00BF00BF00BF00BF00BF00BF00BFFE
:100B000000BF00BF00BF00BF00BF00BF00BF00BFED
:100B100000BF00BF00BF00BF00BF00BF00BF00BFDD
:100B200000BF00BF00BF00BF00BF00BF00BF00BFCD
:100B300000BF00BF00BF00BF00BF00BF00BF00BFBD
:100B400000BF00BF00BF00BF00BF00BF00BF00BFAD
:100B500000BF00BF00BF00BF00BF00BF00BF00BF9D
:100B600000BF00BF00BF00BF00BF00BF00BF00BF8D
:100B700000BF00BF00BF00BF00BF00BF00BF00BF7D
:100B800000BF00BF00BF00BF70E7BDF80A309BB2D6
:100B9000002B7FF4D2AE62B600F066FE206107B093
:100BA000F0BD002BF7D04FF400054FF0000C544B74
:100BB0001868544B0495BDF80A200331033A92B2E9
:100BC000ADF80A2011F8032CD2B28DF8062011F8E6
:100BD000022CD2B28DF8072011F8012CD2B28DF878
:100BE00008209DF806609DF80720120242EA06429E
:100BF0009DF80860324303928DF805C0E2795F6882
:100C0000C2EBC20200EB8206B68850F8222005979C
:100C10001683039E049A164225D05A68059E921B9D
:100C20004F2AFAD9E279C2EBC20200EB8206B688FB
:100C300050F8222056835A6805925A68059E921BE6
:100C4000072AFAD9049A520804929DF80520013225
:100C5000D2B2172A8DF80520D0D9BDF80A2092B259
:100C6000002AA7D197E75A68059E921B182AFAD93D
:100C7000E279C2EBC20200EB8206B68850F822206D
:100C800056835A6805925A68059E921B452AFAD9DE
:100C9000D8E77047002B3FF47EAF4FF000450026A9
:100CA000174A0495BDF80A300431043B9BB2ADF8F5
:100CB0000A3011F8043CDBB28DF8073011F8033C20
:100CC000DBB28DF8063011F8023CDBB28DF808304B
:100CD00011F8013CDBB28DF809309DF807009DF852
:100CE00006301B0443EA00639DF808009DF8097074
:100CF0003B4343EA002303938DF805607FE000BF88
:100D0000B8000020001000E0004600BF00BF00BF98
:100D100000BF00BF00BF00BF00BF00BF00BF00BFDB
:100D200000BF00BF00BF00BF00BF00BF00BF00BFCB
:100D300000BF00BF00BF00BF00BF00BF00BF00BFBB
:100D400000BF00BF00BF00BF00BF00BF00BF00BFAB
:100D500000BF00BF00BF00BF00BF00BF00BF00BF9B
:100D600000BF00BF00BF00BF00BF00BF00BF00BF8B
:100D700000BF00BF00BFE3791068C3EBC30300EB03
:100D8000830750F82330B8885883004600BF00BF5F
:100D900000BF00BF00BF00BF00BF00BF00BF00BF5B
:100DA00000BF00BF00BF00BF00BF00BF00BF00BF4B
:100DB00000BF00BF00BF00BF00BF00BF00BF00BF3B
:100DC00000BF00BF00BF00BF00BF00BF00BF00BF2B
:100DD00000BF00BF00BF00BF00BF00BF00BF00BF1B
:100DE00000BF00BF00BF00BF049B5B0804939DF8D9
:100DF00005300133DBB21F2B8DF805307ED8E37947
:100E00001068C3EBC30300EB830750F82330B888A6
:100E100018830398049B18427FF476AF004600BF06
:100E200000BF00BF00BF00BF00BF00BF00BF00BFCA
:100E300000BF00BF00BF00BF00BF00BF00BF00BFBA
:100E400000BF00BFE3791068C3EBC30300EB830767
:100E500050F82330B8885883004600BF00BF00BF59
:100E600000BF00BF00BF00BF00BF00BF00BF00BF8A
:100E700000BF00BF00BF00BF00BF00BF00BF00BF7A
:100E800000BF00BF00BF00BF00BF00BF00BF00BF6A
:100E900000BF00BF00BF00BF00BF00BF00BF00BF5A
:100EA00000BF00BF00BF00BF00BF00BF00BF00BF4A
:100EB00000BF00BF00BF00BF00BF00BF00BF00BF3A
:100EC00000BF00BF00BF00BF00BF00BF00BF00BF2A
:100ED00000BF00BF00BF00BF00BF00BF00BF00BF1A
:100EE00000BF00BF00BF00BF00BF00BF00BF00BF0A
:100EF00000BF00BF00BF00BF00BF75E7BDF80A30EC
:100F00009BB2002B7FF4CDAE45E6032D00F0288187
:100F1000002B3FF440AE4FF400050026164A04951E
:100F2000BDF80A30E079033B9BB2ADF80A300B788C
:100F30001768DBB28DF807304B78C0EBC000DBB22E
:100F40008DF808308B780331DBB28DF806309DF8D0
:100F500007C09DF808301B0243EA0C439DF806C009
:100F600043EA0C0307EB800C039357F820308DF80D
:100F70000560BCF804007AE0B8000020049B5B0820
:100F80000493004600BF00BF00BF00BF00BF00BF0A
:100F900000BF00BF00BF00BF00BF00BF00BF00BF59
:100FA00000BF00BF00BF00BF00BF00BF00BF00BF49
:100FB00000BF00BF00BF00BF00BF00BF00BF00BF39
:100FC00000BF00BF00BF00BF00BF00BF00BF00BF29
:100FD00000BF00BF00BF00BF00BF00BF00BF00BF19
:100FE00000BF00BF00BF00BF00BF00BF00BF00BF09
:100FF00000BF00BF00BF00BF00BF00BF00BF00BFF9
:1010000000BF00BF00BF00BFE07917689DF8053042
:10101000C0EBC00007EB800C013357F82000BCF890
:101020000470DBB28DF805300783004600BF00BFB7
:1010300000BF00BF00BF00BF00BF00BF00BF00BFB8
:1010400000BF00BF00BF00BF00BF00BF00BF00BFA8
:1010500000BF00BF9DF80530182B7AD0E3791068E7
:10106000C3EBC30300EB830750F82330B8885883E1
:101070000398049B184281D1004600BF00BF00BF07
:1010800000BF00BF00BF00BF00BF00BF00BF00BF68
:1010900000BF00BF00BF00BF00BFE3791068C3EB13
:1010A000C30300EB830750F82330B88818839DF8FA
:1010B00005300133DBB28DF80530049B5B080493E7
:1010C000004600BF00BF00BF00BF00BF00BF00BFA1
:1010D00000BF00BF00BF00BF00BF00BF00BF00BF18
:1010E00000BF00BF00BF00BF00BF00BF00BF00BF08
:1010F00000BF00BF00BF00BF00BF00BF00BF00BFF8
:1011000000BF00BF00BF00BF00BF00BF00BF00BFE7
:1011100000BF00BF00BF00BF00BF00BF00BF00BFD7
:1011200000BF00BF00BF00BF00BF00BF00BF00BFC7
:1011300000BF00BF00BF00BF00BF00BF00BF00BFB7
:1011400000BF00BF00BF00BF00BF9DF80530182BD7
:1011500084D1BDF80A309BB2002B7FF4E0AE1AE5D3
:10116000002B3FF418AD4FF400050026124A0495F9
:10117000BDF80A300331033B9BB2ADF80A3011F8D9
:10118000033CDBB28DF8073011F8023CDBB28DF87E
:10119000063011F8013CDBB28DF808309DF80700ED
:1011A0009DF806301B0243EA00439DF80800034304
:1011B00003938DF80560E0E0B8000020004600BF12
:1011C00000BF00BF00BF00BF00BF00BF00BF00BF27
:1011D00000BF00BF00BF00BF00BF00BF00BF00BF17
:1011E00000BF00BF00BF00BF00BF00BF00BF00BF07
:1011F00000BF00BF00BF00BF00BF00BF00BF00BFF7
:1012000000BF00BF00BF00BF00BF00BF00BF00BFE6
:1012100000BF00BF00BF00BF00BF00BF00BF00BFD6
:1012200000BF00BF00BF00BF00BF00BF00BF00BFC6
:1012300000BF00BF00BF00BF00BF00BF00BF00BFB6
:1012400000BF00BF00BF00BF00BF00BF00BF00BFA6
:1012500000BF00BF00BF00BF00BF00BF00BF00BF96
:1012600000BF00BF00BF00BF00BF00BF00BF00BF86
:1012700000BF00BF00BF00BF00BF00BF00BF00BF76
:1012800000BF00BF00BF00BF00BF00BF00BF00BF66
:1012900000BF00BF00BF00BF00BF00BF00BF00BF56
:1012A00000BF00BF00BF00BF00BF00BF00BF00BF46
:1012B00000BF00BF00BF00BF00BF00BF00BF00BF36
:1012C00000BF00BF00BF00BF00BF00BF00BF00BF26
:1012D00000BF00BF00BF00BF00BF00BF00BFE37979
:1012E0001068C3EBC30300EB830750F82330B888C2
:1012F0005883004600BF00BF00BF00BF00BF00BF53
:1013000000BF00BF00BF00BF00BF00BF00BF00BFE5
:1013100000BF00BF00BF00BF00BF00BF00BF00BFD5
:1013200000BF00BF00BF00BF00BF00BF00BF00BFC5
:1013300000BF00BF00BF00BF00BF00BF00BF00BFB5
:1013400000BF00BF00BF00BF00BF00BF00BF00BFA5
:1013500000BF00BF00BF00BF00BF00BF00BF00BF95
:1013600000BF049B5B0804939DF805300133DBB29A
:10137000172B8DF8053000F2EB80E3791068C3EB92
:10138000C30300EB830750F82330B8881883039811
:10139000049B18427FF412AF004600BF00BF00BF9D
:1013A00000BF00BF00BF00BF00BF00BF00BF00BF45
:1013B00000BF00BF00BF00BF00BF00BF00BF00BF35
:1013C00000BF00BF00BF00BF00BF00BF00BF00BF25
:1013D00000BF00BF00BF00BF00BF00BF00BF00BF15
:1013E00000BF00BF00BF00BF00BF00BF00BF00BF05
:1013F00000BF00BF00BF00BF00BF00BF00BF00BFF5
:1014000000BF00BF00BF00BF00BF00BF00BF00BFE4
:1014100000BF00BF00BF00BF00BFE3791068C3EB8F
:10142000C30300EB830750F82330B8885883004685
:1014300000BF00BF00BF00BF00BF00BF00BF00BFB4
:1014400000BF00BF00BF00BF00BF00BF00BF00BFA4
:1014500000BF00BF00BF00BF00BF00BF00BF00BF94
:1014600000BF00BF00BF00BF00BF00BF00BF00BF84
:1014700000BF00BF00BF00BF00BF00BF00BF00BF74
:1014800000BF00BF00BF00BF00BF00BF00BF00BF64
:1014900000BF00BF00BF00BF00BF00BF00BF00BF54
:1014A00000BF00BF00BF00BF00BF00BF00BF00BF44
:1014B00000BF00BF00BF00BF00BF00BF00BF00BF34
:1014C00000BF00BF00BF00BF00BF00BF00BF00BF24
:1014D00000BF00BF00BF00BF00BF00BF00BF00BF14
:1014E00000BF00BF00BF00BF00BF00BF00BF00BF04
:1014F00000BF00BF00BF00BF00BF00BF00BF00BFF4
:1015000000BF00BF00BF00BF00BF00BF00BF00BFE3
:1015100000BF00BF00BF00BF00BF00BF00BF00BFD3
:1015200000BF00BF00BF00BF00BF00BF00BF00BFC3
:1015300000BF00BF00BF00BF00BF00BF00BF10E77B
:10154000BDF80A309BB2002B7EF496AFFFF723BBA9
:10155000BDF80A309BB2002B7FF409AEFFF71BBB2E
:101560004388F0B58B422DD9067AC2F30743C2F304
:101570000724D5B23EB1734374437543C3F30723C5
:10158000C4F307242D0A90F806C0C768BCF1060F03
:101590000CBF042603264E43ACF1020CB919BCF172
:1015A000060F1DD8DFE80CF0041C08040F0404002B
:1015B000BC554B708D7005E0FE2B28BFFE23BB553C
:1015C0004D708C70F0BDBB554C708D70037A120E4F
:1015D00013B9D2B2CA70F5E75A43C2F30722F9E74A
:1015E000BB554C70E6E742EA012242EA00407047F0
:1015F00008B500F0F9F8014B186008BDB8000020EC
:10160000704710B504461021FEF749FD204610BD75
:1016100070B50E46054601F083F83E2100F0B8FE95
:101620000024A64207DD01F07BF80368295D9B6872
:1016300098470134F5E701F073F8BDE8704000F019
:10164000AEBE402307B58DF8051001A802218DF824
:101650000430FFF7DDFF012003B05DF804FB8023B9
:1016600007B502218DF8050001A88DF80430FFF7B9
:10167000CFFF03B05DF804FB00224260014A026024
:10168000704700BF70350A0808B50120FFF7E7FF73
:10169000BDE808404FF4FA6000F0DEB807B56AB95B
:1016A00041F0800180238DF8051001A802218DF8FA
:1016B0000430FFF7ADFF03B05DF804FB41F0C0015B
:1016C000F0E7437A43F00402427243F00C00FFF764
:1016D000C6BF38B514460D4601F022F8622100F06D
:1016E00057FE01F01DF8036829469B68984701F0F2
:1016F00017F8036821469B68984701F011F8BDE888
:10170000384000F04CBE70B5044616461D460A46E9
:101710000421FFF7DEFF324620460321FFF7D9FF01
:101720002A462046BDE870400221FFF7D2BF70B5BF
:10173000154604461E4600F0F3FF00F01FFE012D83
:1017400088BF237A257384BF43F0080323720023E4
:1017500063732EB1012D02BF237A43F00403237279
:101760004CF2503000F078F8207A40F02000FFF77B
:1017700076FF41F2941000F06FF8207A40F02000DC
:10178000FFF76DFF962000F067F8207A40F0200008
:10179000FFF765FF207A40F02000FFF760FF042389
:1017A00020466372FFF78DFF2046FFF76DFF02238F
:1017B0000620A372FFF753FF002220461146FFF7D1
:1017C00088FF204600220121FFF783FF2046AA223E
:1017D0000821FFF77EFFFF232046BDE870401A4630
:1017E0001946FFF790BF000008B5024B1B681B6845
:1017F000019308BDB001060808B5024B1B685B6881
:10180000019308BDB001060808B5024B1B689B6830
:10181000019308BDB001060808B5024B1B68DB68E0
:10182000019308BDB001060808B5024B1B681B698F
:10183000019308BDB001060808B5024B1B681B6B7D
:10184000019308BDB001060808B5024B1B685B6830
:10185000019308BD9C01060808B5024B1B68DB68B4
:10186000019308BD9C01060808B5024B1B681B6963
:10187000019308BD9C01060808B5024B1B685B6913
:10188000019308BD9C01060808B5024B1B685B6C00
:10189000019308BDD001060808B5024B1B689B6C7C
:1018A000019308BDD001060808B5024B1B685B6AAE
:1018B000019308BDC401060808B5024B1B689B6A6A
:1018C000019308BDC401060808B5024B1B68DB6A1A
:1018D000019308BDC401060808B5024B1B681B6BC9
:1018E000019308BDC401060808B5024B1B685B6B79
:1018F000019308BDC401060808B5024B1B689B6B29
:10190000019308BDC401060808B5024B1B681B6C97
:10191000019308BDC401060808B5024B1B681B6E85
:10192000019308BDC401060808B5024B1B68DB6CB7
:10193000019308BDAC01060808B5024B1B689B6DFE
:10194000019308BDAC01060808B5024B1B68DB6DAE
:10195000019308BDAC01060808B5024B1B681B6E5D
:10196000019308BDAC01060808B5024B1B685B6E0D
:10197000019308BDAC01060808B5024B1B689B6EBD
:10198000019308BDAC01060808B5024B1B68DB6E6D
:10199000019308BDAC01060808B5024B1B681B6F1C
:1019A000019308BDAC01060808B5024B1B685B6FCC
:1019B000019308BDAC01060808B5034B1B68D3F8BA
:1019C0008030019308BD0000AC01060808B5024B49
:1019D0001B68DB69019308BDB401060808B5024B1A
:1019E0001B681B6A019308BDB401060808B5024BC9
:1019F0001B681B68019308BDD801060808B5024B97
:101A00001B685B68019308BDD801060808B5024B46
:101A10001B681B69019308BDD801060808B5024B75
:101A20001B685B69019308BDD801060808B5024B25
:101A30001B689B69019308BDD801060808B5024BD5
:101A40001B68DB69019308BDD801060808B5024B85
:101A50001B681B6A019308BDD801060808B5024B34
:101A60001B689B6C019308BDC001060808B5024BBA
:101A70001B685B68019308BDA401060808B5024B0A
:101A80001B685B69019308BDA401060808B5034BF8
:101A90001B68D3F89030019308BD0000A40106082C
:101AA00008B5034B1B68D3F89C30019308BD0000B8
:101AB000A401060808B5024B1B685B68019308BDCA
:101AC000C801060808B5024B1B689B68019308BD56
:101AD000C801060808B5024B1B68DB68019308BD06
:101AE000C801060808B5024B1B681B69019308BDB5
:101AF000C801060808B5024B1B685B69019308BD65
:101B0000C801060808B5024B1B689B69019308BD14
:101B1000C801060808B5024B1B68DB69019308BDC4
:101B2000C801060808B5024B1B681B6A019308BD73
:101B3000C801060808B5024B1B681B6B019308BD62
:101B4000C801060808B5024B1B685B6B019308BD12
:101B5000C801060808B5024B1B681B6C019308BD41
:101B6000C801060808B5024B1B685B6C019308BDF1
:101B7000C801060808B5024B1B68DB6B019308BD62
:101B8000CC01060808B5024B1B681B68019308BD11
:101B9000A001060808B5024B1B685B68019308BDED
:101BA000A001060808B5024B1B681B6C019308BD19
:101BB000A001060808B5024B1B685B6C019308BDC9
:101BC000A001060870B5002604460D4640F8086FCF
:101BD000FFF75AFE28462570FFF7F8FE204666609C
:101BE00070BD000002220020044B1A60044B054A1D
:101BF000C3E900009A60FFF739BF00BFC8000020AA
:101C0000BC0000200000FFFFF8B506460D4600248A
:101C10008F18BD420CD0336830469B6815F8011B05
:101C20009847031E01DB1C44F3E7002C08BF1C4649
:101C30002046F8BD70B505460C46084649B101F08E
:101C4000F1FB2B68024621462846BDE87040DB6860
:101C5000184770BD08B5FFF7EDFF08BD03689B6826
:101C6000184738B50D210546FFF7F8FF0A2104464D
:101C70002846FFF7F3FF204438BD38B50546FFF787
:101C8000D9FF04462846FFF7ECFF204438BD002367
:101C9000012A98BF0A2230B58BB00C468DF824304B
:101CA00009A92546B4FBF2F404FB1253DBB2092B5D
:101CB00094BF30333733DBB2AA4201F8013DF0D98B
:101CC000FFF7B8FF0BB030BD2DE9F74F05461946B9
:101CD000104692461F469DF8306001F09DF940B1D4
:101CE00051492846FFF7A6FF0446204603B0BDE849
:101CF000F08F27F000444FF0FF32504621464B4B07
:101D000001F08AF948B94FF0FF3250462146474B5F
:101D100001F064F908B94649E3E74FF060425046E4
:101D20003946444B01F06EF908B14349D9E74FF009
:101D3000604250463946414B01F046F90028F4D143
:101D4000002200235046394601F03EF9044630B1E6
:101D50002D212846FFF782FF044607F100474FF088
:101D6000000B00204FF000083549DFF8D8905FFAEB
:101D70008BF39E4206D942464B4600F0DDFF0BF145
:101D8000010BF4E73B46524600F0F6FC89468046DC
:101D900001F080F9074600F02BFE02460B46404654
:101DA000494600F0E7FC0A22804689462846394623
:101DB000FFF76DFF0444002E97D028462249FFF715
:101DC00039FF4FF0000ADFF87CB00444002E8CD0BD
:101DD00052465B464046494600F084FE80468946AE
:101DE00001F030F9071E1BDA2D212846FFF736FFD8
:101DF000034679420A2228460193FFF748FF019BD8
:101E0000013E034438461C4400F002FE02460B46E5
:101E10004046494600F0AEFCF6B280468946D5E71A
:101E200039460023E6E700BF80350A08FFFFEF7F51
:101E300084350A08FFFFEF4188350A08FFFFEFC12C
:101E40000000E03F000024408C350A0837B5054605
:101E50001446084600F0EEFDE4B202460B46284662
:101E60000094FFF731FF03B030BD0000014B024A80
:101E70001A607047CC0000208E350A08024B1A68A1
:101E8000024B1A60704700BF10000020D0000020F5
:101E90000021FFF7F3BD00000022014B9A6070475C
:101EA000D4000020014B1860704700BF14000020D0
:101EB00008B5134B43B100F075F903681B699847E7
:101EC000002801DDAFF300800E4B43B100F0DEFBD4
:101ED00003681B699847002801DDAFF300800A4BB7
:101EE0000BB1AFF30080094B43B100F095F90368E3
:101EF0001B699847002801DDAFF3008008BD00BFD3
:101F000000000000000000000000000000000000D1
:101F100008B5FFF7CDFFFFF7AFFC014B186008BD18
:101F2000580400200548064A08B5121A054901F070
:101F300035FA054B054A1A6008BD00BF0040024053
:101F40000440024080370A08004002401E1C279AC5
:101F5000002307B51A466FF077010093FFF7A0FD45
:101F600003B05DF804FB000007B543880A2B08D0D6
:101F7000502B0BD1094B1B684BB103B05DF804EB40
:101F80001847FFF7E5FF03B05DF804FB00231A468E
:101F90006FF077010093FFF783FDF4E7E80000207E
:101FA000002110B51148FFF705FE114B1A68114BBF
:101FB0009A420CBF012200220F4B1A7001D0FFF78A
:101FC000B1FFFFF741FC044601F0FEF90B4B13B1E2
:101FD0002046AFF3008000210848FFF7CBFDBDE8A5
:101FE000104000210648FFF751BD00BFA51E0A089A
:101FF000004002401E1C279AE40000200000000060
:10200000691F0A087047F8B50E46002400F108075A
:10201000051D17F8011D0A223046FFF738FEAF42B2
:10202000044401D12046F8BD002CF2D02E213046C8
:10203000FFF714FE0444ECE710B504461821FEF740
:102040002EF8204610BD000010B50446044B1122A6
:10205000002140F8043B01F0AFF9204610BD00BF5D
:10206000B8350A080346074A10B543F8042B01F1B6
:10207000100251F8044B914243F8044BF9D10A780D
:102080001A7010BDB8350A08024AC0E900210422BE
:1020900002757047B8350A0810B59DF8084044EA43
:1020A0000324042344EA024444EA016444600375BF
:1020B00010BD000013B5044C04609DF8104000945E
:1020C000FFF7EAFF02B010BDB8350A084174704747
:1020D0007047704708B50021007CFFF7A7FC40EA75
:1020E000E07008BD08B50121007CFFF79FFC40EAC5
:1020F000E07008BD08B5007CFFF790FC20EAE070B6
:1021000008BD08B5007CFFF781FC20EAE07008BD3F
:1021100038B50446007C0D46FFF780FC002801DC42
:10212000607C28B12946207CFFF788FC20EAE0701B
:1021300038BD007CFFF78ABC10B504461421FDF7BA
:10214000AEFF204610BD704710B54FF47A730446B9
:1021500008460021C4E90113044B207423600123C5
:1021600011466374FFF742FC204610BDCC350A08C7
:102170000022007CFFF742BC10B504461422002167
:1021800001F01AF9054B20466360054BE36040F20D
:10219000011323818123238210BD00BF1C01002075
:1021A0001D02002030B50E4D87B001A8FFF7E4FFF7
:1021B0002978BFF35B8F11F001040ED12846FDF79B
:1021C00070FF50B1214601AA0648FFF7BDFF28461F
:1021D000FDF76CFF044801F0DBF8024807B030BDA2
:1021E000EC000020F4000020D1200A0810B50446BD
:1021F0001422002101F0E0F8054B20466360054BF6
:10220000E36040F2011323818123238210BD00BFCC
:102210009E0200209F03002010B50E4C86B001A83E
:10222000FFF7E4FF2378BFF35B8FDB070ED4204674
:10223000FDF737FF50B1012101AA0748FFF784FFDE
:102240002046FDF733FF054801F0A2F8024806B02A
:1022500010BD00BFF00000200801002047210A083F
:1022600070474174704708B5007CFFF74DFB20EACA
:10227000E07008BD08B5007CFFF71EFB20EAE070A7
:1022800008BD08B5007CFFF727FB40EAE07008BDF9
:1022900008B5007CFFF718FB40EAE07008BD007C41
:1022A000FFF722BB70B5467C04460D462EB1294689
:1022B000207CBDE87040FFF7F7BA007CFFF724FBF5
:1022C0000028F4DC304670BD10B504461421FDF73B
:1022D000E6FE204610BD000010B54FF47A730446A8
:1022E000084611460022C4E90123044B20742360F0
:1022F00001236374FFF710FB204610BDFC350A086C
:102300007047F8B5064615460C468F18BC4206D0F5
:10231000336830469B6814F8011B9847F6E7284657
:10232000F8BD0022007CFFF717BB0021007CFFF7FF
:102330001BBB0021007CFFF71FBB0021007CFFF7C7
:1023400023BB0021007CFFF727BB10B504461421F6
:10235000FDF7A5FE204610BD10B54FF47A73044674
:1023600008460021C4E90113034B11462360207481
:10237000FFF722FB204610BD2C360A080023007C04
:102380001A461946FFF7D0BA0022007CFFF7D4BAEC
:10239000C9B2FFF7F9BF0022007CFFF7D5BA0121CF
:1023A000FFF7F9BF002240681146FFF79BBBF0B56D
:1023B000154689B011220E460446002103A800F0FC
:1023C000FBFF284601F02EF8002781B273682846EB
:1023D000009703AAFFF742FB30B139462046FFF7CA
:1023E00053FE204609B0F0BD204603A9FFF73AFE90
:1023F000F7E7002240681146FFF794BB00224068CF
:102400001146FFF79FBB00224068FFF793BB0022F5
:10241000406881F00101FFF77DBB002340681A4648
:102420001946FFF76FBB002340681A461946FFF7AD
:1024300061BB002240681146FFF744BB0022022125
:102440004068FFF747BB002340681A46FFF732BBDE
:102450000422024B5A60024A1A607047200400208E
:1024600054360A08002340681A46FFF723BB0022AF
:1024700002214068FFF72EBB002240681146FFF79B
:1024800021BB002240681146FFF72CBB00234068A7
:102490001A461946FFF72EBB002340681A46194614
:1024A000FFF730BB00214068FFF754BB00214068B4
:1024B000FFF758BB0022406881F00101FFF72ABBFB
:1024C00000224068FFF736BB002240681146FFF744
:1024D00039BB002240681146FFF724BB70B5154692
:1024E0008EB0044608A8FFF7AFFD1122002103A813
:1024F00000F062FF0026284600F094FF0A4B009689
:1025000081B25B68284603AAFFF7A8FA30B13146CA
:102510002046FFF7B9FD20460EB070BD204603A946
:10252000FFF7A0FDF7E700BF20040020024B034A9D
:102530001A6000225A6070472804002090360A086A
:10254000024B986808B1FFF7A7B970473404002020
:10255000172870B5044601D9002070BDA0F10D0305
:10256000022B0BD9012824D800F0DAF80021007CD6
:10257000FFF71AFA80F00100C0B2EEE7124E317890
:10258000BFF35B8F11F001050DD13046FDF789FDDA
:1025900048B129460D48FFF715FB3046FDF786FD8B
:1025A0000B4800F0F5FE094B1878FFF717FA0028E2
:1025B000D2D1123C012C05D800F068F8007CFFF75E
:1025C0009BF9D7E70120C8E730040020340400203D
:1025D00041250A08172838B504460D460AD8FF29B0
:1025E00008D0FFF7B5FF28B129462046BDE838409E
:1025F000FFF70AB938BD38B504460D46FFF70CF9A8
:10260000FF2810D0062804D84D2323FA00F0C30772
:1026100009D42046FFF79CFF28B129462046BDE893
:102620003840FFF701B938BD10B5044609289CBFF2
:102630000A34A4B22046FFF78BFF50B10321204695
:10264000FFF7DAF8032804D12046BDE81040FFF771
:10265000F3B8002010BD704770B5142504462A4613
:10266000002100F0A9FE25808025074E284631462E
:102670002581258200F078F831466060284600F018
:1026800073F8E060204670BDC4360A0830B50E4DC0
:1026900087B02978BFF35B8F11F0010411D1284670
:1026A000FDF7FFFC68B101A8FFF7D6FF214601AA9C
:1026B0000648FFF711FE2846FDF7F8FC044800F035
:1026C00067FE024807B030BD4004002044040020EB
:1026D00057260A08002307B51A46194600930348EF
:1026E000FFF7E8FC03B05DF804FB00BF5C040020CA
:1026F0007047000070B514232025084E044603607F
:10270000314685600561284600F02EF8314660604C
:10271000284600F029F8E060204670BDC4360A085B
:1027200030B50E4D87B02978BFF35B8F11F00104EF
:1027300011D12846FDF7B5FC68B101A8FFF7DAFF13
:10274000214601AA0648FFF707FE2846FDF7AEFC22
:10275000044800F01DFE024807B030BD740400209C
:1027600078040020F1260A08FDF797BC81F00041AB
:1027700002E000BF83F0004330B54FEA41044FEA66
:10278000430594EA050F08BF90EA020F1FBF54EA01
:10279000000C55EA020C7FEA645C7FEA655C00F09D
:1027A000E2804FEA5454D4EB5555B8BF6D420CDD6E
:1027B0002C4480EA020281EA030382EA000083EAF1
:1027C000010180EA020281EA0303362D88BF30BD91
:1027D00011F0004F4FEA01314FF4801C4CEA1131E7
:1027E00002D0404261EB410113F0004F4FEA033346
:1027F0004CEA133302D0524263EB430394EA050FD1
:1028000000F0A780A4F10104D5F1200E0DDB02FA3F
:102810000EFC22FA05F2801841F1000103FA0EF2D3
:10282000801843FA05F359410EE0A5F120050EF199
:10283000200E012A03FA0EFC28BF4CF0020C43FACA
:1028400005F3C01851EBE37101F0004507D54FF0D7
:10285000000EDCF1000C7EEB00006EEB0101B1F527
:10286000801F1BD3B1F5001F0CD349085FEA30006D
:102870004FEA3C0C04F101044FEA445212F5800F78
:1028800080F09A80BCF1004F08BF5FEA500C50F115
:10289000000041EB045141EA050130BD5FEA4C0CF8
:1028A000404141EB0101013C28BFB1F5801FE9D255
:1028B00091F0000F04BF01460020B1FA81F308BF78
:1028C0002033A3F10B03B3F120020CDA0C3208DD44
:1028D00002F1140CC2F10C0201FA0CF021FA02F11F
:1028E0000CE002F11402D8BFC2F1200C01FA02F18F
:1028F00020FA0CFCDCBF41EA0C019040E41AA2BFB4
:1029000001EB0451294330BD6FEA04041F3C1CDA7B
:102910000C340EDC04F11404C4F1200220FA04F09B
:1029200001FA02F340EA030021FA04F345EA030145
:1029300030BDC4F10C04C4F1200220FA02F001FA07
:1029400004F340EA0300294630BD21FA04F0294689
:1029500030BD94F0000F83F4801306BF81F4801122
:102960000134013D4EE77FEA645C18BF7FEA655C95
:1029700029D094EA050F08BF90EA020F05D054EA67
:10298000000C04BF1946104630BD91EA030F1EBF6C
:102990000021002030BD5FEA545C05D14000494170
:1029A00028BF41F0004130BD14F580043CBF01F563
:1029B000801130BD01F0004545F0FE4141F4700149
:1029C0004FF0000030BD7FEA645C1ABF1946104624
:1029D0007FEA655C1CBF0B46024650EA013406BF25
:1029E00052EA033591EA030F41F4002130BD00BFE4
:1029F00090F0000F04BF0021704730B54FF48064A1
:102A000004F132044FF000054FF0000150E700BF21
:102A100090F0000F04BF0021704730B54FF4806480
:102A200004F1320410F0004548BF40424FF000016D
:102A30003EE700BF42004FEAE2014FEA31014FEAB0
:102A400002701FBF12F07F4393F07F4F81F06051FF
:102A5000704732F07F4208BF704793F07F4F04BF4A
:102A600041F40021704730B54FF4607401F0004527
:102A700021F000411CE700BF50EA010208BF704787
:102A800030B54FF000050AE050EA010208BF704778
:102A900030B511F0004502D5404261EB41014FF4E1
:102AA000806404F132045FEA915C3FF4D8AE4FF0E9
:102AB00003025FEADC0C18BF03325FEADC0C18BFCC
:102AC000033202EBDC02C2F1200300FA03FC20FA1D
:102AD00002F001FA03FE40EA0E0021FA02F114446A
:102AE000BDE600BF70B54FF0FF0C4CF4E06C1CEA83
:102AF00011541DBF1CEA135594EA0C0F95EA0C0FF4
:102B000000F0DEF82C4481EA030621EA4C5123EA66
:102B10004C5350EA013518BF52EA033541F4801195
:102B200043F4801338D0A0FB02CE4FF00005E1FB48
:102B300002E506F00042E0FB03E54FF00006E1FB92
:102B400003569CF0000F18BF4EF0010EA4F1FF04D5
:102B5000B6F5007F64F5407404D25FEA4E0E6D4115
:102B600046EB060642EAC62141EA55514FEAC52026
:102B700040EA5E504FEACE2EB4F1FD0C88BFBCF5A2
:102B8000E06F1ED8BEF1004F08BF5FEA500E50F153
:102B9000000041EB045170BD06F0004646EA010119
:102BA00040EA020081EA0301B4EB5C04C2BFD4EB4B
:102BB0000C0541EA045170BD41F480114FF0000E44
:102BC000013C00F3AB8014F1360FDEBF002001F0B2
:102BD000004170BDC4F10004203C35DA0C341BDC2C
:102BE00004F11404C4F1200500FA05F320FA04F0FE
:102BF00001FA05F240EA020001F0004221F0004132
:102C000010EBD37021FA04F642EB06015EEA430EA4
:102C100008BF20EAD37070BDC4F10C04C4F12005D4
:102C200000FA04F320FA05F001FA04F240EA020087
:102C300001F0004110EBD37041F100015EEA430E58
:102C400008BF20EAD37070BDC4F1200500FA05F278
:102C50004EEA020E20FA04F301FA05F243EA0203F7
:102C600021FA04F001F0004121FA04F220EA020006
:102C700000EBD3705EEA430E08BF20EAD37070BD4C
:102C800094F0000F0FD101F00046400041EB01012C
:102C900011F4801F08BF013CF7D041EA060195F00E
:102CA000000F18BF704703F00046520043EB0303C8
:102CB00013F4801F08BF013DF7D043EA06037047B5
:102CC00094EA0C0F0CEA135518BF95EA0C0F0CD0C0
:102CD00050EA410618BF52EA4306D1D181EA030106
:102CE00001F000414FF0000070BD50EA410606BF00
:102CF0001046194652EA430619D094EA0C0F02D145
:102D000050EA013613D195EA0C0F05D152EA033689
:102D10001CBF104619460AD181EA030101F00041A7
:102D200041F0FE4141F470014FF0000070BD41F0F0
:102D3000FE4141F4780170BD70B54FF0FF0C4CF4CA
:102D4000E06C1CEA11541DBF1CEA135594EA0C0FE9
:102D500095EA0C0F00F0A7F8A4EB050481EA030E36
:102D600052EA03354FEA013100F088804FEA03331D
:102D70004FF0805545EA131343EA12634FEA0222EB
:102D800045EA111545EA10654FEA00260EF00041AC
:102D90009D4208BF964244F1FD0404F5407402D2FE
:102DA0005B084FEA3202B61A65EB03055B084FEA8F
:102DB00032024FF480104FF4002CB6EB020E75EB8C
:102DC000030E22BFB61A754640EA0C005B084FEAB4
:102DD0003202B6EB020E75EB030E22BFB61A754631
:102DE00040EA5C005B084FEA3202B6EB020E75EB7C
:102DF000030E22BFB61A754640EA9C005B084FEAF4
:102E00003202B6EB020E75EB030E22BFB61A754600
:102E100040EADC0055EA060E18D04FEA051545EAEF
:102E200016754FEA06164FEAC30343EA52734FEA98
:102E3000C2025FEA1C1CC0D111F4801F0BD141EA11
:102E400000014FF000004FF0004CB6E711F4801F76
:102E500004BF01430020B4F1FD0C88BFBCF5E06F56
:102E60003FF6AFAEB5EB030C04BFB6EB020C5FEA66
:102E7000500C50F1000041EB045170BD0EF0004EBB
:102E80004EEA113114EB5C04C2BFD4EB0C0541EAED
:102E9000045170BD41F480114FF0000E013C90E6EA
:102EA00045EA060E8DE60CEA135594EA0C0F08BFAE
:102EB00095EA0C0F3FF43BAF94EA0C0F0AD150EAAD
:102EC00001347FF434AF95EA0C0F7FF425AF104640
:102ED00019462CE795EA0C0F06D152EA03353FF468
:102EE000FDAE1046194622E750EA410618BF52EAE5
:102EF00043067FF4C5AE50EA41047FF40DAF52EAB9
:102F000043057FF4EBAE12E74FF0FF3C06E000BF55
:102F10004FF0010C02E000BF4FF0010C4DF804CD62
:102F20004FEA410C7FEA6C5C4FEA430C18BF7FEA22
:102F30006C5C1BD001B050EA410C0CBF52EA430C50
:102F400091EA030F02BF90EA020F0020704710F1D0
:102F5000000F91EA030F58BF994208BF90422CBF5F
:102F6000D8176FEAE37040F0010070474FEA410C58
:102F70007FEA6C5C02D150EA013C07D14FEA430C76
:102F80007FEA6C5CD6D152EA033CD3D05DF8040BE7
:102F9000704700BF8446104662468C461946634619
:102FA00000E000BF01B5FFF7B7FF002848BF10F1F0
:102FB000000F01BD4DF808EDFFF7F4FF0CBF012035
:102FC00000205DF808FB00BF4DF808EDFFF7EAFFB1
:102FD00034BF012000205DF808FB00BF4DF808ED6C
:102FE000FFF7E0FF94BF012000205DF808FB00BF61
:102FF0004DF808EDFFF7CEFF94BF012000205DF8EB
:1030000008FB00BF4DF808EDFFF7C4FF34BF0120F7
:1030100000205DF808FB00BF4FEA410C7FEA6C5CC2
:1030200002D150EA013C0AD14FEA430C7FEA6C5CC2
:1030300002D152EA033C02D14FF0000070474FF03A
:10304000010070474FEA410212F5001215D211D566
:103050006FF47873B3EB625212D94FEAC12343F095
:10306000004343EA505311F0004F23FA02F018BF17
:10307000404270474FF00000704750EA013005D1E0
:1030800011F0004008BF6FF0004070474FF00000A3
:10309000704700BF4A0011D212F5001211D20DD5AF
:1030A0006FF47873B3EB62520ED44FEAC12343F04E
:1030B000004343EA505323FA02F070474FF00000F8
:1030C000704750EA013002D14FF0FF3070474FF0A7
:1030D000000070474FEA4102B2F1E04324BFB3F56C
:1030E000001CDCF1FE5C0DD901F0004C4FEAC0027F
:1030F0004CEA5070B2F1004F40EB830008BF20F063
:103100000100704711F0804F21D113F13872BCBF1C
:1031100001F00040704741F480114FEA5252C2F171
:103120001802C2F1200C10FA0CF320FA02F018BFBA
:1031300040F001004FEAC1234FEAD32303FA0CFC0D
:1031400040EA0C0023FA02F34FEA4303CCE77FEA9C
:10315000625307D150EA01331EBF4FF0FE4040F4E6
:103160004000704701F0004040F0FE4040F4000095
:10317000704700BF80F0004002E000BF81F00041D6
:1031800042001FBF5FEA410392EA030F7FEA226C0D
:103190007FEA236C6AD04FEA1262D2EB1363C1BF9D
:1031A000D218414048404140B8BF5B42192B88BF0C
:1031B000704710F0004F40F4000020F07F4018BF2F
:1031C000404211F0004F41F4000121F07F4118BF4F
:1031D000494292EA030F3FD0A2F1010241FA03FCF7
:1031E00010EB0C00C3F1200301FA03F100F00043DF
:1031F00002D5494260EB4000B0F5000F13D3B0F1A7
:10320000807F06D340084FEA310102F10102FE2A15
:1032100051D2B1F1004F40EBC25008BF20F0010085
:1032200040EA03007047490040EB0000013A28BF24
:10323000B0F5000FEDD2B0FA80FCACF1080CB2EBA7
:103240000C0200FA0CF0AABF00EBC2505242184325
:10325000BCBFD0401843704792F0000F81F40001CA
:1032600006BF80F400000132013BB5E74FEA41039D
:103270007FEA226C18BF7FEA236C21D092EA030F09
:1032800004D092F0000F08BF0846704790EA010F83
:103290001CBF0020704712F07F4F04D1400028BFB0
:1032A00040F00040704712F100723CBF00F5000092
:1032B000704700F0004343F0FE4040F400007047C8
:1032C0007FEA226216BF08467FEA23630146420274
:1032D00006BF5FEA412390EA010F40F48000704787
:1032E0004FF0000304E000BF10F0004348BF40422D
:1032F0005FEA000C08BF704743F0964301464FF069
:1033000000001CE050EA010208BF70474FF00003C4
:103310000AE000BF50EA010208BF704711F0004305
:1033200002D5404261EB41015FEA010C02BF8446D5
:103330000146002043F0B64308BFA3F18053A3F534
:103340000003BCFA8CF2083AA3EBC25310DB01FA7B
:1033500002FC634400FA02FCC2F12002BCF1004FFF
:1033600020FA02F243EB020008BF20F00100704790
:1033700002F1200201FA02FCC2F1200250EA4C00E4
:1033800021FA02F243EB020008BF20EADC7070472A
:10339000002301461A46184600F04CB80A449142F0
:1033A00000F1FF3300D1704710B511F8014B914285
:1033B00003F8014FF9D110BD03460244934200D1F6
:1033C000704703F8011BF9E738B5104B04461D6838
:1033D000AB6BB3B91820FEF7D5FB0246A86320B942
:1033E00042210B4B0B48FEF7DDFB0B490B4BC0E9B1
:1033F00000130B4B002183600B2383810120C2E962
:1034000004010022AB6B1C615A6138BD140000201E
:10341000C5360A08DC360A080E33CDAB34126DE629
:10342000ECDE0500034613F8012B002AFBD1181A25
:10343000013870472DE9F843DFF8AC800646D8F82C
:1034400000001F460D46914600F058F8274B1C68B7
:1034500034B9274C1C60274B13B11B68C4F8883063
:1034600063681F2B07DDD8F8000000F049F84FF023
:10347000FF30BDE8F8835EB3D4F8880088B91E4BEE
:1034800023B9D8F8000000F03AF8F0E74FF4847060
:10349000FEF778FB0028F4D00023C0E94033C4F8DD
:1034A000880001226368022E40F8239002FA03F29A
:1034B00000EB8301D0F8003143EA0203C0F8003189
:1034C000C1F8807002BFD0F804311343C0F8043152
:1034D0006368D8F800005A1C0233626044F8235035
:1034E00000F00EF80020C4E7780000201805002046
:1034F0008C04002000000000851B0A0870477047FC
:103500007047000021000A0861000A0889000A08C3
:103510008D000A080000000050504D004D512D3222
:103520002053656E736F7220446174613A0A0052D1
:1035300061772056616C75653A2000566F6C746136
:1035400067653A200020560050504D3A2000207008
:10355000706D00002C01000018000000F401000054
:103560002C010000500000000000000000000000DE
:1035700001160A0803160A0843160A08091C0A0855
:103580006E616E00696E66006F7666002E00617077
:10359000700025592D256D2D25645425483A254D5B
:1035A0003A2553257A0061736374696D65000000E4
:1035B000000000000000000007200A0805200A089B
:1035C00039200A080000000000000000D3200A088B
:1035D00039210A0811210A08091C0A0803210A08CE
:1035E000D5200A08E5200A0833210A08F5200A0830
:1035F000CD200A08000000000000000061220A0837
:10360000C9220A08A5220A08091C0A0875220A0804
:1036100091220A0883220A089F220A0863220A08C4
:1036200067220A08000000000000000001230A08C9
:103630004B230A0823230A0803230A082B230A081A
:1036400033230A083B230A0843230A08000000002A
:103650000000000047240A083D240A0833240A0811
:10366000A5230A0827240A081B240A08A5240A08F7
:10367000AD240A080F240A0807240A08FD230A08B3
:10368000F3230A08AF230A0800000000000000002E
:1036900065240A086F240A0879240A0883240A0882
:1036A0008D240A0899240A08A5240A08AD240A08CA
:1036B000B5240A08C1240A08C9240A08D3240A0820
:1036C000DD240A08005245454E54206D616C6C6F34
:1036D0006320737563636565646564002F6D6E7444
:1036E0002F776F726B73706163652F776F726B7377
:1036F000706163652F4743432D31302D70697065CC
:103700006C696E652F6A656E6B696E732D474343F6
:103710002D31302D706970656C696E652D34385FA0
:1037200032303230313132345F3136303631383048
:103730003634312F7372632F6E65776C69622F6E2A
:1037400065776C69622F6C6962632F7374646C694E
:10375000622F72616E642E630000000031030A085C
:10376000F1150A08E51B0A086D1E0A087D1E0A08E5
:10377000991E0A0851240A082D250A08D5260A0888
:043780000000000045
:1037840001000000040000000200000064000000CA
:10379400A6350A0818000020000000000000000000
:1037A4000000000000000000000000000000000015
:1037B4000000000000000000000000000000000005
:1037C40000000000000000000000000000000000F5
:1037D40000000000000000000000000000000000E5
:1037E40000000000000000000000000000000000D5
:0C37F40000000000000000001C05002088
:10380000FFFFFFFF00000102030405060708090A85
:103810000B0C0D0E0F101112131415161718191A80
:083820001B1C1D1E1F202800C7
:043828007856341288
:04000005080A0020C5
:00000001FF
