:02000004080AE8
:1000000000000A0860520A08000006000600050108
:080010000402E50C00000000F1
:04001800D84E0A08AC
:1000200009480A4908B5884205D0094A824202D0E7
:10003000121A04F09DFE0748074A0021121A04F024
:10004000A5FE064808BD00BF00000020B4510A0804
:100050008400002084000020850500208505002004
:1000600070B502F0E1FA0025054E064CA41BA40869
:10007000AC4200D170BD56F8043B98470135F7E714
:1000800084510A08A8510A0800F050B808B500F0D9
:10009000ABF9BDE8084002F07FBA02F09DB802F06B
:1000A000A3B80078B0FA80F04009704701230370CC
:1000B0007047000010B40B4B0B4C1B6821680B4AB7
:1000C0008B4206D91368C831B3FA83F35B09136016
:1000D0002160126802B102460021054810BC01F0FF
:1000E00059BD00BFBC000020F8000020E80000203F
:1000F0000801002070B506460C4615462AB9BDE831
:1001000070400368C9B29B68184700290BDA0A2AB5
:1001100009D12D2102F0D4F861423046EAB2BDE89F
:10012000704002F0DCB82146F7E7000010B502F09D
:100130007DFB4FF4165102F05FFB03211B4C084678
:1001400002F08CFD1A4800F043FC204600230222F6
:10015000102101F006FE002320461A46FF2101F07F
:10016000ECFD00222046114601F0B2FD204600249D
:10017000104902F0A1F8104B1C7001F09FFE0F4BCC
:1001800000F59C5008301860022223460C490D48A7
:1001900002F012F8234602220B490C4802F00CF838
:1001A000BDE81040642002F0B7B900BFD8000020BD
:1001B00008010020EC4E0A08C400002004010020C1
:1001C000B0000020FA4E0A08F0000020014F0A0893
:1001D00008B503F0A3FF18A3D3E9002303F0F6FF4B
:1001E00004F0ECFA03F09AFF02460B4614A1D1E9A1
:1001F000000104F015F90022194B03F02FFE04F062
:10020000DDFA184904F0ECFC03F088FF0EA3D3E9F3
:10021000002303F0DBFF0EA3D3E9002302F0FEFD71
:1002200004F0CCFA03F07AFF0BA3D3E9002303F028
:10023000CDFF04F0C3FA08BDAFCBBA134001543F61
:10024000000000000088C3409A9999999999D93F74
:100250004C37894160E5F6BF2D431CEBE2361A3F6F
:1002600000409F4000808F4310B52D4801F026FDCF
:100270002C4B1C784CBB22462146294801F028FD16
:100280002949274802F018F822460821244801F09D
:100290001FFD264B0A2219682148FFF72BFF012278
:1002A00021461F4801F014FD21491D4802F004F8C1
:1002B000012208211A4801F00BFDBDE810401D4B3A
:1002C0000A2219681648FFF715BF00221448114684
:1002D00001F0FEFC1849124801F0EEFF002208214F
:1002E0000F4801F0F5FC154B022219680C4802F08A
:1002F000D5F8012200210A4801F0EAFC104908481B
:1003000001F0DAFF01220821054801F0E1FCBDE817
:1003100010400C4B02221968014802F0BFB800BF20
:10032000D80000200C000020084F0A08F000002030
:10033000114F0A08B00000201A4F0A08EC000020F4
:10034000234F0A08AC0000200A46014610B11046AF
:10035000FFF7B0BE014801F01DBC00BF080100203E
:1003600038B51C4D04462B786BB901282CD11A4B9B
:100370001B684BBB01F0A2FD184B194A18601368AB
:100380002C7032331360174B1A68154B1B689A4256
:100390000FD901F093FD114B1B68C01AB0F5FA7F1D
:1003A00009D9012C03D102200B4B1C6038BD5CB96C
:1003B0002C700020FAE7084B1A682AB9012C03D1E7
:1003C00003202A701C60F1E7034B1C60631E584237
:1003D0005841EBE71C010020D0000020B4000020B1
:1003E000C0000020BC0000202DE9F84301F066FDAC
:1003F0008D4D8E4E2860032002F05AFCFFF7B0FFAF
:10040000307002F013FA04460A22317801F067FFD7
:10041000204601F058FF02F009FA854901F04CFF2F
:1004200002F004FA0746834C0A22217801F057FFB4
:10043000384601F048FF2378042B63D8DFE813F037
:10044000050065007F00620006027B4F7B4E3B7813
:10045000BFF35B8F13F0010F09D13846FFF721FE80
:1004600028B101F02BFD30603846FFF71FFE744BBA
:100470002A681B689A420DD901237248237001F043
:100480001DFC00226F48114601F022FC6E496D48A8
:1004900001F012FF6D492B680A686D4C934207D931
:1004A000236802F5FA72B3FA83F35B0923600A60EA
:1004B00002F0BCF90A222168FFF71CFE01F0FEFCE5
:1004C0003368C01AB0F57A7F1CD9624C00220E2125
:1004D0005C4801F0FDFB2368092B09DC0A2200219E
:1004E0005848FFF707FE00220F21564801F0F0FBA5
:1004F00021680A22013953482160FFF7FBFD01F012
:10050000DDFC3060544B186875E13378013B012BFA
:1005100010D80223237001F0D1FC494B00F51C5088
:1005200010301860474801F0C9FB02F07FF94B49D1
:1005300001F0C2FEBDE8F843494800F07FBA494ED9
:100540003378BFF35B8FDB070AD43046FFF7A9FD92
:1005500030B101F0B3FC444B18603046FFF7A6FD04
:10056000374B2A681B68414E9A4240F29880042318
:1005700023703F4BDFF8FC80186804F029FA3E4BEB
:100580000146186804F02CFB3C4B0446186804F044
:100590001FFA074603F0C2FD1FA3D3E9002303F0AF
:1005A00015FE04F00BF903F0B9FD1DA3D3E90023F8
:1005B00003F00CFE04F002F904F0AEFB304B1860BF
:1005C000204603F0ABFD14A3D3E9002303F0FEFDA6
:1005D00004F0F4F803F0A2FD11A3D3E9002303F023
:1005E000F5FD04F0EBF804F097FBC8F8000038467E
:1005F000FFF7EEFD234B18602046FFF7E9FD224B85
:100600001860FFF731FE43F69722D8F80030934286
:100610003CDD114B19683FE0AFCBBA134001543FAA
:1006200008A68B2EBA688C40BC000020B8000020C1
:100630002C4F0A08C400002094000020A0000020D5
:1006400004010020D80000203A4F0A08F8000020DA
:10065000E8000020000000208C000020434F0A0822
:100660000801002098000020A40000209000002035
:10067000C8000020B0000020CC000020F4000020C2
:10068000F0000020EC000020AC00002042F20F72CD
:10069000934240F3B38031680020FFF755FE904C41
:1006A0002B6822688F4F9B1A142B11D9DFF83882E0
:1006B0000A2002F010FB04F08BF9D8F8001004F0C7
:1006C000D3F83B68C8F8000001333B602B68236017
:1006D0003B680A2B40F08E80DFF80C82DFF80C922A
:1006E000D8F8000003F01AFD77A3D3E9002303F044
:1006F0006DFD04F01BF8044604F06AF90146054656
:10070000D9F8000004F0B0F8794AC9F8000013687D
:10071000784801331360784B1A68A242B8BF1C6056
:100720000024002322462146C8F800303C6001F036
:10073000CFFA72496F4801F0BFFD01F0BFFBDFF84F
:10074000C081D8F80030C01AB0F57A7F1DD96D4F3E
:1007500022460E21674801F0BBFA3B68092B09DCF1
:100760000A2221466348FFF7C5FC22460F21614853
:1007700001F0AEFA39680A2201395E483960FFF7A4
:10078000B9FC01F09BFBC8F8000001220021594888
:1007900001F09EFA5C4B1C7894BB5C49554801F013
:1007A0008BFD02F043F85A4901F086FD0122042135
:1007B000504801F08DFA284603F0B0FC44A3D3E979
:1007C000002303F003FD03F0F9FF03F0A7FC42A3AD
:1007D000D3E9002303F0FAFC03F0F0FF04460146DE
:1007E0000222444801F05AFE02F020F8022221467B
:1007F00001F071FE3068FFF75DFC9BE6454B09E7B1
:10080000012CF7D144493B4801F056FD02F00EF8A7
:10081000424901F051FD22460421364801F058FAC0
:10082000284603F07BFC2AA3D3E9002303F0CEFC87
:1008300003F0C4FF03F072FC27A3D3E9002303F005
:10084000C5FC03F0BBFFFFF7C3FCC7E7344D354ED3
:100850002B78BFF35B8F13F0010F09D12846FFF708
:1008600020FC28B101F02AFB30602846FFF71EFC6F
:100870002D4D2B680BB90123237001F01FFB33684A
:10088000C01AB0F57A7F7FF655AE00220E211948C6
:1008900001F01EFA2B68092B09DC0A2200211548F9
:1008A000FFF728FC00220F21124801F011FA2968F5
:1008B0000A2201390F482960FFF71CFC01F0FEFAFB
:1008C000306037E6AFF300809A9999999999B93FCA
:1008D000AFCBBA134001543F08A68B2EBA688C40A8
:1008E000D4000020FC00002000010020CC000020EB
:1008F000C8000020D8000020F4000020504F0A0853
:10090000A4000020040000200C000020154F0A085D
:100910005B4F0A0884000020274F0A08614F0A082D
:100920009C000020A80000200800002010B51348FB
:1009300001F0BCF9022304220121114800F06DF8F6
:100940000022104C1046217801F067F900220E4B6E
:1009500011461860207801F060F90C4B217818607E
:100960000022084601F059F90022094B114618608F
:10097000104601F052F9074B186010BDD800002056
:1009800008010020100000208C00002084000020BE
:10099000900000208800002038B50446C0680D464D
:1009A00008B101F021FCA379062B0CBF0420032021
:1009B000684380B2A08001F00FFCE06028B1002104
:1009C000A28804F0E3F9658038BDA0806080FBE771
:1009D00010B504460121C07902F040F90021E07908
:1009E00002F04DF90123237010BD38B50378054698
:1009F0000C461BB10021C07902F030F92B78EC7164
:100A000053B1A4B22046012102F028F92046BDE8E6
:100A10003840002102F033B938BD70B500250446D6
:100A200016468371C0E9035505700572FFF7B4FFE0
:100A300020463146FFF7D9FF204670BDC368002B22
:100A400000F04184F0B583790446023BDBB2042B0D
:100A50008CBF3225284A87B098BF52F8235001F046
:100A600025FA2369C01AA842F9D372B6A388A579DA
:100A7000ADF80A30BDF80A30022DE1689BB200F0F3
:100A80006E82072D00F06B82062D00F01D84052D6F
:100A900000F0A183082D00F09E83002D40F04F85CB
:100AA000002B00F092834FF40006144A0496BDF820
:100AB0000A300331033B9BB2ADF80A3011F8033C16
:100AC000DBB28DF8073011F8023CDBB28DF806304E
:100AD00011F8013CDBB28DF808309DF807009DF855
:100AE00006301B0243EA00439DF8080003430393CA
:100AF0008DF805501BE100BF684F0A082001002057
:100B0000004600BF00BF00BF00BF00BF00BF00BF66
:100B100000BF00BF00BF00BF00BF00BF00BF00BFDD
:100B200000BF00BF00BF00BF00BF00BF00BF00BFCD
:100B300000BF00BF00BF00BF00BF00BF00BF00BFBD
:100B400000BF00BF00BF00BF00BF00BF00BF00BFAD
:100B500000BF00BF00BF00BF00BF00BF00BF00BF9D
:100B600000BF00BF00BF00BF00BF00BF00BF00BF8D
:100B700000BF00BF00BF00BF00BF00BF00BF00BF7D
:100B800000BF00BF00BF00BF00BF00BF00BF00BF6D
:100B900000BF00BF00BF00BF00BF00BF00BF00BF5D
:100BA00000BF00BF00BF00BF00BF00BF00BF00BF4D
:100BB00000BF00BF00BF00BF00BF00BF00BF00BF3D
:100BC00000BF00BF00BF00BF00BF00BF00BF00BF2D
:100BD00000BF00BF00BF00BF00BF00BF00BF00BF1D
:100BE00000BF00BF00BF00BF00BF00BF00BF00BF0D
:100BF00000BF00BF00BF00BF00BF00BF00BF00BFFD
:100C000000BF00BF00BF00BFE3791068C3EBC303A0
:100C100000EB830750F82330B8885883004600BFA4
:100C200000BF00BF00BF00BF00BF00BF00BF00BFCC
:100C300000BF00BF00BF00BF00BF00BF00BF00BFBC
:100C400000BF00BF00BF00BF00BF00BF00BF00BFAC
:100C500000BF00BF00BF00BF00BF00BF00BF00BF9C
:100C600000BF00BF00BF00BF00BF00BF00BF00BF8C
:100C700000BF00BF00BF00BF00BF00BF00BF00BF7C
:100C800000BF00BF00BF00BF00BF00BF00BF00BF6C
:100C900000BF00BF00BF00BF00BF00BF00BF00BF5C
:100CA00000BF00BF00BF00BF00BF00BF00BF00BF4C
:100CB00000BF00BF00BF00BF00BF00BF00BF00BF3C
:100CC00000BF00BF00BF00BF00BF00BF00BF00BF2C
:100CD00000BF00BF00BF00BF00BF00BF00BF00BF1C
:100CE00000BF00BF00BF00BF00BF00BF00BF00BF0C
:100CF00000BF00BF00BF00BF00BF00BF00BF00BFFC
:100D000000BF00BF00BF00BF00BF00BF00BF00BFEB
:100D100000BF00BF00BF049B5B0804939DF8053033
:100D20000133DBB2172B8DF8053000F22387E3790E
:100D30001068C3EBC30300EB830750F82330B88877
:100D400018830398049B18427FF4DAAE004600BF74
:100D500000BF00BF00BF00BF00BF00BF00BF00BF9B
:100D600000BF00BF00BF00BF00BF00BF00BF00BF8B
:100D700000BF00BF00BF00BF00BF00BF00BF00BF7B
:100D800000BF00BF00BF00BF00BF00BF00BF00BF6B
:100D900000BF00BF00BF00BF00BF00BF00BFE379BE
:100DA0001068C3EBC30300EB830750F82330B88807
:100DB0005883004600BF00BF00BF00BF00BF00BF98
:100DC00000BF00BF00BF00BF00BF00BF00BF00BF2B
:100DD00000BF00BF00BF00BF00BF00BF00BF00BF1B
:100DE00000BF00BF00BF00BF00BF00BF00BF00BF0B
:100DF00000BF00BF00BF00BF00BF00BF00BF00BFFB
:100E000000BF00BF00BF00BF00BF00BF00BF00BFEA
:100E100000BF00BF00BF00BF00BF00BF00BF00BFDA
:100E200000BF00BF00BF00BF00BF00BF00BF00BFCA
:100E300000BF00BF00BF00BF00BF00BF00BF00BFBA
:100E400000BF00BF00BF00BF00BF00BF00BF00BFAA
:100E500000BF00BF00BF00BF00BF00BF00BF00BF9A
:100E600000BF00BF00BF00BF00BF00BF00BF00BF8A
:100E700000BF00BF00BF00BF00BF00BF00BF00BF7A
:100E800000BF00BF00BF00BF00BF00BF00BF00BF6A
:100E900000BF00BF00BF00BF00BF00BF00BF00BF5A
:100EA00000BF00BF00BF00BF00BF00BF00BF00BF4A
:100EB00000BF00BF00BF00BF00BF00BF00BF00BF3A
:100EC00000BF00BF00BF00BF00BF00BF00BF00BF2A
:100ED00000BF00BF00BF00BF00BF00BF00BF00BF1A
:100EE00000BF00BF00BF00BF00BF00BF00BF00BF0A
:100EF00000BF00BF00BF00BF00BF00BF00BF00BFFA
:100F000000BF00BF00BF00BF00BF00BF00BF00BFE9
:100F100000BF00BF00BF00BF00BF00BF00BF00BFD9
:100F200000BF00BF00BF00BF00BF00BF00BF00BFC9
:100F300000BF00BF00BF00BF00BF00BF00BF00BFB9
:100F400000BF00BF00BF00BF00BF00BF00BF00BFA9
:100F500000BF00BF00BF00BF00BF00BFDBE6002B2B
:100F600000F033814FF400054FF0000C124A0846A0
:100F70000495BDF80A300331033B9BB2ADF80A304B
:100F800011F8033CDBB28DF8063011F8023CDBB2FD
:100F90008DF807308378DBB28DF808309DF8066055
:100FA0009DF807309DF808001B0243EA06430343FF
:100FB00003938DF805C07FE020010020004600BFAC
:100FC00000BF00BF00BF00BF00BF00BF00BF00BF29
:100FD00000BF00BF00BF00BF00BF00BF00BF00BF19
:100FE00000BF00BF00BF00BF00BF00BF00BF00BF09
:100FF00000BF00BF00BF00BF00BF00BF00BF00BFF9
:1010000000BF00BF00BF00BF00BF00BF00BF00BFE8
:1010100000BF00BF00BF00BF00BF00BF00BF00BFD8
:1010200000BF00BF00BF00BF00BF00BF00BF00BFC8
:1010300000BF00BF00BF00BF00BF00BF00BF00BFB8
:1010400000BF00BF00BF00BF00BF00BF00BF00BFA8
:1010500000BF00BF00BFE3791068C3EBC30300EB20
:10106000830650F82330B0885883004600BF00BF85
:1010700000BF00BF00BF00BF00BF00BF00BF00BF78
:1010800000BF00BF00BF00BF00BF00BF00BF00BF68
:1010900000BF00BF00BF00BF00BF00BF00BF00BF58
:1010A000049B5B0804939DF805300133DBB2172BDA
:1010B0008DF8053000F28380E3791068C3EBC30339
:1010C00000EB830650F82330B08818830398049B04
:1010D00018427FF473AF004600BF00BF00BF00BFDF
:1010E00000BF00BF00BF00BF00BF00BF00BF00BF08
:1010F00000BF00BF00BF00BF00BF00BF00BFE3795B
:101100001068C3EBC30300EB830650F82330B088AC
:101110005883004600BF00BF00BF00BF00BF00BF34
:1011200000BF00BF00BF00BF00BF00BF00BF00BFC7
:1011300000BF00BF00BF00BF00BF00BF00BF00BFB7
:1011400000BF00BF00BF00BF00BF00BF00BF00BFA7
:1011500000BF00BF00BF00BF00BF00BF00BF00BF97
:1011600000BF00BF00BF00BF00BF00BF00BF00BF87
:1011700000BF00BF00BF00BF00BF00BF00BF00BF77
:1011800000BF00BF00BF00BF00BF00BF00BF00BF67
:1011900000BF00BF00BF00BF00BF00BF00BF00BF57
:1011A00000BF00BF00BF00BF00BF00BF00BF00BF47
:1011B00000BF00BF00BF00BF00BF00BF70E7BDF8A9
:1011C0000A309BB2002B7FF4D2AE62B600F06EFE06
:1011D000206107B0F0BD002BF7D04FF400054FF0B1
:1011E000000C544B1868544B0495BDF80A20033189
:1011F000033A92B2ADF80A2011F8032CD2B28DF85E
:10120000062011F8022CD2B28DF8072011F8012C1B
:10121000D2B28DF808209DF806609DF807201202D2
:1012200042EA06429DF80860324303928DF805C0F9
:10123000E2795F68C2EBC20200EB8206B68850F822
:10124000222005971683039E049A164225D05A68D9
:10125000059E921B4F2AFAD9E279C2EBC20200EB3B
:101260008206B68850F8222056835A6805925A683A
:10127000059E921B072AFAD9049A520804929DF8F7
:1012800005200132D2B2172A8DF80520D0D9BDF839
:101290000A2092B2002AA7D197E75A68059E921BAE
:1012A000182AFAD9E279C2EBC20200EB8206B688AC
:1012B00050F8222056835A6805925A68059E921B60
:1012C000452AFAD9D8E77047002B3FF47EAF4FF09C
:1012D00000450026174A0495BDF80A300431043B46
:1012E0009BB2ADF80A3011F8043CDBB28DF8073040
:1012F00011F8033CDBB28DF8063011F8023CDBB28A
:101300008DF8083011F8013CDBB28DF809309DF8FA
:1013100007009DF806301B0443EA00639DF80800AF
:101320009DF809703B4343EA002303938DF8056061
:101330007FE000BF20010020001000E0004600BF59
:1013400000BF00BF00BF00BF00BF00BF00BF00BFA5
:1013500000BF00BF00BF00BF00BF00BF00BF00BF95
:1013600000BF00BF00BF00BF00BF00BF00BF00BF85
:1013700000BF00BF00BF00BF00BF00BF00BF00BF75
:1013800000BF00BF00BF00BF00BF00BF00BF00BF65
:1013900000BF00BF00BF00BF00BF00BF00BF00BF55
:1013A00000BF00BF00BF00BF00BFE3791068C3EB00
:1013B000C30300EB830750F82330B88858830046F6
:1013C00000BF00BF00BF00BF00BF00BF00BF00BF25
:1013D00000BF00BF00BF00BF00BF00BF00BF00BF15
:1013E00000BF00BF00BF00BF00BF00BF00BF00BF05
:1013F00000BF00BF00BF00BF00BF00BF00BF00BFF5
:1014000000BF00BF00BF00BF00BF00BF00BF00BFE4
:1014100000BF00BF00BF00BF00BF00BF049B5B0850
:1014200004939DF805300133DBB21F2B8DF8053096
:101430007ED8E3791068C3EBC30300EB830750F851
:101440002330B88818830398049B18427FF476AF42
:10145000004600BF00BF00BF00BF00BF00BF00BF0D
:1014600000BF00BF00BF00BF00BF00BF00BF00BF84
:1014700000BF00BF00BF00BFE3791068C3EBC30328
:1014800000EB830750F82330B8885883004600BF2C
:1014900000BF00BF00BF00BF00BF00BF00BF00BF54
:1014A00000BF00BF00BF00BF00BF00BF00BF00BF44
:1014B00000BF00BF00BF00BF00BF00BF00BF00BF34
:1014C00000BF00BF00BF00BF00BF00BF00BF00BF24
:1014D00000BF00BF00BF00BF00BF00BF00BF00BF14
:1014E00000BF00BF00BF00BF00BF00BF00BF00BF04
:1014F00000BF00BF00BF00BF00BF00BF00BF00BFF4
:1015000000BF00BF00BF00BF00BF00BF00BF00BFE3
:1015100000BF00BF00BF00BF00BF00BF00BF00BFD3
:1015200000BF00BF00BF00BF00BF00BF00BF75E726
:10153000BDF80A309BB2002B7FF4CDAE45E6032DFB
:1015400000F02881002B3FF440AE4FF40005002648
:10155000164A0495BDF80A30E079033B9BB2ADF81A
:101560000A300B781768DBB28DF807304B78C0EB88
:10157000C000DBB28DF808308B780331DBB28DF818
:1015800006309DF807C09DF808301B0243EA0C4363
:101590009DF806C043EA0C0307EB800C039357F851
:1015A00020308DF80560BCF804007AE020010020AE
:1015B000049B5B080493004600BF00BF00BF00BF50
:1015C00000BF00BF00BF00BF00BF00BF00BF00BF23
:1015D00000BF00BF00BF00BF00BF00BF00BF00BF13
:1015E00000BF00BF00BF00BF00BF00BF00BF00BF03
:1015F00000BF00BF00BF00BF00BF00BF00BF00BFF3
:1016000000BF00BF00BF00BF00BF00BF00BF00BFE2
:1016100000BF00BF00BF00BF00BF00BF00BF00BFD2
:1016200000BF00BF00BF00BF00BF00BF00BF00BFC2
:1016300000BF00BF00BF00BF00BF00BFE079176858
:101640009DF80530C0EBC00007EB800C013357F864
:101650002000BCF80470DBB28DF80530078300462B
:1016600000BF00BF00BF00BF00BF00BF00BF00BF82
:1016700000BF00BF00BF00BF00BF00BF00BF00BF72
:1016800000BF00BF00BF00BF9DF80530182B7AD007
:10169000E3791068C3EBC30300EB830750F82330F2
:1016A000B88858830398049B184281D1004600BF34
:1016B00000BF00BF00BF00BF00BF00BF00BF00BF32
:1016C00000BF00BF00BF00BF00BF00BF00BFE37985
:1016D0001068C3EBC30300EB830750F82330B888CE
:1016E00018839DF805300133DBB28DF80530049B7B
:1016F0005B080493004600BF00BF00BF00BF00BFEF
:1017000000BF00BF00BF00BF00BF00BF00BF00BFE1
:1017100000BF00BF00BF00BF00BF00BF00BF00BFD1
:1017200000BF00BF00BF00BF00BF00BF00BF00BFC1
:1017300000BF00BF00BF00BF00BF00BF00BF00BFB1
:1017400000BF00BF00BF00BF00BF00BF00BF00BFA1
:1017500000BF00BF00BF00BF00BF00BF00BF00BF91
:1017600000BF00BF00BF00BF00BF00BF00BF00BF81
:1017700000BF00BF00BF00BF00BF00BF00BF9DF89B
:101780000530182B84D1BDF80A309BB2002B7FF4B2
:10179000E0AE1AE5002B3FF418AD4FF4000500262B
:1017A000124A0495BDF80A300331033B9BB2ADF8F1
:1017B0000A3011F8033CDBB28DF8073011F8023C17
:1017C000DBB28DF8063011F8013CDBB28DF8083041
:1017D0009DF807009DF806301B0243EA00439DF880
:1017E0000800034303938DF80560E0E0200100202A
:1017F000004600BF00BF00BF00BF00BF00BF00BF6A
:1018000000BF00BF00BF00BF00BF00BF00BF00BFE0
:1018100000BF00BF00BF00BF00BF00BF00BF00BFD0
:1018200000BF00BF00BF00BF00BF00BF00BF00BFC0
:1018300000BF00BF00BF00BF00BF00BF00BF00BFB0
:1018400000BF00BF00BF00BF00BF00BF00BF00BFA0
:1018500000BF00BF00BF00BF00BF00BF00BF00BF90
:1018600000BF00BF00BF00BF00BF00BF00BF00BF80
:1018700000BF00BF00BF00BF00BF00BF00BF00BF70
:1018800000BF00BF00BF00BF00BF00BF00BF00BF60
:1018900000BF00BF00BF00BF00BF00BF00BF00BF50
:1018A00000BF00BF00BF00BF00BF00BF00BF00BF40
:1018B00000BF00BF00BF00BF00BF00BF00BF00BF30
:1018C00000BF00BF00BF00BF00BF00BF00BF00BF20
:1018D00000BF00BF00BF00BF00BF00BF00BF00BF10
:1018E00000BF00BF00BF00BF00BF00BF00BF00BF00
:1018F00000BF00BF00BF00BF00BF00BF00BF00BFF0
:1019000000BF00BF00BF00BF00BF00BF00BF00BFDF
:1019100000BFE3791068C3EBC30300EB830750F803
:101920002330B8885883004600BF00BF00BF00BF07
:1019300000BF00BF00BF00BF00BF00BF00BF00BFAF
:1019400000BF00BF00BF00BF00BF00BF00BF00BF9F
:1019500000BF00BF00BF00BF00BF00BF00BF00BF8F
:1019600000BF00BF00BF00BF00BF00BF00BF00BF7F
:1019700000BF00BF00BF00BF00BF00BF00BF00BF6F
:1019800000BF00BF00BF00BF00BF00BF00BF00BF5F
:1019900000BF00BF00BF049B5B0804939DF80530A7
:1019A0000133DBB2172B8DF8053000F2EB80E379C1
:1019B0001068C3EBC30300EB830750F82330B888EB
:1019C00018830398049B18427FF412AF004600BFAF
:1019D00000BF00BF00BF00BF00BF00BF00BF00BF0F
:1019E00000BF00BF00BF00BF00BF00BF00BF00BFFF
:1019F00000BF00BF00BF00BF00BF00BF00BF00BFEF
:101A000000BF00BF00BF00BF00BF00BF00BF00BFDE
:101A100000BF00BF00BF00BF00BF00BF00BF00BFCE
:101A200000BF00BF00BF00BF00BF00BF00BF00BFBE
:101A300000BF00BF00BF00BF00BF00BF00BF00BFAE
:101A400000BF00BF00BF00BF00BF00BF00BFE37901
:101A50001068C3EBC30300EB830750F82330B8884A
:101A60005883004600BF00BF00BF00BF00BF00BFDB
:101A700000BF00BF00BF00BF00BF00BF00BF00BF6E
:101A800000BF00BF00BF00BF00BF00BF00BF00BF5E
:101A900000BF00BF00BF00BF00BF00BF00BF00BF4E
:101AA00000BF00BF00BF00BF00BF00BF00BF00BF3E
:101AB00000BF00BF00BF00BF00BF00BF00BF00BF2E
:101AC00000BF00BF00BF00BF00BF00BF00BF00BF1E
:101AD00000BF00BF00BF00BF00BF00BF00BF00BF0E
:101AE00000BF00BF00BF00BF00BF00BF00BF00BFFE
:101AF00000BF00BF00BF00BF00BF00BF00BF00BFEE
:101B000000BF00BF00BF00BF00BF00BF00BF00BFDD
:101B100000BF00BF00BF00BF00BF00BF00BF00BFCD
:101B200000BF00BF00BF00BF00BF00BF00BF00BFBD
:101B300000BF00BF00BF00BF00BF00BF00BF00BFAD
:101B400000BF00BF00BF00BF00BF00BF00BF00BF9D
:101B500000BF00BF00BF00BF00BF00BF00BF00BF8D
:101B600000BF00BF00BF00BF00BF00BF00BF00BF7D
:101B700000BF10E7BDF80A309BB2002B7EF496AF91
:101B8000FFF723BBBDF80A309BB2002B7FF409AEF0
:101B9000FFF71BBB4388F0B58B422DD9067AC2F301
:101BA0000743C2F30724D5B23EB173437443754370
:101BB000C3F30723C4F307242D0A90F806C0C768AF
:101BC000BCF1060F0CBF042603264E43ACF1020CF9
:101BD000B919BCF1060F1DD8DFE80CF0041C08048D
:101BE0000F040400BC554B708D7005E0FE2B28BF20
:101BF000FE23BB554D708C70F0BDBB554C708D7085
:101C0000037A120E13B9D2B2CA70F5E75A43C2F37F
:101C10000722F9E7BB554C70E6E742EA012242EAA7
:101C20000040704708B500F0F9F8014B186008BD96
:101C300020010020704710B504461021FEF72FFA4E
:101C4000204610BD70B50E46054601F0C1F83E2194
:101C500000F0E2FE0024A64207DD01F0B9F80368B7
:101C6000295D9B6898470134F5E701F0B1F8BDE8BC
:101C7000704000F0D8BE402307B58DF8051001A8CC
:101C800002218DF80430FFF7DDFF012003B05DF87D
:101C900004FB802307B502218DF8050001A88DF80B
:101CA0000430FFF7CFFF03B05DF804FB0022426071
:101CB000014A0260704700BF844F0A0808B501203E
:101CC000FFF7E7FFBDE808404FF4FA6000F0E6B820
:101CD00007B56AB941F0800180238DF8051001A88D
:101CE00002218DF80430FFF7ADFF03B05DF804FB6F
:101CF00041F0C001F0E7437A43F00402427243F03E
:101D00000C00FFF7C6BF38B514460D4601F060F869
:101D1000622100F081FE01F05BF8036829469B68B0
:101D2000984701F055F8036821469B68984701F0F1
:101D30004FF8BDE8384000F076BE70B50446164650
:101D40001D460A460421FFF7DEFF324620460321E6
:101D5000FFF7D9FF2A462046BDE870400221FFF771
:101D6000D2BF70B5154604461E4601F031F800F0AA
:101D700049FE012D88BF237A257384BF43F00803F1
:101D80002372002363732EB1012D02BF237A43F027
:101D9000040323724CF2503000F080F8207A40F0B7
:101DA0002000FFF776FF41F2941000F077F8207AD8
:101DB00040F02000FFF76DFF962000F06FF8207ACA
:101DC00040F02000FFF765FF207A40F02000FFF789
:101DD00060FF042320466372FFF78DFF2046FFF764
:101DE0006DFF02230620A372FFF753FF0022204657
:101DF0001146FFF788FF204600220121FFF783FFED
:101E00002046AA220821FFF77EFFFF232046BDE8D7
:101E100070401A461946FFF790BF000008B5024B04
:101E20001B681B68019308BDB001060808B5024B8A
:101E30001B685B68019308BDB001060808B5024B3A
:101E40001B689B68019308BDB001060808B5024BEA
:101E50001B68DB68019308BDB001060808B5024B9A
:101E60001B681B69019308BDB001060808B5024B49
:101E70001B685B69019308BDB001060808B5024BF9
:101E80001B681B6B019308BDB001060808B5024B27
:101E90001B685B68019308BD9C01060808B5024BEE
:101EA0001B68DB68019308BD9C01060808B5024B5E
:101EB0001B681B69019308BD9C01060808B5024B0D
:101EC0001B685B69019308BD9C01060808B5024BBD
:101ED0001B685B6C019308BDD001060808B5024B76
:101EE0001B689B6C019308BDD001060808B5024B26
:101EF0001B685B6A019308BDC401060808B5024B64
:101F00001B689B6A019308BDC401060808B5024B13
:101F10001B68DB6A019308BDC401060808B5024BC3
:101F20001B681B6B019308BDC401060808B5024B72
:101F30001B685B6B019308BDC401060808B5024B22
:101F40001B689B6B019308BDC401060808B5024BD2
:101F50001B681B6C019308BDC401060808B5024B41
:101F60001B681B6E019308BDC401060808B5024B2F
:101F70001B68DB6C019308BDAC01060808B5024B79
:101F80001B689B6D019308BDAC01060808B5024BA8
:101F90001B68DB6D019308BDAC01060808B5024B58
:101FA0001B681B6E019308BDAC01060808B5024B07
:101FB0001B685B6E019308BDAC01060808B5024BB7
:101FC0001B689B6E019308BDAC01060808B5024B67
:101FD0001B68DB6E019308BDAC01060808B5024B17
:101FE0001B681B6F019308BDAC01060808B5024BC6
:101FF0001B685B6F019308BDAC01060808B5034B75
:102000001B68D3F88030019308BD0000AC010608BE
:1020100008B5024B1B68DB69019308BDB4010608D3
:1020200008B5024B1B681B6A019308BDB401060882
:1020300008B5024B1B681B68019308BDD801060850
:1020400008B5024B1B685B68019308BDD801060800
:1020500008B5024B1B681B69019308BDD80106082F
:1020600008B5024B1B685B69019308BDD8010608DF
:1020700008B5024B1B689B69019308BDD80106088F
:1020800008B5024B1B68DB69019308BDD80106083F
:1020900008B5024B1B681B6A019308BDD8010608EE
:1020A00008B5024B1B689B6C019308BDC001060874
:1020B00008B5024B1B685B68019308BDA4010608C4
:1020C00008B5024B1B685B69019308BDA4010608B3
:1020D00008B5034B1B68D3F89030019308BD00008E
:1020E000A401060808B5034B1B68D3F89C30019384
:1020F00008BD0000A401060808B5024B1B685B6818
:10210000019308BDC801060808B5024B1B689B680F
:10211000019308BDC801060808B5024B1B68DB68BF
:10212000019308BDC801060808B5024B1B681B696E
:10213000019308BDC801060808B5024B1B685B691E
:10214000019308BDC801060808B5024B1B689B69CE
:10215000019308BDC801060808B5024B1B68DB697E
:10216000019308BDC801060808B5024B1B681B6A2D
:10217000019308BDC801060808B5024B1B681B6B1C
:10218000019308BDC801060808B5024B1B685B6BCC
:10219000019308BDC801060808B5024B1B681B6CFB
:1021A000019308BDC801060808B5024B1B685B6CAB
:1021B000019308BDC801060808B5024B1B681B68DF
:1021C000019308BDCC01060808B5024B1B68DB6B08
:1021D000019308BDCC01060808B5024B1B681B68BB
:1021E000019308BDA001060808B5024B1B685B6897
:1021F000019308BDA001060808B5024B1B68DB6B04
:10220000019308BDA001060808B5024B1B681B6CB2
:10221000019308BDA001060808B5024B1B685B6C62
:10222000019308BDA001060870B5002604460D46BE
:1022300040F8086FFFF74AFE28462570FFF7E8FED2
:102240002046666070BD000002220020044B1A6028
:10225000044B054AC3E900009A60FFF729BF00BF9D
:1022600030010020240100200000FFFFF8B50646E1
:102270000D4600248F18BD420CD0336830469B6851
:1022800015F8011B9847031E01DB1C44F3E7002CE3
:1022900008BF1C462046F8BD70B505460C460846EA
:1022A00049B102F0A9FD2B68024621462846BDE847
:1022B0007040DB68184770BD08B5FFF7EDFF08BD3B
:1022C00003689B68184738B50D210546FFF7F8FFEE
:1022D0000A2104462846FFF7F3FF204438BD0023B7
:1022E000012A98BF0A2230B58BB00C468DF82430F5
:1022F00009A92546B4FBF2F404FB1253DBB2092B07
:1023000094BF30333733DBB2AA4201F8013DF0D934
:10231000FFF7C2FF0BB030BD2DE9F74F0546194658
:10232000104692461F469DF8306002F0E9F940B130
:1023300051492846FFF7B0FF0446204603B0BDE8E8
:10234000F08F27F000444FF0FF32504621464B4BB0
:1023500002F0D6F948B94FF0FF3250462146474BBC
:1023600002F0B0F908B94649E3E74FF06042504641
:102370003946444B02F0BAF908B14349D9E74FF066
:10238000604250463946414B02F092F90028F4D1A0
:10239000002200235046394602F08AF9044630B143
:1023A0002D212846FFF78CFF044607F100474FF028
:1023B000000B00204FF000083549DFF8D8905FFA95
:1023C0008BF39E4206D942464B4602F029F80BF1A8
:1023D000010BF4E73B46524601F042FD8946804638
:1023E00002F0CCF9074601F077FE02460B46404664
:1023F000494601F033FD0A2280468946284639467F
:10240000FFF76DFF0444002E97D028462249FFF7BE
:1024100043FF4FF0000ADFF87CB00444002E8CD05C
:1024200052465B464046494601F0D0FE804689460A
:1024300002F07CF9071E1BDA2D212846FFF740FF2A
:10244000034679420A2228460193FFF748FF019B81
:10245000013E034438461C4401F04EFE02460B4642
:102460004046494601F0FAFCF6B280468946D5E777
:1024700039460023E6E700BF944F0A08FFFFEF7FCD
:10248000984F0A08FFFFEF419C4F0A08FFFFEFC17A
:102490000000E03F00002440594F0A0837B50546C8
:1024A0001446084601F03AFEE4B202460B462846BE
:1024B0000094FFF731FF03B030BD37B59DF8181019
:1024C00005460091FFF728FF04462846FFF7FBFE6C
:1024D000204403B030BD37B504460846154601F028
:1024E0001DFE009502460B462046FFF7E6FF03B0AF
:1024F00030BD0000014B024A1A60704734010020D1
:10250000A04F0A08024B1A68024B1A60704700BFBE
:1025100014000020380100200021FFF7D1BD000089
:102520000022014B9A6070473C010020014B18606B
:10253000704700BF1C00002008B5134B43B100F0EA
:1025400075F903681B699847002801DDAFF3008027
:102550000E4B43B100F0F2FB03681B69984700285B
:1025600001DDAFF300800A4B0BB1AFF30080094BE4
:1025700043B100F095F903681B699847002801DD15
:10258000AFF3008008BD00BF0000000000000000A5
:10259000000000000000000008B5FFF7CDFFFFF7C6
:1025A0008DFC014B186008BDC00400200548064A98
:1025B00008B5121A054902F0DBFB054B054A1A6003
:1025C00008BD00BF0040024004400240B0510A086C
:1025D000004002401E1C279A002307B51A466FF0E0
:1025E00077010093FFF77EFD03B05DF804FB000068
:1025F00007B543880A2B08D0502B0BD1094B1B6819
:102600004BB103B05DF804EB1847FFF7E5FF03B0EB
:102610005DF804FB00231A466FF077010093FFF783
:1026200061FDF4E750010020002110B51148FFF7CB
:10263000F3FD114B1A68114B9A420CBF0122002284
:102640000F4B1A7001D0FFF7B1FFFFF71FFC0446D4
:1026500002F0A4FB0B4B13B12046AFF30080002126
:102660000848FFF7B1FDBDE8104000210648FFF71C
:102670002FBD00BF2D250A08004002401E1C279ACE
:102680004C01002000000000F1250A087047F8B551
:102690000E46002400F10807051D17F8011D0A2247
:1026A0003046FFF71CFEAF42044401D12046F8BD7E
:1026B000002CF2D02E213046FFF702FE0444ECE756
:1026C00010B504461821FDF7EAFC204610BD0000B5
:1026D00010B50446044B1122002140F8043B02F0DF
:1026E00055FB204610BD00BFC84F0A080346074AE5
:1026F00010B543F8042B01F1100251F8044B91423C
:1027000043F8044BF9D10A781A7010BDC84F0A0873
:10271000024AC0E90021042202757047C84F0A0826
:1027200010B59DF8084044EA0324042344EA024417
:1027300044EA01644460037510BD000013B5044C05
:1027400004609DF810400094FFF7EAFF02B010BD4E
:10275000C84F0A08417470477047704708B5002198
:10276000007CFFF785FC40EAE07008BD08B5012158
:10277000007CFFF77DFC40EAE07008BD08B5007CF6
:10278000FFF76EFC20EAE07008BD08B5007CFFF79B
:102790005FFC20EAE07008BD38B50446007C0D46B9
:1027A000FFF75EFC002801DC607C28B12946207C14
:1027B000FFF766FC20EAE07038BD007CFFF768BCDC
:1027C00010B504461421FDF76AFC204610BD704781
:1027D00010B54FF47A73044608460021C4E901138A
:1027E000044B20742360012311466374FFF720FC1F
:1027F000204610BDDC4F0A080022007CFFF720BCF9
:1028000010B504461422002102F0C0FA054B204600
:102810006360054BE36040F201132381812323822F
:1028200010BD00BF840100208502002030B50E4D90
:1028300087B001A8FFF7E4FF2978BFF35B8F11F0A1
:1028400001040ED12846FDF72CFC50B1214601AA07
:102850000648FFF7BDFF2846FDF728FC044802F0B4
:1028600081FA024807B030BD540100205C0100200D
:1028700059270A0810B504461422002102F086FAEE
:10288000054B20466360054BE36040F20113238152
:102890008123238210BD00BF06030020070400200F
:1028A00010B50E4C86B001A8FFF7E4FF2378BFF304
:1028B0005B8FDB070ED42046FDF7F3FB50B10121FF
:1028C00001AA0748FFF784FF2046FDF7EFFB054804
:1028D00002F048FA024806B010BD00BF58010020BF
:1028E00070010020CF270A0870474174704708B56F
:1028F000007CFFF72BFB20EAE07008BD08B5007CE8
:10290000FFF7FCFA20EAE07008BD08B5007CFFF78D
:1029100005FB40EAE07008BD08B5007CFFF7F6FA59
:1029200040EAE07008BD007CFFF700BB70B5467C54
:1029300004460D462EB12946207CBDE87040FFF7C5
:10294000D5BA007CFFF702FB0028F4DC304670BDEE
:1029500010B504461421FDF7A2FB204610BD00006F
:1029600010B54FF47A730446084611460022C4E9B4
:102970000123044B2074236001236374FFF7EEFAF4
:10298000204610BD0C500A087047F8B5064615469B
:102990000C468F18BC4206D0336830469B6814F84A
:1029A000011B9847F6E72846F8BD0022007CFFF798
:1029B000F5BA0021007CFFF7F9BA0021007CFFF78F
:1029C000FDBA0021007CFFF701BB0021007CFFF76E
:1029D00005BB10B504461421FDF761FB204610BD70
:1029E00010B54FF47A73044608460021C4E9011378
:1029F000034B114623602074FFF700FB204610BDF7
:102A00003C500A080023007C1A461946FFF7AEBA6C
:102A10000022007CFFF7B2BAC9B2FFF7F9BF00226B
:102A2000007CFFF7B3BA0121FFF7F9BF002240682D
:102A30001146FFF779BBF0B5154689B011220E4655
:102A40000446002103A802F0A1F9284602F0D4F9B7
:102A5000002781B273682846009703AAFFF720FB7E
:102A600030B139462046FFF753FE204609B0F0BD8D
:102A7000204603A9FFF73AFEF7E700224068114617
:102A8000FFF772BB002240681146FFF77DBB0022B2
:102A90004068FFF771BB0022406881F00101FFF739
:102AA0005BBB002340681A461946FFF74DBB002365
:102AB00040681A461946FFF73FBB0022406811469E
:102AC000FFF722BB002202214068FFF725BB00234D
:102AD00040681A46FFF710BB0422024B5A60024AB4
:102AE0001A6070478804002064500A080023406878
:102AF0001A46FFF701BB002202214068FFF70CBB1A
:102B0000002240681146FFF7FFBA002240681146D4
:102B1000FFF70ABB002340681A461946FFF70CBBB3
:102B2000002340681A461946FFF70EBB0021406893
:102B3000FFF732BB00214068FFF736BB0022406838
:102B400081F00101FFF708BB00224068FFF714BBCA
:102B5000002240681146FFF717BB0022406811466B
:102B6000FFF702BB70B515468EB0044608A8FFF704
:102B7000AFFD1122002103A802F008F90026284623
:102B800002F03AF90A4B009681B25B68284603AA24
:102B9000FFF786FA30B131462046FFF7B9FD2046EF
:102BA0000EB070BD204603A9FFF7A0FDF7E700BFF8
:102BB00088040020024B034A1A6000225A607047C2
:102BC00090040020A0500A08024B986808B1FFF753
:102BD00085B970479C040020172870B5044601D9B8
:102BE000002070BDA0F10D03022B0BD9012824D8C1
:102BF00000F0EEF80021007CFFF7F8F980F001000A
:102C0000C0B2EEE7124E3178BFF35B8F11F00105D1
:102C10000DD13046FDF745FA48B129460D48FFF77A
:102C200003FB3046FDF742FA0B4802F09BF8094BD4
:102C30001878FFF7F5F90028D2D1123C012C05D8FD
:102C400000F07CF8007CFFF779F9D7E70120C8E7AE
:102C5000980400209C040020C92B0A08172838B5C6
:102C600004460D460AD8FF2908D0FFF7B5FF28B162
:102C700029462046BDE83840FFF7E0B838BD38B5F2
:102C800004460D46FFF7E2F8FF2810D0062804D8C6
:102C90004D2323FA00F0C30709D42046FFF79CFF19
:102CA00028B129462046BDE83840FFF7D7B838BDDF
:102CB00010B50446FFF7CAF8031FDBB2012B08D991
:102CC0002046FFF789FF20B12046BDE81040FFF7FE
:102CD000CDB8002010BD10B5044609289CBF0A34A9
:102CE000A4B22046FFF778FF50B103212046FFF73A
:102CF0009DF8032804D12046BDE81040FFF7BEB878
:102D0000002010BD7047000070B5142504462A4607
:102D1000002102F03BF825808025074E28463146E9
:102D20002581258200F078F831466060284600F061
:102D300073F8E060204670BDD4500A0830B50E4DDF
:102D400087B02978BFF35B8F11F0010411D12846B9
:102D5000FDF7A7F968B101A8FFF7D6FF214601AA40
:102D60000648FFF7FDFD2846FDF7A0F9044801F0ED
:102D7000F9FF024807B030BDA8040020AC040020D1
:102D8000052D0A08002307B51A4619460093034883
:102D9000FFF7D4FC03B05DF804FB00BFC4040020BF
:102DA0007047000070B514232025084E04460360C8
:102DB000314685600561284600F02EF83146606096
:102DC000284600F029F8E060204670BDD4500A087B
:102DD00030B50E4D87B02978BFF35B8F11F0010439
:102DE00011D12846FDF75DF968B101A8FFF7DAFFB8
:102DF000214601AA0648FFF7F3FD2846FDF756F9DC
:102E0000044801F0AFFF024807B030BDDC040020E9
:102E1000E0040020A12D0A08FDF73FB92DE9F84391
:102E20001D4606460F46144600F0BAF8574B80463A
:102E300093F90030894601332AD022462B4620469A
:102E4000294601F05DFC18BB32463B463046394608
:102E500001F056FC002841D10022002330463946BB
:102E600001F01CFCC0B1002200232046294601F0DD
:102E700015FC00283AD12046294600F0C3FE38B19F
:102E8000204629460022002301F012FC002859D1D7
:102E900040464946BDE8F8834046494600F0B2FE48
:102EA00060B3002200234046494601F0F7FB0028AA
:102EB000EED03046394600F0A5FE0028E8D0204686
:102EC000294600F09FFE0028E2D0FFF795F9222363
:102ED0004FF000084FF000090360D9E7204629466B
:102EE0000022002301F0DAFB0028D1D04FF00008C7
:102EF000DFF89C9040464946BDE8F88330463946A5
:102F000000F080FE0028CCD02046294600F07AFE52
:102F10000028C6D042464B464046494601F0F0FBE9
:102F200030BBFFF769F92222034639461A60304662
:102F30000022002301F0BCFB4FF0000858B9DFF875
:102F40005490A5E7FFF758F921234FF00008DFF868
:102F5000489003609CE72046294600F05FFE224629
:102F60002B4601F09BFB0028E9D1DFF82C908FE77E
:102F7000FFF742F900220023212101601046194683
:102F800001F04EFA8046894682E700BF1800002013
:102F90000000F03F0000F07F0000F0FF00000000A4
:102FA0002DE9F04F9946904629F000451E461346FC
:102FB00055EA080293B035D06B4A21F000449442A0
:102FC00083468A460F46009025DC34D0954222DCA9
:102FD000654A95421DD0002F36DB00220292002B5D
:102FE0004CD1614B9D4200F09780604B9D4200F0B8
:102FF000A580B6F1804F00F0A3845D4B9E423DD189
:10300000002F3BDB5846514613B0BDE8F04F00F0AF
:103010002FBD002BDFD0009B04F1404404F5801449
:1030200023430BD10023514CCDE90034DDE90001ED
:1030300013B0BDE8F08F08B9A542C9DD4D4813B003
:10304000BDE8F04F00F0E4BD4B4A95427EDCA2F1B2
:10305000547295420EDD2A15A2F2FF32142A40F373
:103060007984C2F1340223FA02F101FA02F29A429F
:1030700000F0C58400220292002BB6D0584651467B
:1030800000F0BCFD5B46CDE9000133BB24B1374BFA
:1030900027F040429A4220D1002E07DADDE90023D2
:1030A0000020324901F0BCF9CDE90001002FBDDA62
:1030B000029B04F1404404F58014234340F06F84E4
:1030C000DDE900231046194600F0C8FE02460B4613
:1030D00001F0A6F9CDE90001A8E7029AFB0F013B38
:1030E0000A93134335D0254B9D424BDD03F1047306
:1030F0009D42234B40F3BC839C4240F34F83002E00
:1031000040F34F8316A3D3E900231046194601F07C
:103110005DF8CDE9000189E7009A04F1404303F529
:10312000801313433FF47EAF154B9C4240F36383FF
:10313000002EC0F23683CDE9008977E7002EC0F279
:10314000F58358465146CDE900016FE7022202920D
:1031500045E75A46584653465146B5E7AFF3008017
:103160009C7500883CE4377E0000F07F0000F03F53
:103170000000E03FD8500A08FFFF3F430000E04155
:10318000FFFFEF3FD44B3B40002B40F0CD83DDE908
:1031900000010022D14B01F019F86FF034050C4604
:1031A000CDE900012315A3F2FF335919CC4BC4F329
:1031B000130242F07F549A420B9144F4401407DD0D
:1031C000C84B9A4240F3F88301310B91A4F5801467
:1031D0000022002300200025C349CDE90823CDE9C2
:1031E0000601CDE91023DDE90001DDE906232146D2
:1031F000824600F033FEDDE90623A34606460F466D
:1032000050462146CDE90CAB00F02AFE02460B46A3
:103210000020B54901F004F98C46834663465A46BE
:1032200030463946CDE90EBC00F0D0FF82468B46D1
:10323000631043F0005303F5002359190D465A4615
:10324000514600230020CDE90012009304460246B7
:103250002B46CDE904ABDDE900AB5046594600F002
:10326000B5FF02460B463046394600F0F7FDDDE972
:10327000062306460F462046294600F0EFFD02468B
:103280000B46DDE90C0100F0E9FD52465B4600F01B
:103290009DFF02460B463046394600F0DFFDDDE972
:1032A0000E2300F093FFDDE90445CDE90601224637
:1032B0002B462046294600F089FF75A3D3E9002359
:1032C00004460D4600F082FF73A3D3E9002300F00B
:1032D000C7FD22462B4600F079FF71A3D3E90023F6
:1032E00000F0BEFD22462B4600F070FF6EA3D3E92E
:1032F000002300F0B5FD22462B4600F067FF6CA3CB
:10330000D3E9002300F0ACFD22462B4600F05EFF1F
:1033100069A3D3E9002300F0A3FD224606460F4629
:103320002B462046294600F051FF02460B46304608
:10333000394600F04BFF04460D46DDE904015246D4
:103340005B4600F08DFDDDE9062300F03FFF2246DD
:103350002B4600F085FD524606460F465B4650461A
:10336000594600F033FF02460B46CDE90C230022FC
:103370005E4B00F075FD32463B4600F071FD0024C7
:103380000D4622462B465046594600F01FFF0022AC
:1033900082468B4620462946544B00F05FFDDDE90E
:1033A0000C2300F05BFD02460B463046394600F028
:1033B00055FDDDE9042300F009FF224606460F46CD
:1033C000DDE906012B4600F001FF02460B463046C0
:1033D000394600F045FD06460F46002432463B467E
:1033E0005046594600F03CFD35A3D3E90023204662
:1033F0000D4600F0EBFE52465B4682468B46204669
:10340000294600F02BFD02460B463046394600F0B7
:1034100025FD2DA3D3E9002300F0D8FE02460B467C
:103420002046294614461D4629A3D3E9002300F06F
:10343000CDFE02460B462046294600F011FDDDE98F
:10344000102300F00DFD06460B980F4600F054FEC9
:1034500004460D4632463B465046594600F000FDB4
:10346000DDE9082300F0FCFC22462B4600F0F8FCC6
:10347000224600242B4620460D4600F0EFFCDDE9F5
:10348000082300F0EBFC52465B4631E0AFF30080CE
:10349000EF4E454A287ECA3F65DBC9934A86CD3F39
:1034A00001411DA96074D13F4D268F515555D53F1F
:1034B000FFAB6FDBB66DDB3F033333333333E33FB7
:1034C000000000E009C7EE3FFD033ADC09C7EE3F0C
:1034D000F5015B14E02F3EBE0000F07F000040438A
:1034E0008E98030079B60B000000F03F0000084002
:1034F00000F0B4FC02460B463046394600F0AEFC04
:10350000029B0A9A013B13434FF000020CBFD24BBF
:10351000D24BCDE90089CDE9022300230093DDE9F8
:1035200000ABCDE904015246404649465B4600F0F7
:1035300095FC22462B4600F049FE424606460F46C1
:10354000DDE904014B4600F041FE02460B463046E1
:10355000394600F085FC524606460F465B4620463B
:10356000294600F033FE04460D4630462B463946C8
:10357000224600F075FCBA4B8046994289468A463D
:1035800040F3148101F13F4303F5E003034340F0AE
:10359000F6819DA3D3E900233046394600F060FC54
:1035A00002460B46404649469046994622462B46DF
:1035B00000F054FC02460B464046494601F096F89E
:1035C000002840F0DC81CAF30A534FF48012002037
:1035D000A3F2FE3342FA03F35344A249C3F30A525F
:1035E000A2F2FF3241FA02FCC3F3130B23EA0C01EF
:1035F000C2F114024BF4801BBAF1000F0B464BFAD8
:1036000002FB294602462046B8BFCBF1000B00F072
:1036100025FC04460D463046394622462B4600F02E
:103620001FFC89464FEA0B5A4FF0000878A3D3E9F4
:1036300000234046494600F0C9FD22462B46044679
:103640000D464046494600F009FC02460B4630460E
:10365000394600F003FC70A3D3E9002300F0B6FD67
:103660006FA3D3E9002306460F464046494600F0C3
:10367000ADFD02460B463046394600F0F1FB804670
:10368000894642464B462046294600F0E9FB224641
:103690002B4606460F4600F0E1FB02460B4640462D
:1036A000494600F0DBFB3246804689463B463046C1
:1036B000394600F08BFD5CA3D3E9002304460D4698
:1036C00000F084FD5AA3D3E9002300F0C7FB224693
:1036D0002B4600F07BFD58A3D3E9002300F0C0FB8C
:1036E00022462B4600F072FD55A3D3E9002300F0DB
:1036F000B5FB22462B4600F069FD53A3D3E9002316
:1037000000F0AEFB22462B4600F060FD02460B4661
:103710003046394600F0A2FB04460D4622462B46B1
:103720003046394600F052FD02460B4620462946F7
:1037300014461D4600224FF0804300F08FFB0246E6
:103740000B462046294600F06BFE424604460D46D5
:103750004B463046394600F039FD42464B4600F0B4
:103760007FFB02460B462046294600F077FB324697
:103770003B4600F073FB02460B460020374900F041
:103780006DFB8A44BAF5801FC0F235815146DDE9F0
:10379000022300F01BFDCDE9000147E4002EFFF6F7
:1037A000B1AC00230024CDE900343FE4DFF8B8C019
:1037B00021F00043634540F3DA802C4B0B44034374
:1037C0000AD122462B4600F049FB32463B4600F028
:1037D00083FF00283FF4F7AE1DA3D3E90023DDE902
:1037E000020100F0F3FC1AA3D3E9002300F0EEFC81
:1037F000CDE900011AE4002ED3DA09F10043CDF837
:103800000080019312E400BFFE822B654715973CB0
:1038100000000000432EE63FEF39FAFE422EE63F5D
:10382000396CA80C615C20BED0A4BE726937663EBC
:10383000F16BD2C541BDBB3E2CDE25AF6A56113FB0
:1038400093BDBE166CC1663F3E5555555555C53F97
:1038500059F3F8C21F6EA5010000F0BF0000F03F51
:10386000FFFF8F40FFFF0F00FFCB904000346F3F02
:103870009C4293DB7A4B9C423FF741ACDDE900016F
:103880000022774B00F0EAFA67A3D3E9002304464D
:103890000D4600F09BFC66A3D3E9002382468B46CD
:1038A0002046294600F092FC0022CDE900016D4B34
:1038B0002046294600F08AFC02460B465EA1D1E96B
:1038C000000100F0CBFA22462B4600F07FFC0246B6
:1038D0000B460020644900F0C1FA224606460F4616
:1038E0002B462046294600F071FC02460B46304626
:1038F000394600F06BFC52A3D3E9002300F066FCCC
:1039000002460B46DDE9000100F0A8FA06460F4624
:1039100032463B465046594600F0A2FA0024524631
:103920005B460D462046E3E500253BE45A46002071
:1039300053464B4900F074FDCDE90001FFF776BB1B
:103940005A4658465346514600F040FCCDE9000126
:10395000FFF76CBB002B40D1C2F1140245FA02F113
:1039600001FA02F2AA4254D00293FFF73EBB3E4A4C
:10397000934255DCDDE900239246934654E632A398
:10398000D3E90023DDE9020100F020FC2EA3D3E9F6
:10399000002300F01BFCCDE90001FFF747BB029BB1
:1039A000012B7FF443ABDDE90045224605F10043DE
:1039B000CDE90023FFF73ABB00222C4B4FF48025C2
:1039C000CDE9062322A3D3E90023CDE9082322A3CE
:1039D000D3E90023CDE9102305E45846514600F011
:1039E0000DF95B46CDE90001002B7FF4B2ABCDF8B9
:1039F00008B0FFF74BBB5A4600F0AEF9C7E601F03E
:103A00000101C1F102020292002B3FF4EEAAFFF77E
:103A100035BB01F00101C1F102030293FFF7E5BAE2
:103A20001B15D2E5AFF30080000000604715F73F9B
:103A300044DF5DF80BAE543E555555555555D53FB1
:103A4000FE822B654715F73F9C7500883CE4377E66
:103A50000000004003B8E23F06D0CF43EBFD4C3EF0
:103A60000000F03F0000D03F0000E03F0000F83FC2
:103A70002DE9F843604E054636EA01020C4600F097
:103A80009E8000290B46844654DD091562D0C3F39D
:103A90001303C807A1F2FF3743F4801304D45B007B
:103AA00003EBDC734FEA4C0C00264FEADC7202EBAE
:103AB00043034FF0160E4FF4001234467F104FEAC6
:103AC0004C0CA118994202DC5B1A8C1816445B005E
:103AD000BEF1010E03EBDC734FEA52024FEA4C0CCD
:103AE000EFD1754620204FF000420AE043D04FEA64
:103AF000DC71013801EB43034FEA4C0C4FEA5202F0
:103B000042D0A34202EB0E01F0DD002901EB020ED0
:103B10000ADBA0461B1B614588BF03F1FF33444607
:103B2000ACEB010C1544E2E7BEF1000FF1DB04F150
:103B30000108EFE721F00042024336D000294CD1C2
:103B40004FEADC22134615394FEA4C5C002AF7D0C5
:103B5000D6024CD400205B00DD02044600F10100D7
:103B6000F9D51A4663460CFA00FCC0F12000C340A8
:103B7000091B13438BE76145B9D8002901EB020EFD
:103B8000D2DB98460023CAE753EA0C0311D1680838
:103B9000731003F17F5303F50013F20748BF40F0A1
:103BA000004003EB075905464C4628462146BDE830
:103BB000F883691C16BF681C01364008E8E7024616
:103BC0000B4600F003FB2A46234600F049F9054660
:103BD0000C4628462146BDE8F883024600F03EF92F
:103BE00002460B4600F01CFC05460C46DDE763462A
:103BF00020204FF0FF34BAE70000F07F21F00041B1
:103C0000704700BF41F0004000F58010C00F7047C2
:103C100000200149704700BF0000F87FF0B5C1F3F4
:103C20000A55A5F2FF3CBCF1130F02460B460C46A9
:103C3000864683B04FEAD17665DCBCF1000F30DBFD
:103C4000424941FA0CF103EA0100104361D003EA52
:103C5000510352EA030E4FEA51010DD024EA01014B
:103C60004FF48024BCF1130F0CBF4FF0004E4FF007
:103C7000000E44FA0CF40C433549234601EBC6060A
:103C8000D6E9006772463046394600F0E9F8CDE9DA
:103C90000001DDE9000132463B4600F0DFF803B0E9
:103CA000F0BD21F0004101431946F8D0C3F31303DE
:103CB00043EA000ECEF1000343EA0E03620C1B0B35
:103CC00003F40023520443EA02010B462049024652
:103CD00001EBC606D6E900673046394600F0C0F869
:103CE000CDE90001DDE9000132463B4600F0B6F8BF
:103CF000024604F0004421F0004141EA040310466A
:103D0000194603B0F0BDBCF1330F06DDBCF5806F82
:103D100018D01046194603B0F0BD4FF0FF31A5F2A0
:103D20001345E9400842F4D010EA51024FEA51032A
:103D3000A2D04FF0804E20EA03034EFA05F543EA85
:103D4000050E99E700F08CF8A9E700BFFFFF0F0010
:103D5000E0500A0800000000C1F30A5370B58C4619
:103D600004460D4616467BBB034621F0004C5CEA38
:103D7000030328D0324B002200F028FA314B0446CE
:103D80009E420D461ADB8C46C1F30A53363B40F285
:103D9000FE723344934220DC002B3EDC13F1350FDE
:103DA0002CDA4CF250339E4217DC05F0004343F00E
:103DB000D27141F4B731244841F01F011CA3D3E96B
:103DC000002300F003FA70BD40F2FF7E7345DED1A0
:103DD00002460B4600F044F870BD05F0004343F086
:103DE000FC4141F45F1141F4105113A3D3E90023C6
:103DF000164841F03C0100F0E9F970BD2CF0FF4C91
:103E000003F136012CF4E00C4CEA01550022204667
:103E100029460F4B00F0DAF970BD2CF0FF4C2CF462
:103E2000E00C20464CEA035170BD00BFAFF30080A8
:103E300059F3F8C21F6EA5019C7500883CE4377EDB
:103E400000005043B03CFFFF59F3F8C29C75008856
:103E50000000903C81F0004102E000BF83F000438D
:103E600030B54FEA41044FEA430594EA050F08BF15
:103E700090EA020F1FBF54EA000C55EA020C7FEAD9
:103E8000645C7FEA655C00F0E2804FEA5454D4EB56
:103E90005555B8BF6D420CDD2C4480EA020281EA20
:103EA000030382EA000083EA010180EA020281EA58
:103EB0000303362D88BF30BD11F0004F4FEA0131AA
:103EC0004FF4801C4CEA113102D0404261EB4101B9
:103ED00013F0004F4FEA03334CEA133302D052423F
:103EE00063EB430394EA050F00F0A780A4F10104FB
:103EF000D5F1200E0DDB02FA0EFC22FA05F2801835
:103F000041F1000103FA0EF2801843FA05F359411A
:103F10000EE0A5F120050EF1200E012A03FA0EFC99
:103F200028BF4CF0020C43FA05F3C01851EBE371C3
:103F300001F0004507D54FF0000EDCF1000C7EEBE0
:103F400000006EEB0101B1F5801F1BD3B1F5001F1E
:103F50000CD349085FEA30004FEA3C0C04F101043D
:103F60004FEA445212F5800F80F09A80BCF1004F66
:103F700008BF5FEA500C50F1000041EB045141EAE8
:103F8000050130BD5FEA4C0C404141EB0101013CB1
:103F900028BFB1F5801FE9D291F0000F04BF0146A0
:103FA0000020B1FA81F308BF2033A3F10B03B3F172
:103FB00020020CDA0C3208DD02F1140CC2F10C0202
:103FC00001FA0CF021FA02F10CE002F11402D8BF60
:103FD000C2F1200C01FA02F120FA0CFCDCBF41EA2C
:103FE0000C019040E41AA2BF01EB0451294330BDFB
:103FF0006FEA04041F3C1CDA0C340EDC04F11404D8
:10400000C4F1200220FA04F001FA02F340EA0300AE
:1040100021FA04F345EA030130BDC4F10C04C4F1F4
:10402000200220FA02F001FA04F340EA03002946D4
:1040300030BD21FA04F0294630BD94F0000F83F41E
:10404000801306BF81F480110134013D4EE77FEA01
:10405000645C18BF7FEA655C29D094EA050F08BF4D
:1040600090EA020F05D054EA000C04BF194610462E
:1040700030BD91EA030F1EBF0021002030BD5FEA72
:10408000545C05D14000494128BF41F0004130BD9A
:1040900014F580043CBF01F5801130BD01F00045EE
:1040A00045F0FE4141F470014FF0000030BD7FEA61
:1040B000645C1ABF194610467FEA655C1CBF0B465C
:1040C000024650EA013406BF52EA033591EA030F73
:1040D00041F4002130BD00BF90F0000F04BF00216B
:1040E000704730B54FF4806404F132044FF000059E
:1040F0004FF0000150E700BF90F0000F04BF002117
:10410000704730B54FF4806404F1320410F000457C
:1041100048BF40424FF000013EE700BF42004FEA77
:10412000E2014FEA31014FEA02701FBF12F07F43F4
:1041300093F07F4F81F06051704732F07F4208BFAB
:10414000704793F07F4F04BF41F40021704730B5B2
:104150004FF4607401F0004521F000411CE700BFFE
:1041600050EA010208BF704730B54FF000050AE081
:1041700050EA010208BF704730B511F0004502D582
:10418000404261EB41014FF4806404F132045FEA84
:10419000915C3FF4D8AE4FF003025FEADC0C18BF2D
:1041A00003325FEADC0C18BF033202EBDC02C2F11F
:1041B000200300FA03FC20FA02F001FA03FE40EAB1
:1041C0000E0021FA02F11444BDE600BF70B54FF0B5
:1041D000FF0C4CF4E06C1CEA11541DBF1CEA135593
:1041E00094EA0C0F95EA0C0F00F0DEF82C4481EAFB
:1041F000030621EA4C5123EA4C5350EA013518BF1B
:1042000052EA033541F4801143F4801338D0A0FB07
:1042100002CE4FF00005E1FB02E506F00042E0FBB4
:1042200003E54FF00006E1FB03569CF0000F18BFBA
:104230004EF0010EA4F1FF04B6F5007F64F5407462
:1042400004D25FEA4E0E6D4146EB060642EAC621F5
:1042500041EA55514FEAC52040EA5E504FEACE2E62
:10426000B4F1FD0C88BFBCF5E06F1ED8BEF1004F65
:1042700008BF5FEA500E50F1000041EB045170BDE1
:1042800006F0004646EA010140EA020081EA030125
:10429000B4EB5C04C2BFD4EB0C0541EA045170BD21
:1042A00041F480114FF0000E013C00F3AB8014F19B
:1042B000360FDEBF002001F0004170BDC4F10004E4
:1042C000203C35DA0C341BDC04F11404C4F1200565
:1042D00000FA05F320FA04F001FA05F240EA0200C0
:1042E00001F0004221F0004110EBD37021FA04F6F6
:1042F00042EB06015EEA430E08BF20EAD37070BDB0
:10430000C4F10C04C4F1200500FA04F320FA05F00E
:1043100001FA04F240EA020001F0004110EBD37010
:1043200041F100015EEA430E08BF20EAD37070BD80
:10433000C4F1200500FA05F24EEA020E20FA04F359
:1043400001FA05F243EA020321FA04F001F0004108
:1043500021FA04F220EA020000EBD3705EEA430E79
:1043600008BF20EAD37070BD94F0000F0FD101F0A8
:104370000046400041EB010111F4801F08BF013CE1
:10438000F7D041EA060195F0000F18BF704703F01F
:104390000046520043EB030313F4801F08BF013DA6
:1043A000F7D043EA0603704794EA0C0F0CEA135562
:1043B00018BF95EA0C0F0CD050EA410618BF52EA1C
:1043C0004306D1D181EA030101F000414FF0000022
:1043D00070BD50EA410606BF1046194652EA430630
:1043E00019D094EA0C0F02D150EA013613D195EAA4
:1043F0000C0F05D152EA03361CBF104619460AD1EC
:1044000081EA030101F0004141F0FE4141F47001F5
:104410004FF0000070BD41F0FE4141F4780170BDE5
:1044200070B54FF0FF0C4CF4E06C1CEA11541DBF4A
:104430001CEA135594EA0C0F95EA0C0F00F0A7F84C
:10444000A4EB050481EA030E52EA03354FEA013179
:1044500000F088804FEA03334FF0805545EA13138C
:1044600043EA12634FEA022245EA111545EA106554
:104470004FEA00260EF000419D4208BF964244F1EB
:10448000FD0404F5407402D25B084FEA3202B61A0A
:1044900065EB03055B084FEA32024FF480104FF4DE
:1044A000002CB6EB020E75EB030E22BFB61A754652
:1044B00040EA0C005B084FEA3202B6EB020E75EBE5
:1044C000030E22BFB61A754640EA5C005B084FEA4D
:1044D0003202B6EB020E75EB030E22BFB61A75461A
:1044E00040EA9C005B084FEA3202B6EB020E75EB25
:1044F000030E22BFB61A754640EADC0055EA060EE6
:1045000018D04FEA051545EA16754FEA06164FEA28
:10451000C30343EA52734FEAC2025FEA1C1CC0D1D4
:1045200011F4801F0BD141EA00014FF000004FF061
:10453000004CB6E711F4801F04BF01430020B4F122
:10454000FD0C88BFBCF5E06F3FF6AFAEB5EB030CDA
:1045500004BFB6EB020C5FEA500C50F1000041EBD7
:10456000045170BD0EF0004E4EEA113114EB5C04A4
:10457000C2BFD4EB0C0541EA045170BD41F4801177
:104580004FF0000E013C90E645EA060E8DE60CEA7F
:10459000135594EA0C0F08BF95EA0C0F3FF43BAF9C
:1045A00094EA0C0F0AD150EA01347FF434AF95EA53
:1045B0000C0F7FF425AF104619462CE795EA0C0F37
:1045C00006D152EA03353FF4FDAE1046194622E704
:1045D00050EA410618BF52EA43067FF4C5AE50EADE
:1045E00041047FF40DAF52EA43057FF4EBAE12E7CE
:1045F0004FF0FF3C06E000BF4FF0010C02E000BFAF
:104600004FF0010C4DF804CD4FEA410C7FEA6C5C91
:104610004FEA430C18BF7FEA6C5C1BD001B050EA34
:10462000410C0CBF52EA430C91EA030F02BF90EA1F
:10463000020F0020704710F1000F91EA030F58BFDE
:10464000994208BF90422CBFD8176FEAE37040F040
:10465000010070474FEA410C7FEA6C5C02D150EADE
:10466000013C07D14FEA430C7FEA6C5CD6D152EA99
:10467000033CD3D05DF8040B704700BF844610465E
:1046800062468C461946634600E000BF01B5FFF75D
:10469000B7FF002848BF10F1000F01BD4DF808ED2D
:1046A000FFF7F4FF0CBF012000205DF808FB00BFFE
:1046B0004DF808EDFFF7EAFF34BF012000205DF858
:1046C00008FB00BF4DF808EDFFF7E0FF94BF0120A5
:1046D00000205DF808FB00BF4DF808EDFFF7CEFFA6
:1046E00094BF012000205DF808FB00BF4DF808EDE5
:1046F000FFF7C4FF34BF012000205DF808FB00BFB6
:104700004FEA410C7FEA6C5C02D150EA013C0AD1CD
:104710004FEA430C7FEA6C5C02D152EA033C02D1BF
:104720004FF0000070474FF0010070474FEA410220
:1047300012F5001215D211D56FF47873B3EB6252F3
:1047400012D94FEAC12343F0004343EA505311F01A
:10475000004F23FA02F018BF404270474FF00000AC
:10476000704750EA013005D111F0004008BF6FF0EA
:10477000004070474FF00000704700BF4A0011D260
:1047800012F5001211D20DD56FF47873B3EB6252AB
:104790000ED44FEAC12343F0004343EA505323FAB7
:1047A00002F070474FF00000704750EA013002D12C
:1047B0004FF0FF3070474FF0000070474FEA410262
:1047C000B2F1E04324BFB3F5001CDCF1FE5C0DD96F
:1047D00001F0004C4FEAC0024CEA5070B2F1004FB9
:1047E00040EB830008BF20F00100704711F0804FBC
:1047F00021D113F13872BCBF01F00040704741F481
:1048000080114FEA5252C2F11802C2F1200C10FA84
:104810000CF320FA02F018BF40F001004FEAC12368
:104820004FEAD32303FA0CFC40EA0C0023FA02F30C
:104830004FEA4303CCE77FEA625307D150EA0133E2
:104840001EBF4FF0FE4040F44000704701F00040B2
:1048500040F0FE4040F40000704700BF80F0004090
:1048600002E000BF81F0004142001FBF5FEA410348
:1048700092EA030F7FEA226C7FEA236C6AD04FEA48
:104880001262D2EB1363C1BFD2184140484041408D
:10489000B8BF5B42192B88BF704710F0004F40F43F
:1048A000000020F07F4018BF404211F0004F41F45B
:1048B000000121F07F4118BF494292EA030F3FD027
:1048C000A2F1010241FA03FC10EB0C00C3F120033A
:1048D00001FA03F100F0004302D5494260EB4000C9
:1048E000B0F5000F13D3B0F1807F06D340084FEA34
:1048F000310102F10102FE2A51D2B1F1004F40EB29
:10490000C25008BF20F0010040EA03007047490090
:1049100040EB0000013A28BFB0F5000FEDD2B0FA2D
:1049200080FCACF1080CB2EB0C0200FA0CF0AABF50
:1049300000EBC25052421843BCBFD04018437047EE
:1049400092F0000F81F4000106BF80F400000132F4
:10495000013BB5E74FEA41037FEA226C18BF7FEACB
:10496000236C21D092EA030F04D092F0000F08BF0D
:104970000846704790EA010F1CBF0020704712F0F4
:104980007F4F04D1400028BF40F00040704712F133
:1049900000723CBF00F50000704700F0004343F098
:1049A000FE4040F4000070477FEA226216BF0846CE
:1049B0007FEA23630146420206BF5FEA412390EA91
:1049C000010F40F4800070474FF0000304E000BF87
:1049D00010F0004348BF40425FEA000C08BF704738
:1049E00043F0964301464FF000001CE050EA0102FC
:1049F00008BF70474FF000030AE000BF50EA010211
:104A000008BF704711F0004302D5404261EB4101FD
:104A10005FEA010C02BF84460146002043F0B64322
:104A200008BFA3F18053A3F50003BCFA8CF2083A47
:104A3000A3EBC25310DB01FA02FC634400FA02FC50
:104A4000C2F12002BCF1004F20FA02F243EB020057
:104A500008BF20F00100704702F1200201FA02FCB9
:104A6000C2F1200250EA4C0021FA02F243EB0200AC
:104A700008BF20EADC7070474FF0FF0C1CEAD052F0
:104A80001EBF1CEAD15392EA0C0F93EA0C0F6FD0B1
:104A90001A4480EA010C400218BF5FEA41211ED08F
:104AA0004FF0006343EA501043EA5111A0FB01317B
:104AB0000CF00040B1F5000F3EBF490041EAD37150
:104AC0005B0040EA010062F17F02FD2A1DD8B3F1CC
:104AD000004F40EBC25008BF20F00100704790F03B
:104AE000000F0CF0004C08BF49024CEA502040EA8D
:104AF00051207F3AC2BFD2F1FF0340EAC250704753
:104B000040F400004FF00003013A5DDC12F1190F90
:104B1000DCBF00F000407047C2F10002410021FA02
:104B200002F1C2F1200200FA02FC5FEA310040F11A
:104B3000000053EA4C0308BF20EADC70704792F093
:104B4000000F00F0004C02BF400010F4000F013ACB
:104B5000F9D040EA0C0093F0000F01F0004C02BFC6
:104B6000490011F4000F013BF9D041EA0C018FE735
:104B70000CEAD15392EA0C0F18BF93EA0C0F0AD03B
:104B800030F0004C18BF31F0004CD8D180EA010061
:104B900000F00040704790F0000F17BF90F0004FFA
:104BA000084691F0000F91F0004F14D092EA0C0FDC
:104BB00001D142020FD193EA0C0F03D14B0218BF6F
:104BC000084608D180EA010000F0004040F0FE40B5
:104BD00040F40000704740F0FE4040F44000704751
:104BE0004FF0FF0C1CEAD0521EBF1CEAD15392EAD0
:104BF0000C0F93EA0C0F69D0A2EB030280EA010CC0
:104C000049024FEA402037D04FF0805343EA111158
:104C100043EA10130CF000408B4238BF5B0042F1B6
:104C20007D024FF4000C8B4224BF5B1A40EA0C005B
:104C3000B3EB510F24BFA3EB510340EA5C00B3EB8D
:104C4000910F24BFA3EB910340EA9C00B3EBD10F7B
:104C500024BFA3EBD10340EADC001B0118BF5FEACD
:104C60001C1CE0D1FD2A3FF650AF8B4240EBC250F6
:104C700008BF20F0010070470CF0004C4CEA5020B7
:104C80007F32C2BFD2F1FF0340EAC250704740F406
:104C900000004FF00003013A37E792F0000F00F0F8
:104CA000004C02BF400010F4000F013AF9D040EA76
:104CB0000C0093F0000F01F0004C02BF490011F40A
:104CC000000F013BF9D041EA0C0195E70CEAD15302
:104CD00092EA0C0F08D142027FF47DAF93EA0C0FE9
:104CE0007FF470AF084676E793EA0C0F04D14B02CD
:104CF0003FF44CAF08466EE730F0004C18BF31F07F
:104D0000004CCAD130F000427FF45CAF31F0004378
:104D10007FF43CAF5FE700BF4FEA4002B2F1FE4FC5
:104D20000FD34FF09E03B3EB12620DD94FEA00236D
:104D300043F0004310F0004F23FA02F018BF404246
:104D400070474FF00000704712F1610F01D142022D
:104D500005D110F0004008BF6FF0004070474FF0E1
:104D600000007047002301461A46184600F04CB870
:104D70000A44914200F1FF3300D1704710B511F899
:104D8000014B914203F8014FF9D110BD0346024493
:104D9000934200D1704703F8011BF9E738B5104B77
:104DA00004461D68AB6BB3B91820FDF715FA02462F
:104DB000A86320B942210B4B0B48FDF725FA0B499C
:104DC0000B4BC0E900130B4B002183600B23838145
:104DD0000120C2E904010022AB6B1C615A6138BD9D
:104DE0001C000020F0500A0807510A080E33CDAB12
:104DF00034126DE6ECDE0500034613F8012B002AA1
:104E0000FBD1181A013870472DE9F843DFF8AC8060
:104E10000646D8F800001F460D46914600F058F8A7
:104E2000274B1C6834B9274C1C60274B13B11B68F7
:104E3000C4F8883063681F2B07DDD8F8000000F045
:104E400049F84FF0FF30BDE8F8835EB3D4F888002E
:104E500088B91E4B23B9D8F8000000F03AF8F0E703
:104E60004FF48470FDF7B8F90028F4D00023C0E9AE
:104E70004033C4F8880001226368022E40F8239072
:104E800002FA03F200EB8301D0F8003143EA020397
:104E9000C0F80031C1F8807002BFD0F8043113436C
:104EA000C0F804316368D8F800005A1C023362600D
:104EB00044F8235000F00EF80020C4E780000020E2
:104EC00080050020F404002000000000D9210A0819
:104ED000704770477047000021000A0861000A0807
:104EE00089000A088D000A08000000005741524D51
:104EF000494E472055502E2E2E0061766750504D5A
:104F0000006D617850504D004D41582050504D3A41
:104F1000004156472050504D3A004D4158204241E3
:104F2000433A00415647204241433A00446576697E
:104F30006365204D6F64653A200052454144592E07
:104F40002E2E00427574746F6E207072657373003C
:104F500052454144494E472E2E2E0050504D3A2086
:104F6000004241433A2000002C01000018000000DC
:104F7000F40100002C0100005000000000000000BF
:104F800000000000351C0A08371C0A08771C0A08B4
:104F90006D220A086E616E00696E66006F766600AB
:104FA0006170700025592D256D2D25645425483AD2
:104FB000254D3A2553257A0061736374696D650048
:104FC00000000000000000008F260A088D260A0855
:104FD000C1260A0800000000000000005B270A0844
:104FE000C1270A0899270A086D220A088B270A0890
:104FF0005D270A086D270A08BB270A087D270A08CB
:1050000055270A080000000000000000E9280A08EF
:1050100051290A082D290A086D220A08FD280A08C4
:1050200019290A080B290A0827290A08EB280A085F
:10503000EF280A08000000000000000089290A0883
:10504000D3290A08AB290A088B290A08B3290A08B8
:10505000BB290A08C3290A08CB290A080000000056
:1050600000000000CF2A0A08C52A0A08BB2A0A083D
:105070002D2A0A08AF2A0A08A32A0A082D2B0A0893
:10508000352B0A08972A0A088F2A0A08852A0A084F
:105090007B2A0A08372A0A080000000000000000E6
:1050A000ED2A0A08F72A0A08012B0A080B2B0A081E
:1050B000152B0A08212B0A082D2B0A08352B0A0864
:1050C0003D2B0A08492B0A08512B0A085B2B0A08BA
:1050D000652B0A080000000000000000000000002E
:1050E000000000000000304300000000000030C35A
:1050F0005245454E54206D616C6C6F63207375632F
:10510000636565646564002F6D6E742F776F726BD5
:1051100073706163652F776F726B73706163652F56
:105120004743432D31302D706970656C696E652F72
:105130006A656E6B696E732D4743432D31302D7058
:105140006970656C696E652D34385F32303230318C
:105150003132345F313630363138303634312F73B6
:1051600072632F6E65776C69622F6E65776C69620A
:105170002F6C6962632F7374646C69622F72616E45
:10518000642E63002D090A08251C0A0849220A0812
:10519000F5240A0805250A0821250A08D92A0A083B
:1051A000B52B0A08852D0A08000000000000000049
:0451B00000000000FB
:1051B400050000000A0000000A00000001000000D1
:1051C40064000000B84F0A08FF000000200000201F
:1051D40000000000000000000000000000000000CB
:1051E40000000000000000000000000000000000BB
:1051F40000000000000000000000000000000000AB
:10520400000000000000000000000000000000009A
:10521400000000000000000000000000000000008A
:10522400000000000000000000000000000000007A
:0452340084050020CD
:10523800FFFFFFFF00000102030405060708090A33
:105248000B0C0D0E0F101112131415161718191A2E
:085258001B1C1D1E1F20280075
:045260007856341236
:04000005080A0020C5
:00000001FF
