:02000004080AE8
:1000000000000A08603A0A08000006000600050120
:080010000402E50C00000000F1
:0400180048370A0853
:1000200009480A4908B5884205D0094A824202D0E7
:10003000121A03F0D5FA0748074A0021121A03F0F2
:10004000DDFA064808BD00BF00000020C4390A08D8
:10005000740000207400002059050020590500207C
:1000600070B502F0ABF80025054E064CA41BA408A1
:10007000AC4200D170BD56F8043B98470135F7E714
:1000800094390A08B8390A0800F034B808B500F005
:10009000B3F8BDE8084002F049B801F07FBE01F0B6
:1000A00085BE0078B0FA80F04009704701230370E4
:1000B0007047000010B40B4B0B4C1B6821680B4AB7
:1000C0008B4207D9136801F5FA71B3FA83F35B0920
:1000D00013602160126802B102460021044810BC7E
:1000E00001F042BB98000020CC000020C40000209A
:1000F000DC00002010B502F063F94FF4165102F055
:1001000045F90321104C084602F072FB0F4800F03D
:1001100049FA204600230222102101F00CFC0023A2
:1001200020461A46FF2101F0F2FB0022084B1A700C
:1001300001F0AEFC074B00F59C4020301860BDE894
:100140001040642001F0B2BFB4000020DC000020A9
:10015000A0000020D80000200A46014610B1104639
:10016000FFF7A8BF014801F0FFBA00BFDC00002084
:1001700038B51C4D04462B786BB901282CD11A4B8D
:100180001B684BBB01F084FC184B194A18601368BC
:100190002C7032331360174B1A68154B1B689A4248
:1001A0000FD901F075FC114B1B68C01AB0F5FA7F2E
:1001B00009D9012C03D102200B4B1C6038BD5CB95E
:1001C0002C700020FAE7084B1A682AB9012C03D1D9
:1001D00003202A701C60F1E7034B1C60631E584229
:1001E0005841EBE7F0000020AC0000209000002018
:1001F0009C00002098000020F8B501F049FCA44EB6
:10020000A44D3060032002F01DFBFFF7B1FF287002
:1002100002F0D6F804460A22297801F03AFE204678
:1002200001F02BFE02F0CCF89B4901F01FFE02F01A
:10023000C7F80746994C0A22217801F02AFE384671
:1002400001F01BFE2378042B00F21281DFE813F08B
:10025000050039004C001001CA00914A3368126849
:100260009049934284BF012222700A688E4D9342C6
:1002700007D92B6802F57A72B3FA83F35B092B6016
:100280000A6002F09DF82C680646002C14DA2D2135
:1002900001F0F0FD61420A22304601F0FAFD2968C2
:1002A00061B10021814B1A68814801F05DFABDE817
:1002B000F8407F4800F0ACB92146ECE77D4B1A6866
:1002C000F2E72B78013B012BF1D80223237001F0D8
:1002D000DFFB734B00F51C501030186002F070F813
:1002E000754901F0C3FDE2E76D4A33681268734D4A
:1002F000934284BF04222270714C22689B1A142BF3
:100300000BD90A2002F0B1FA6E4A13680344136055
:100310002B6801332B60336823602B680A2B53D181
:10032000684E306802F096FC53A3D3E9002302F034
:10033000FBFC02F0A9FF644A0446136803441360FF
:10034000624A136801331360614B1A688242B8BF76
:100350001860002333602B6000225E48114601F0D4
:10036000A1FA5D495B4801F081FD01220021594855
:1003700001F098FA594B1B7843BB02F021F8584919
:1003800001F074FD02F01CF80546204603F0CEF89B
:1003900002F072FC3AA3D3E9002302F0C5FC02F09C
:1003A000BBFF02F069FC38A3D3E9002302F0BCFCD8
:1003B00002F0B2FF02220146284601F057FE494BE7
:1003C0001868FFF777FE72E70024C5E7012BF6D126
:1003D00001F0F6FF444901F049FD01F0F1FF02226E
:1003E0000021EAE7414D424E2B78BFF35B8F13F0BB
:1003F000010F09D12846FFF754FE28B101F048FB50
:1004000030602846FFF752FE3A4D2B680BB90123A6
:10041000237001220D212F4801F044FA01F038FB2E
:100420003368C01AB0F57A7F0DD92C68631E002C92
:100430002B6014DA2D21274801F01CFD61420A22AD
:10044000244801F026FD43F697222B4B1B6893426C
:1004500007DD164B00201968FFF77EFE27E72146CF
:10046000EDE742F20F729342CCBF1E4B234BF1E7F4
:100470000E4BA5E7AFF300809A9999999999B93FE6
:10048000AFCBBA134001543F08A68B2EBA688C40FC
:1004900098000020940000205C370A08A00000208B
:1004A000D8000020CC000020C40000207C000020E8
:1004B000DC000020780000206A370A08D000002005
:1004C000B0000020D4000020A8000020A4000020DC
:1004D000C8000020B400002077370A08A1000020DF
:1004E00082370A088000002088370A08840000202C
:1004F00088000020000000208C00002074000020F4
:1005000010B5134801F0BCF902230422012111485F
:1005100000F06DF80022104C1046217801F067F9C8
:1005200000220E4B11461860207801F060F90C4B48
:10053000217818600022084601F059F90022094B81
:1005400011461860104601F052F9074B186010BDB3
:10055000B4000020DC000020040000207C0000200B
:1005600074000020800000207800002038B5044688
:10057000C0680D4608B101F019FCA379062B0CBF29
:1005800004200320684380B2A08001F007FCE060F3
:1005900028B10021A28803F031F8658038BDA08021
:1005A0006080FBE710B504460121C07902F020F914
:1005B0000021E07902F02DF90123237010BD38B538
:1005C000037805460C461BB10021C07902F010F9F2
:1005D0002B78EC7153B1A4B22046012102F008F946
:1005E0002046BDE83840002102F013B938BD70B58F
:1005F0000025044616468371C0E90355057005724F
:10060000FFF7B4FF20463146FFF7D9FF204670BD03
:10061000C368002B00F04184F0B583790446023BA7
:10062000DBB2042B8CBF3225284A87B098BF52F822
:10063000235001F025FA2369C01AA842F9D372B6F3
:10064000A388A579ADF80A30BDF80A30022DE1681B
:100650009BB200F06E82072D00F06B82062D00F039
:100660001D84052D00F0A183082D00F09E83002D30
:1006700040F04F85002B00F092834FF40006144A9F
:100680000496BDF80A300331033B9BB2ADF80A3043
:1006900011F8033CDBB28DF8073011F8023CDBB2F5
:1006A0008DF8063011F8013CDBB28DF808309DF86A
:1006B00007009DF806301B0243EA00439DF808003E
:1006C000034303938DF805501BE100BF90370A08E0
:1006D000F4000020004600BF00BF00BF00BF00BF05
:1006E00000BF00BF00BF00BF00BF00BF00BF00BF12
:1006F00000BF00BF00BF00BF00BF00BF00BF00BF02
:1007000000BF00BF00BF00BF00BF00BF00BF00BFF1
:1007100000BF00BF00BF00BF00BF00BF00BF00BFE1
:1007200000BF00BF00BF00BF00BF00BF00BF00BFD1
:1007300000BF00BF00BF00BF00BF00BF00BF00BFC1
:1007400000BF00BF00BF00BF00BF00BF00BF00BFB1
:1007500000BF00BF00BF00BF00BF00BF00BF00BFA1
:1007600000BF00BF00BF00BF00BF00BF00BF00BF91
:1007700000BF00BF00BF00BF00BF00BF00BF00BF81
:1007800000BF00BF00BF00BF00BF00BF00BF00BF71
:1007900000BF00BF00BF00BF00BF00BF00BF00BF61
:1007A00000BF00BF00BF00BF00BF00BF00BF00BF51
:1007B00000BF00BF00BF00BF00BF00BF00BF00BF41
:1007C00000BF00BF00BF00BF00BF00BF00BF00BF31
:1007D00000BF00BF00BF00BF00BF00BFE3791068CB
:1007E000C3EBC30300EB830750F82330B88858836A
:1007F000004600BF00BF00BF00BF00BF00BF00BF7A
:1008000000BF00BF00BF00BF00BF00BF00BF00BFF0
:1008100000BF00BF00BF00BF00BF00BF00BF00BFE0
:1008200000BF00BF00BF00BF00BF00BF00BF00BFD0
:1008300000BF00BF00BF00BF00BF00BF00BF00BFC0
:1008400000BF00BF00BF00BF00BF00BF00BF00BFB0
:1008500000BF00BF00BF00BF00BF00BF00BF00BFA0
:1008600000BF00BF00BF00BF00BF00BF00BF00BF90
:1008700000BF00BF00BF00BF00BF00BF00BF00BF80
:1008800000BF00BF00BF00BF00BF00BF00BF00BF70
:1008900000BF00BF00BF00BF00BF00BF00BF00BF60
:1008A00000BF00BF00BF00BF00BF00BF00BF00BF50
:1008B00000BF00BF00BF00BF00BF00BF00BF00BF40
:1008C00000BF00BF00BF00BF00BF00BF00BF00BF30
:1008D00000BF00BF00BF00BF00BF00BF00BF00BF20
:1008E00000BF00BF00BF00BF00BF049B5B080493B4
:1008F0009DF805300133DBB2172B8DF8053000F27F
:100900002387E3791068C3EBC30300EB830750F838
:100910002330B88818830398049B18427FF4DAAE1A
:10092000004600BF00BF00BF00BF00BF00BF00BF48
:1009300000BF00BF00BF00BF00BF00BF00BF00BFBF
:1009400000BF00BF00BF00BF00BF00BF00BF00BFAF
:1009500000BF00BF00BF00BF00BF00BF00BF00BF9F
:1009600000BF00BF00BF00BF00BF00BF00BF00BF8F
:1009700000BFE3791068C3EBC30300EB830750F8B3
:100980002330B8885883004600BF00BF00BF00BFB7
:1009900000BF00BF00BF00BF00BF00BF00BF00BF5F
:1009A00000BF00BF00BF00BF00BF00BF00BF00BF4F
:1009B00000BF00BF00BF00BF00BF00BF00BF00BF3F
:1009C00000BF00BF00BF00BF00BF00BF00BF00BF2F
:1009D00000BF00BF00BF00BF00BF00BF00BF00BF1F
:1009E00000BF00BF00BF00BF00BF00BF00BF00BF0F
:1009F00000BF00BF00BF00BF00BF00BF00BF00BFFF
:100A000000BF00BF00BF00BF00BF00BF00BF00BFEE
:100A100000BF00BF00BF00BF00BF00BF00BF00BFDE
:100A200000BF00BF00BF00BF00BF00BF00BF00BFCE
:100A300000BF00BF00BF00BF00BF00BF00BF00BFBE
:100A400000BF00BF00BF00BF00BF00BF00BF00BFAE
:100A500000BF00BF00BF00BF00BF00BF00BF00BF9E
:100A600000BF00BF00BF00BF00BF00BF00BF00BF8E
:100A700000BF00BF00BF00BF00BF00BF00BF00BF7E
:100A800000BF00BF00BF00BF00BF00BF00BF00BF6E
:100A900000BF00BF00BF00BF00BF00BF00BF00BF5E
:100AA00000BF00BF00BF00BF00BF00BF00BF00BF4E
:100AB00000BF00BF00BF00BF00BF00BF00BF00BF3E
:100AC00000BF00BF00BF00BF00BF00BF00BF00BF2E
:100AD00000BF00BF00BF00BF00BF00BF00BF00BF1E
:100AE00000BF00BF00BF00BF00BF00BF00BF00BF0E
:100AF00000BF00BF00BF00BF00BF00BF00BF00BFFE
:100B000000BF00BF00BF00BF00BF00BF00BF00BFED
:100B100000BF00BF00BF00BF00BF00BF00BF00BFDD
:100B200000BF00BF00BF00BF00BF00BF00BF00BFCD
:100B3000DBE6002B00F033814FF400054FF0000C92
:100B4000124A08460495BDF80A300331033B9BB2B4
:100B5000ADF80A3011F8033CDBB28DF8063011F81D
:100B6000023CDBB28DF807308378DBB28DF80830B9
:100B70009DF806609DF807309DF808001B0243EAC7
:100B80000643034303938DF805C07FE0F400002083
:100B9000004600BF00BF00BF00BF00BF00BF00BFD6
:100BA00000BF00BF00BF00BF00BF00BF00BF00BF4D
:100BB00000BF00BF00BF00BF00BF00BF00BF00BF3D
:100BC00000BF00BF00BF00BF00BF00BF00BF00BF2D
:100BD00000BF00BF00BF00BF00BF00BF00BF00BF1D
:100BE00000BF00BF00BF00BF00BF00BF00BF00BF0D
:100BF00000BF00BF00BF00BF00BF00BF00BF00BFFD
:100C000000BF00BF00BF00BF00BF00BF00BF00BFEC
:100C100000BF00BF00BF00BF00BF00BF00BF00BFDC
:100C200000BF00BF00BF00BF00BFE3791068C3EB87
:100C3000C30300EB830650F82330B0885883004686
:100C400000BF00BF00BF00BF00BF00BF00BF00BFAC
:100C500000BF00BF00BF00BF00BF00BF00BF00BF9C
:100C600000BF00BF00BF00BF00BF00BF00BF00BF8C
:100C700000BF00BF049B5B0804939DF8053001335F
:100C8000DBB2172B8DF8053000F28380E379106812
:100C9000C3EBC30300EB830650F82330B0881883FE
:100CA0000398049B18427FF473AF004600BF00BF57
:100CB00000BF00BF00BF00BF00BF00BF00BF00BF3C
:100CC00000BF00BF00BF00BF00BF00BF00BF00BF2C
:100CD00000BFE3791068C3EBC30300EB830650F851
:100CE0002330B0885883004600BF00BF00BF00BF5C
:100CF00000BF00BF00BF00BF00BF00BF00BF00BFFC
:100D000000BF00BF00BF00BF00BF00BF00BF00BFEB
:100D100000BF00BF00BF00BF00BF00BF00BF00BFDB
:100D200000BF00BF00BF00BF00BF00BF00BF00BFCB
:100D300000BF00BF00BF00BF00BF00BF00BF00BFBB
:100D400000BF00BF00BF00BF00BF00BF00BF00BFAB
:100D500000BF00BF00BF00BF00BF00BF00BF00BF9B
:100D600000BF00BF00BF00BF00BF00BF00BF00BF8B
:100D700000BF00BF00BF00BF00BF00BF00BF00BF7B
:100D800000BF00BF00BF00BF00BF00BF00BF00BF6B
:100D900070E7BDF80A309BB2002B7FF4D2AE62B68A
:100DA00000F06EFE206107B0F0BD002BF7D04FF4CD
:100DB00000054FF0000C544B1868544B0495BDF8D7
:100DC0000A200331033A92B2ADF80A2011F8032C3D
:100DD000D2B28DF8062011F8022CD2B28DF807207D
:100DE00011F8012CD2B28DF808209DF806609DF80C
:100DF0000720120242EA06429DF80860324303923D
:100E00008DF805C0E2795F68C2EBC20200EB820692
:100E1000B68850F8222005971683039E049A16423E
:100E200025D05A68059E921B4F2AFAD9E279C2EB67
:100E3000C20200EB8206B68850F8222056835A6818
:100E400005925A68059E921B072AFAD9049A5208FD
:100E500004929DF805200132D2B2172A8DF80520A0
:100E6000D0D9BDF80A2092B2002AA7D197E75A68D4
:100E7000059E921B182AFAD9E279C2EBC20200EB56
:100E80008206B68850F8222056835A6805925A681E
:100E9000059E921B452AFAD9D8E77047002B3FF4EC
:100EA0007EAF4FF000450026174A0495BDF80A3082
:100EB0000431043B9BB2ADF80A3011F8043CDBB2BC
:100EC0008DF8073011F8033CDBB28DF8063011F8CD
:100ED000023CDBB28DF8083011F8013CDBB28DF832
:100EE00009309DF807009DF806301B0443EA0063B3
:100EF0009DF808009DF809703B4343EA00230393E3
:100F00008DF805607FE000BFF4000020001000E0D5
:100F1000004600BF00BF00BF00BF00BF00BF00BF52
:100F200000BF00BF00BF00BF00BF00BF00BF00BFC9
:100F300000BF00BF00BF00BF00BF00BF00BF00BFB9
:100F400000BF00BF00BF00BF00BF00BF00BF00BFA9
:100F500000BF00BF00BF00BF00BF00BF00BF00BF99
:100F600000BF00BF00BF00BF00BF00BF00BF00BF89
:100F700000BF00BF00BF00BF00BF00BF00BFE379DC
:100F80001068C3EBC30300EB830750F82330B88825
:100F90005883004600BF00BF00BF00BF00BF00BFB6
:100FA00000BF00BF00BF00BF00BF00BF00BF00BF49
:100FB00000BF00BF00BF00BF00BF00BF00BF00BF39
:100FC00000BF00BF00BF00BF00BF00BF00BF00BF29
:100FD00000BF00BF00BF00BF00BF00BF00BF00BF19
:100FE00000BF00BF00BF00BF00BF00BF00BF00BF09
:100FF000049B5B0804939DF805300133DBB21F2B83
:101000008DF805307ED8E3791068C3EBC30300EB9D
:10101000830750F82330B88818830398049B18423C
:101020007FF476AF004600BF00BF00BF00BF00BF27
:1010300000BF00BF00BF00BF00BF00BF00BF00BFB8
:1010400000BF00BF00BF00BF00BF00BFE379106852
:10105000C3EBC30300EB830750F82330B8885883F1
:10106000004600BF00BF00BF00BF00BF00BF00BF01
:1010700000BF00BF00BF00BF00BF00BF00BF00BF78
:1010800000BF00BF00BF00BF00BF00BF00BF00BF68
:1010900000BF00BF00BF00BF00BF00BF00BF00BF58
:1010A00000BF00BF00BF00BF00BF00BF00BF00BF48
:1010B00000BF00BF00BF00BF00BF00BF00BF00BF38
:1010C00000BF00BF00BF00BF00BF00BF00BF00BF28
:1010D00000BF00BF00BF00BF00BF00BF00BF00BF18
:1010E00000BF00BF00BF00BF00BF00BF00BF00BF08
:1010F00000BF00BF00BF00BF00BF00BF00BF00BFF8
:1011000000BF75E7BDF80A309BB2002B7FF4CDAE6F
:1011100045E6032D00F02881002B3FF440AE4FF44C
:1011200000050026164A0495BDF80A30E079033B15
:101130009BB2ADF80A300B781768DBB28DF8073038
:101140004B78C0EBC000DBB28DF808308B780331F0
:10115000DBB28DF806309DF807C09DF808301B0201
:1011600043EA0C439DF806C043EA0C0307EB800CEE
:10117000039357F820308DF80560BCF804007AE03E
:10118000F4000020049B5B080493004600BF00BFEE
:1011900000BF00BF00BF00BF00BF00BF00BF00BF57
:1011A00000BF00BF00BF00BF00BF00BF00BF00BF47
:1011B00000BF00BF00BF00BF00BF00BF00BF00BF37
:1011C00000BF00BF00BF00BF00BF00BF00BF00BF27
:1011D00000BF00BF00BF00BF00BF00BF00BF00BF17
:1011E00000BF00BF00BF00BF00BF00BF00BF00BF07
:1011F00000BF00BF00BF00BF00BF00BF00BF00BFF7
:1012000000BF00BF00BF00BF00BF00BF00BF00BFE6
:10121000E07917689DF80530C0EBC00007EB800C43
:10122000013357F82000BCF80470DBB28DF80530AC
:101230000783004600BF00BF00BF00BF00BF00BF64
:1012400000BF00BF00BF00BF00BF00BF00BF00BFA6
:1012500000BF00BF00BF00BF00BF00BF9DF805304A
:10126000182B7AD0E3791068C3EBC30300EB830734
:1012700050F82330B88858830398049B184281D1D2
:10128000004600BF00BF00BF00BF00BF00BF00BFDF
:1012900000BF00BF00BF00BF00BF00BF00BF00BF56
:1012A00000BFE3791068C3EBC30300EB830750F87A
:1012B0002330B88818839DF805300133DBB28DF8F0
:1012C0000530049B5B080493004600BF00BF00BFCD
:1012D00000BF00BF00BF00BF00BF00BF00BF00BF16
:1012E00000BF00BF00BF00BF00BF00BF00BF00BF06
:1012F00000BF00BF00BF00BF00BF00BF00BF00BFF6
:1013000000BF00BF00BF00BF00BF00BF00BF00BFE5
:1013100000BF00BF00BF00BF00BF00BF00BF00BFD5
:1013200000BF00BF00BF00BF00BF00BF00BF00BFC5
:1013300000BF00BF00BF00BF00BF00BF00BF00BFB5
:1013400000BF00BF00BF00BF00BF00BF00BF00BFA5
:1013500000BF9DF80530182B84D1BDF80A309BB230
:10136000002B7FF4E0AE1AE5002B3FF418AD4FF4EC
:1013700000050026124A0495BDF80A300331033BEC
:101380009BB2ADF80A3011F8033CDBB28DF80730A0
:1013900011F8023CDBB28DF8063011F8013CDBB2EB
:1013A0008DF808309DF807009DF806301B0243EACF
:1013B00000439DF80800034303938DF80560E0E0C7
:1013C000F4000020004600BF00BF00BF00BF00BF08
:1013D00000BF00BF00BF00BF00BF00BF00BF00BF15
:1013E00000BF00BF00BF00BF00BF00BF00BF00BF05
:1013F00000BF00BF00BF00BF00BF00BF00BF00BFF5
:1014000000BF00BF00BF00BF00BF00BF00BF00BFE4
:1014100000BF00BF00BF00BF00BF00BF00BF00BFD4
:1014200000BF00BF00BF00BF00BF00BF00BF00BFC4
:1014300000BF00BF00BF00BF00BF00BF00BF00BFB4
:1014400000BF00BF00BF00BF00BF00BF00BF00BFA4
:1014500000BF00BF00BF00BF00BF00BF00BF00BF94
:1014600000BF00BF00BF00BF00BF00BF00BF00BF84
:1014700000BF00BF00BF00BF00BF00BF00BF00BF74
:1014800000BF00BF00BF00BF00BF00BF00BF00BF64
:1014900000BF00BF00BF00BF00BF00BF00BF00BF54
:1014A00000BF00BF00BF00BF00BF00BF00BF00BF44
:1014B00000BF00BF00BF00BF00BF00BF00BF00BF34
:1014C00000BF00BF00BF00BF00BF00BF00BF00BF24
:1014D00000BF00BF00BF00BF00BF00BF00BF00BF14
:1014E00000BF00BF00BFE3791068C3EBC30300EB8C
:1014F000830750F82330B8885883004600BF00BFE8
:1015000000BF00BF00BF00BF00BF00BF00BF00BFE3
:1015100000BF00BF00BF00BF00BF00BF00BF00BFD3
:1015200000BF00BF00BF00BF00BF00BF00BF00BFC3
:1015300000BF00BF00BF00BF00BF00BF00BF00BFB3
:1015400000BF00BF00BF00BF00BF00BF00BF00BFA3
:1015500000BF00BF00BF00BF00BF00BF00BF00BF93
:1015600000BF00BF00BF00BF00BF049B5B08049327
:101570009DF805300133DBB2172B8DF8053000F2F2
:10158000EB80E3791068C3EBC30300EB830750F8EB
:101590002330B88818830398049B18427FF412AF55
:1015A000004600BF00BF00BF00BF00BF00BF00BFBC
:1015B00000BF00BF00BF00BF00BF00BF00BF00BF33
:1015C00000BF00BF00BF00BF00BF00BF00BF00BF23
:1015D00000BF00BF00BF00BF00BF00BF00BF00BF13
:1015E00000BF00BF00BF00BF00BF00BF00BF00BF03
:1015F00000BF00BF00BF00BF00BF00BF00BF00BFF3
:1016000000BF00BF00BF00BF00BF00BF00BF00BFE2
:1016100000BF00BF00BF00BF00BF00BF00BF00BFD2
:1016200000BFE3791068C3EBC30300EB830750F8F6
:101630002330B8885883004600BF00BF00BF00BFFA
:1016400000BF00BF00BF00BF00BF00BF00BF00BFA2
:1016500000BF00BF00BF00BF00BF00BF00BF00BF92
:1016600000BF00BF00BF00BF00BF00BF00BF00BF82
:1016700000BF00BF00BF00BF00BF00BF00BF00BF72
:1016800000BF00BF00BF00BF00BF00BF00BF00BF62
:1016900000BF00BF00BF00BF00BF00BF00BF00BF52
:1016A00000BF00BF00BF00BF00BF00BF00BF00BF42
:1016B00000BF00BF00BF00BF00BF00BF00BF00BF32
:1016C00000BF00BF00BF00BF00BF00BF00BF00BF22
:1016D00000BF00BF00BF00BF00BF00BF00BF00BF12
:1016E00000BF00BF00BF00BF00BF00BF00BF00BF02
:1016F00000BF00BF00BF00BF00BF00BF00BF00BFF2
:1017000000BF00BF00BF00BF00BF00BF00BF00BFE1
:1017100000BF00BF00BF00BF00BF00BF00BF00BFD1
:1017200000BF00BF00BF00BF00BF00BF00BF00BFC1
:1017300000BF00BF00BF00BF00BF00BF00BF00BFB1
:1017400000BF00BF00BF10E7BDF80A309BB2002BFE
:101750007EF496AFFFF723BBBDF80A309BB2002B97
:101760007FF409AEFFF71BBB4388F0B58B422DD940
:10177000067AC2F30743C2F30724D5B23EB17343DE
:1017800074437543C3F30723C4F307242D0A90F869
:1017900006C0C768BCF1060F0CBF042603264E43E3
:1017A000ACF1020CB919BCF1060F1DD8DFE80CF042
:1017B000041C08040F040400BC554B708D7005E038
:1017C000FE2B28BFFE23BB554D708C70F0BDBB5562
:1017D0004C708D70037A120E13B9D2B2CA70F5E74D
:1017E0005A43C2F30722F9E7BB554C70E6E742EAD9
:1017F000012242EA0040704708B500F0F9F8014BB9
:10180000186008BDF4000020704710B50446102190
:10181000FEF745FC204610BD70B50E46054601F0AA
:10182000A1F83E2100F0C2FE0024A64207DD01F02F
:1018300099F80368295D9B6898470134F5E701F042
:1018400091F8BDE8704000F0B8BE402307B58DF8B0
:10185000051001A802218DF80430FFF7DDFF0120FB
:1018600003B05DF804FB802307B502218DF8050065
:1018700001A88DF80430FFF7CFFF03B05DF804FB3B
:1018800000224260014A0260704700BFAC370A087C
:1018900008B50120FFF7E7FFBDE808404FF4FA6004
:1018A00000F0E6B807B56AB941F0800180238DF8F1
:1018B000051001A802218DF80430FFF7ADFF03B039
:1018C0005DF804FB41F0C001F0E7437A43F0040205
:1018D000427243F00C00FFF7C6BF38B514460D4600
:1018E00001F040F8622100F061FE01F03BF803686E
:1018F00029469B68984701F035F8036821469B68A4
:10190000984701F02FF8BDE8384000F056BE70B59A
:10191000044616461D460A460421FFF7DEFF3246FE
:1019200020460321FFF7D9FF2A462046BDE8704034
:101930000221FFF7D2BF70B5154604461E4601F0DE
:1019400011F800F029FE012D88BF237A257384BF8A
:1019500043F008032372002363732EB1012D02BFED
:10196000237A43F0040323724CF2503000F080F8E5
:10197000207A40F02000FFF776FF41F2941000F04B
:1019800077F8207A40F02000FFF76DFF962000F0F6
:101990006FF8207A40F02000FFF765FF207A40F0D2
:1019A0002000FFF760FF042320466372FFF78DFFDE
:1019B0002046FFF76DFF02230620A372FFF753FFB7
:1019C000002220461146FFF788FF20460022012111
:1019D000FFF783FF2046AA220821FFF77EFFFF239F
:1019E0002046BDE870401A461946FFF790BF000038
:1019F00008B5024B1B681B68019308BDB0010608BF
:101A000008B5024B1B685B68019308BDB00106086E
:101A100008B5024B1B689B68019308BDB00106081E
:101A200008B5024B1B68DB68019308BDB0010608CE
:101A300008B5024B1B681B69019308BDB00106087D
:101A400008B5024B1B685B69019308BDB00106082D
:101A500008B5024B1B681B6B019308BDB00106085B
:101A600008B5024B1B685B68019308BD9C01060822
:101A700008B5024B1B68DB68019308BD9C01060892
:101A800008B5024B1B681B69019308BD9C01060841
:101A900008B5024B1B685B69019308BD9C010608F1
:101AA00008B5024B1B685B6C019308BDD0010608AA
:101AB00008B5024B1B689B6C019308BDD00106085A
:101AC00008B5024B1B685B6A019308BDC401060898
:101AD00008B5024B1B689B6A019308BDC401060848
:101AE00008B5024B1B68DB6A019308BDC4010608F8
:101AF00008B5024B1B681B6B019308BDC4010608A7
:101B000008B5024B1B685B6B019308BDC401060856
:101B100008B5024B1B689B6B019308BDC401060806
:101B200008B5024B1B681B6C019308BDC401060875
:101B300008B5024B1B681B6E019308BDC401060863
:101B400008B5024B1B68DB6C019308BDAC010608AD
:101B500008B5024B1B689B6D019308BDAC010608DC
:101B600008B5024B1B68DB6D019308BDAC0106088C
:101B700008B5024B1B681B6E019308BDAC0106083B
:101B800008B5024B1B685B6E019308BDAC010608EB
:101B900008B5024B1B689B6E019308BDAC0106089B
:101BA00008B5024B1B68DB6E019308BDAC0106084B
:101BB00008B5024B1B681B6F019308BDAC010608FA
:101BC00008B5024B1B685B6F019308BDAC010608AA
:101BD00008B5034B1B68D3F88030019308BD0000A3
:101BE000AC01060808B5024B1B68DB69019308BD10
:101BF000B401060808B5024B1B681B6A019308BDB7
:101C0000B401060808B5024B1B681B68019308BDA8
:101C1000D801060808B5024B1B685B68019308BD34
:101C2000D801060808B5024B1B681B69019308BD63
:101C3000D801060808B5024B1B685B69019308BD13
:101C4000D801060808B5024B1B689B69019308BDC3
:101C5000D801060808B5024B1B68DB69019308BD73
:101C6000D801060808B5024B1B681B6A019308BD22
:101C7000D801060808B5024B1B689B6C019308BD90
:101C8000C001060808B5024B1B685B68019308BDDC
:101C9000A401060808B5024B1B685B69019308BDE7
:101CA000A401060808B5034B1B68D3F890300193D4
:101CB00008BD0000A401060808B5034B1B68D3F853
:101CC0009C30019308BD0000A401060808B5024B32
:101CD0001B685B68019308BDC801060808B5024B84
:101CE0001B689B68019308BDC801060808B5024B34
:101CF0001B68DB68019308BDC801060808B5024BE4
:101D00001B681B69019308BDC801060808B5024B92
:101D10001B685B69019308BDC801060808B5024B42
:101D20001B689B69019308BDC801060808B5024BF2
:101D30001B68DB69019308BDC801060808B5024BA2
:101D40001B681B6A019308BDC801060808B5024B51
:101D50001B681B6B019308BDC801060808B5024B40
:101D60001B685B6B019308BDC801060808B5024BF0
:101D70001B681B6C019308BDC801060808B5024B1F
:101D80001B685B6C019308BDC801060808B5024BCF
:101D90001B68DB6B019308BDCC01060808B5024B3C
:101DA0001B681B68019308BDA001060808B5024B1B
:101DB0001B685B68019308BDA001060808B5024BCB
:101DC0001B681B6C019308BDA001060808B5024BF7
:101DD0001B685B6C019308BDA001060870B5002666
:101DE00004460D4640F8086FFFF75AFE2846257056
:101DF000FFF7F8FE2046666070BD0000022200205A
:101E0000044B1A60044B054AC3E900009A60FFF7CF
:101E100039BF00BF04010020F80000200000FFFFD0
:101E2000F8B506460D4600248F18BD420CD0336825
:101E300030469B6815F8011B9847031E01DB1C44C4
:101E4000F3E7002C08BF1C462046F8BD70B50546D8
:101E50000C46084649B101F007FC2B6802462146B2
:101E60002846BDE87040DB68184770BD08B5FFF72D
:101E7000EDFF08BD03689B68184738B50D2105467E
:101E8000FFF7F8FF0A2104462846FFF7F3FF204436
:101E900038BD0023012A98BF0A2230B58BB00C460A
:101EA0008DF8243009A92546B4FBF2F404FB125343
:101EB000DBB2092B94BF30333733DBB2AA4201F8CF
:101EC000013DF0D9FFF7C2FF0BB030BD2DE9F74F50
:101ED00005461946104692461F469DF8306001F0AF
:101EE000BDF940B151492846FFF7B0FF04462046EE
:101EF00003B0BDE8F08F27F000444FF0FF325046AA
:101F000021464B4B01F0AAF948B94FF0FF32504639
:101F10002146474B01F084F908B94649E3E74FF001
:101F2000604250463946444B01F08EF908B14349AE
:101F3000D9E74FF0604250463946414B01F066F90F
:101F40000028F4D1002200235046394601F05EF902
:101F5000044630B12D212846FFF78CFF044607F1D7
:101F600000474FF0000B00204FF000083549DFF824
:101F7000D8905FFA8BF39E4206D942464B4600F05A
:101F8000FDFF0BF1010BF4E73B46524600F016FD56
:101F90008946804601F0A0F9074600F04BFE024654
:101FA0000B464046494600F007FD0A228046894616
:101FB00028463946FFF76DFF0444002E97D0284687
:101FC0002249FFF743FF4FF0000ADFF87CB00444DA
:101FD000002E8CD052465B464046494600F0A4FE97
:101FE0008046894601F050F9071E1BDA2D2128464C
:101FF000FFF740FF034679420A2228460193FFF784
:1020000048FF019B013E034438461C4400F022FE79
:1020100002460B464046494600F0CEFCF6B28046EA
:102020008946D5E739460023E6E700BFBC370A08F2
:10203000FFFFEF7FC0370A08FFFFEF41C4370A08F0
:10204000FFFFEFC10000E03F0000244080370A0896
:1020500037B59DF8181005460091FFF737FF044685
:102060002846FFF70AFF204403B030BD37B50446C9
:102070000846154600F000FE009502460B46204635
:10208000FFF7E6FF03B030BD014B024A1A6070470C
:1020900008010020C8370A08024B1A68024B1A6070
:1020A000704700BF080000200C0100200021FFF74E
:1020B000F1BD00000022014B9A6070471001002022
:1020C000014B1860704700BF0C00002008B5134B8F
:1020D00043B100F075F903681B699847002801DDDA
:1020E000AFF300800E4B43B100F0F2FB03681B69B5
:1020F0009847002801DDAFF300800A4B0BB1AFF326
:102100000080094B43B100F095F903681B699847BB
:10211000002801DDAFF3008008BD00BF0000000013
:1021200000000000000000000000000008B5FFF7FC
:10213000CDFFFFF7ADFC014B186008BD94040020F3
:102140000548064A08B5121A054901F049FA054B37
:10215000054A1A6008BD00BF00400240044002402A
:10216000C0390A08004002401E1C279A002307B508
:102170001A466FF077010093FFF79EFD03B05DF8FC
:1021800004FB000007B543880A2B08D0502B0BD165
:10219000094B1B684BB103B05DF804EB1847FFF720
:1021A000E5FF03B05DF804FB00231A466FF07701EA
:1021B0000093FFF781FDF4E724010020002110B512
:1021C0001148FFF703FE114B1A68114B9A420CBFDE
:1021D000012200220F4B1A7001D0FFF7B1FFFFF769
:1021E0003FFC044601F012FA0B4B13B12046AFF34B
:1021F000008000210848FFF7C9FDBDE8104000211C
:102200000648FFF74FBD00BFC1200A08004002404A
:102210001E1C279A200100200000000085210A08CA
:102220007047F8B50E46002400F10807051D17F8A1
:10223000011D0A223046FFF72CFEAF42044401D1B3
:102240002046F8BD002CF2D02E213046FFF712FEBA
:102250000444ECE710B504461821FDF720FF2046A2
:1022600010BD000010B50446044B1122002140F8B7
:10227000043B01F0C3F9204610BD00BFF0370A0847
:102280000346074A10B543F8042B01F1100251F838
:10229000044B914243F8044BF9D10A781A7010BDEF
:1022A000F0370A08024AC0E900210422027570478B
:1022B000F0370A0810B59DF8084044EA03240423C7
:1022C00044EA024444EA01644460037510BD00001E
:1022D00013B5044C04609DF810400094FFF7EAFF2A
:1022E00002B010BDF0370A0841747047704770475C
:1022F00008B50021007CFFF7A5FC40EAE07008BDAE
:1023000008B50121007CFFF79DFC40EAE07008BDA4
:1023100008B5007CFFF78EFC20EAE07008BD08B528
:10232000007CFFF77FFC20EAE07008BD38B504466A
:10233000007C0D46FFF77EFC002801DC607C28B1A4
:102340002946207CFFF786FC20EAE07038BD007C3F
:10235000FFF788BC10B504461421FDF7A0FE204607
:1023600010BD704710B54FF47A730446084600213B
:10237000C4E90113044B20742360012311466374E4
:10238000FFF740FC204610BD04380A080022007CFC
:10239000FFF740BC10B504461422002101F02EF9CD
:1023A000054B20466360054BE36040F20113238137
:1023B0008123238210BD00BF580100205902002054
:1023C00030B50E4D87B001A8FFF7E4FF2978BFF3C1
:1023D0005B8F11F001040ED12846FDF762FE50B16B
:1023E000214601AA0648FFF7BDFF2846FDF75EFE1D
:1023F000044801F0EFF8024807B030BD2801002082
:1024000030010020ED220A0810B5044614220021F4
:1024100001F0F4F8054B20466360054BE36040F2A1
:10242000011323818123238210BD00BFDA02002023
:10243000DB03002010B50E4C86B001A8FFF7E4FFC7
:102440002378BFF35B8FDB070ED42046FDF729FE10
:1024500050B1012101AA0748FFF784FF2046FDF78C
:1024600025FE054801F0B6F8024806B010BD00BFD1
:102470002C0100204401002063230A0870474174A6
:10248000704708B5007CFFF74BFB20EAE07008BD01
:1024900008B5007CFFF71CFB20EAE07008BD08B51A
:1024A000007CFFF725FB40EAE07008BD08B5007C22
:1024B000FFF716FB40EAE07008BD007CFFF720BB89
:1024C00070B5467C04460D462EB12946207CBDE8F9
:1024D0007040FFF7F5BA007CFFF722FB0028F4DC20
:1024E000304670BD10B504461421FDF7D8FD2046D6
:1024F00010BD000010B54FF47A730446084611462B
:102500000022C4E90123044B207423600123637477
:10251000FFF70EFB204610BD34380A087047F8B5A7
:10252000064615460C468F18BC4206D03368304626
:102530009B6814F8011B9847F6E72846F8BD00226F
:10254000007CFFF715BB0021007CFFF719BB0021C1
:10255000007CFFF71DBB0021007CFFF721BB0021A1
:10256000007CFFF725BB10B504461421FDF797FD4D
:10257000204610BD10B54FF47A730446084600217A
:10258000C4E90113034B114623602074FFF720FBBD
:10259000204610BD64380A080023007C1A461946FC
:1025A000FFF7CEBA0022007CFFF7D2BAC9B2FFF71C
:1025B000F9BF0022007CFFF7D3BA0121FFF7F9BF72
:1025C000002240681146FFF799BBF0B5154689B067
:1025D00011220E460446002103A801F00FF82846F8
:1025E00001F042F8002781B273682846009703AAD9
:1025F000FFF740FB30B139462046FFF753FE204637
:1026000009B0F0BD204603A9FFF73AFEF7E7002224
:1026100040681146FFF792BB002240681146FFF761
:102620009DBB00224068FFF791BB0022406881F00B
:102630000101FFF77BBB002340681A461946FFF7EC
:102640006DBB002340681A461946FFF75FBB0022A6
:1026500040681146FFF742BB002202214068FFF7A5
:1026600045BB002340681A46FFF730BB0422024BEB
:102670005A60024A1A6070475C0400208C380A08CD
:10268000002340681A46FFF721BB00220221406860
:10269000FFF72CBB002240681146FFF71FBB00224A
:1026A00040681146FFF72ABB002340681A461946C6
:1026B000FFF72CBB002340681A461946FFF72EBBD4
:1026C00000214068FFF752BB00214068FFF756BB6E
:1026D0000022406881F00101FFF728BB002240681A
:1026E000FFF734BB002240681146FFF737BB0022DA
:1026F00040681146FFF722BB70B515468EB0044600
:1027000008A8FFF7AFFD1122002103A800F076FF13
:102710000026284600F0A8FF0A4B009681B25B68AD
:10272000284603AAFFF7A6FA30B131462046FFF744
:10273000B9FD20460EB070BD204603A9FFF7A0FDED
:10274000F7E700BF5C040020024B034A1A60002236
:102750005A60704764040020C8380A08024B986821
:1027600008B1FFF7A5B9704770040020172870B5AD
:10277000044601D9002070BDA0F10D03022B0BD936
:10278000012824D800F0EEF80021007CFFF718FAA9
:1027900080F00100C0B2EEE7124E3178BFF35B8FDC
:1027A00011F001050DD13046FDF77BFC48B12946FB
:1027B0000D48FFF713FB3046FDF778FC0B4800F09F
:1027C00009FF094B1878FFF715FA0028D2D1123CFF
:1027D000012C05D800F07CF8007CFFF799F9D7E7C9
:1027E0000120C8E76C040020700400205D270A085F
:1027F000172838B504460D460AD8FF2908D0FFF738
:10280000B5FF28B129462046BDE83840FFF700B99A
:1028100038BD38B504460D46FFF702F9FF2810D041
:10282000062804D84D2323FA00F0C30709D4204614
:10283000FFF79CFF28B129462046BDE83840FFF746
:10284000F7B838BD10B50446FFF7EAF8031FDBB24E
:10285000012B08D92046FFF789FF20B12046BDE8AB
:102860001040FFF7EDB8002010BD10B50446092850
:102870009CBF0A34A4B22046FFF778FF50B1032171
:102880002046FFF7BDF8032804D12046BDE81040DC
:10289000FFF7DEB8002010BD7047000070B51425AA
:1028A00004462A46002100F0A9FE25808025074E17
:1028B000284631462581258200F078F8314660604F
:1028C000284600F073F8E060204670BDFC380A0826
:1028D00030B50E4D87B02978BFF35B8F11F001043E
:1028E00011D12846FDF7DDFB68B101A8FFF7D6FF3F
:1028F000214601AA0648FFF7FDFD2846FDF7D6FB55
:10290000044800F067FE024807B030BD7C04002098
:102910008004002099280A08002307B51A461946A2
:1029200000930348FFF7D4FC03B05DF804FB00BF3D
:10293000980400207047000070B514232025084E2D
:1029400004460360314685600561284600F02EF894
:1029500031466060284600F029F8E060204670BDEE
:10296000FC380A0830B50E4D87B02978BFF35B8F6D
:1029700011F0010411D12846FDF793FB68B101A8BD
:10298000FFF7DAFF214601AA0648FFF7F3FD2846C4
:10299000FDF78CFB044800F01DFE024807B030BD77
:1029A000B0040020B404002035290A08FDF775BBE7
:1029B00081F0004102E000BF83F0004330B54FEAF0
:1029C00041044FEA430594EA050F08BF90EA020F5D
:1029D0001FBF54EA000C55EA020C7FEA645C7FEAF0
:1029E000655C00F0E2804FEA5454D4EB5555B8BF13
:1029F0006D420CDD2C4480EA020281EA030382EA84
:102A0000000083EA010180EA020281EA0303362D15
:102A100088BF30BD11F0004F4FEA01314FF4801CE8
:102A20004CEA113102D0404261EB410113F0004FFA
:102A30004FEA03334CEA133302D0524263EB4303B1
:102A400094EA050F00F0A780A4F10104D5F1200E4F
:102A50000DDB02FA0EFC22FA05F2801841F10001AA
:102A600003FA0EF2801843FA05F359410EE0A5F17E
:102A700020050EF1200E012A03FA0EFC28BF4CF0AF
:102A8000020C43FA05F3C01851EBE37101F0004565
:102A900007D54FF0000EDCF1000C7EEB00006EEB72
:102AA0000101B1F5801F1BD3B1F5001F0CD34908FC
:102AB0005FEA30004FEA3C0C04F101044FEA445253
:102AC00012F5800F80F09A80BCF1004F08BF5FEADA
:102AD000500C50F1000041EB045141EA050130BDBA
:102AE0005FEA4C0C404141EB0101013C28BFB1F5CC
:102AF000801FE9D291F0000F04BF01460020B1FA17
:102B000081F308BF2033A3F10B03B3F120020CDAE9
:102B10000C3208DD02F1140CC2F10C0201FA0CF0C7
:102B200021FA02F10CE002F11402D8BFC2F1200C2C
:102B300001FA02F120FA0CFCDCBF41EA0C019040E2
:102B4000E41AA2BF01EB0451294330BD6FEA04042B
:102B50001F3C1CDA0C340EDC04F11404C4F1200216
:102B600020FA04F001FA02F340EA030021FA04F328
:102B700045EA030130BDC4F10C04C4F1200220FA7F
:102B800002F001FA04F340EA0300294630BD21FABD
:102B900004F0294630BD94F0000F83F4801306BF83
:102BA00081F480110134013D4EE77FEA645C18BF77
:102BB0007FEA655C29D094EA050F08BF90EA020F0E
:102BC00005D054EA000C04BF1946104630BD91EA06
:102BD000030F1EBF0021002030BD5FEA545C05D109
:102BE0004000494128BF41F0004130BD14F5800448
:102BF0003CBF01F5801130BD01F0004545F0FE41BC
:102C000041F470014FF0000030BD7FEA645C1ABFF0
:102C1000194610467FEA655C1CBF0B46024650EA27
:102C2000013406BF52EA033591EA030F41F4002153
:102C300030BD00BF90F0000F04BF0021704730B5D9
:102C40004FF4806404F132044FF000054FF00001AE
:102C500050E700BF90F0000F04BF0021704730B56F
:102C60004FF4806404F1320410F0004548BF404244
:102C70004FF000013EE700BF42004FEAE2014FEA99
:102C800031014FEA02701FBF12F07F4393F07F4F74
:102C900081F06051704732F07F4208BF704793F077
:102CA0007F4F04BF41F40021704730B54FF460748A
:102CB00001F0004521F000411CE700BF50EA01028D
:102CC00008BF704730B54FF000050AE050EA010236
:102CD00008BF704730B511F0004502D5404261EBA6
:102CE00041014FF4806404F132045FEA915C3FF4E7
:102CF000D8AE4FF003025FEADC0C18BF03325FEA84
:102D0000DC0C18BF033202EBDC02C2F1200300FA34
:102D100003FC20FA02F001FA03FE40EA0E0021FA59
:102D200002F11444BDE600BF70B54FF0FF0C4CF447
:102D3000E06C1CEA11541DBF1CEA135594EA0C0FF9
:102D400095EA0C0F00F0DEF82C4481EA030621EA34
:102D50004C5123EA4C5350EA013518BF52EA03356F
:102D600041F4801143F4801338D0A0FB02CE4FF021
:102D70000005E1FB02E506F00042E0FB03E54FF051
:102D80000006E1FB03569CF0000F18BF4EF0010E49
:102D9000A4F1FF04B6F5007F64F5407404D25FEA45
:102DA0004E0E6D4146EB060642EAC62141EA5551F8
:102DB0004FEAC52040EA5E504FEACE2EB4F1FD0C3A
:102DC00088BFBCF5E06F1ED8BEF1004F08BF5FEAB8
:102DD000500E50F1000041EB045170BD06F000466A
:102DE00046EA010140EA020081EA0301B4EB5C0417
:102DF000C2BFD4EB0C0541EA045170BD41F480110F
:102E00004FF0000E013C00F3AB8014F1360FDEBF33
:102E1000002001F0004170BDC4F10004203C35DA0F
:102E20000C341BDC04F11404C4F1200500FA05F392
:102E300020FA04F001FA05F240EA020001F0004233
:102E400021F0004110EBD37021FA04F642EB0601A9
:102E50005EEA430E08BF20EAD37070BDC4F10C04D3
:102E6000C4F1200500FA04F320FA05F001FA04F297
:102E700040EA020001F0004110EBD37041F1000183
:102E80005EEA430E08BF20EAD37070BDC4F120058E
:102E900000FA05F24EEA020E20FA04F301FA05F2F6
:102EA00043EA020321FA04F001F0004121FA04F29E
:102EB00020EA020000EBD3705EEA430E08BF20EA6E
:102EC000D37070BD94F0000F0FD101F000464000A8
:102ED00041EB010111F4801F08BF013CF7D041EA2A
:102EE000060195F0000F18BF704703F0004652002E
:102EF00043EB030313F4801F08BF013DF7D043EAFF
:102F00000603704794EA0C0F0CEA135518BF95EAB4
:102F10000C0F0CD050EA410618BF52EA4306D1D13B
:102F200081EA030101F000414FF0000070BD50EA5A
:102F3000410606BF1046194652EA430619D094EAE4
:102F40000C0F02D150EA013613D195EA0C0F05D1CE
:102F500052EA03361CBF104619460AD181EA030122
:102F600001F0004141F0FE4141F470014FF00000DA
:102F700070BD41F0FE4141F4780170BD70B54FF075
:102F8000FF0C4CF4E06C1CEA11541DBF1CEA1355F5
:102F900094EA0C0F95EA0C0F00F0A7F8A4EB0504D7
:102FA00081EA030E52EA03354FEA013100F08880CE
:102FB0004FEA03334FF0805545EA131343EA126397
:102FC0004FEA022245EA111545EA10654FEA00264C
:102FD0000EF000419D4208BF964244F1FD0404F505
:102FE000407402D25B084FEA3202B61A65EB030561
:102FF0005B084FEA32024FF480104FF4002CB6EB1E
:10300000020E75EB030E22BFB61A754640EA0C009D
:103010005B084FEA3202B6EB020E75EB030E22BFDD
:10302000B61A754640EA5C005B084FEA3202B6EB1E
:10303000020E75EB030E22BFB61A754640EA9C00DD
:103040005B084FEA3202B6EB020E75EB030E22BFAD
:10305000B61A754640EADC0055EA060E18D04FEA6B
:10306000051545EA16754FEA06164FEAC30343EA0B
:1030700052734FEAC2025FEA1C1CC0D111F4801FD8
:103080000BD141EA00014FF000004FF0004CB6E7D1
:1030900011F4801F04BF01430020B4F1FD0C88BF70
:1030A000BCF5E06F3FF6AFAEB5EB030C04BFB6EB7B
:1030B000020C5FEA500C50F1000041EB045170BD6E
:1030C0000EF0004E4EEA113114EB5C04C2BFD4EB9B
:1030D0000C0541EA045170BD41F480114FF0000E1F
:1030E000013C90E645EA060E8DE60CEA135594EA9B
:1030F0000C0F08BF95EA0C0F3FF43BAF94EA0C0F9E
:103100000AD150EA01347FF434AF95EA0C0F7FF412
:1031100025AF104619462CE795EA0C0F06D152EA66
:1031200003353FF4FDAE1046194622E750EA41064A
:1031300018BF52EA43067FF4C5AE50EA41047FF45B
:103140000DAF52EA43057FF4EBAE12E74FF0FF3CC0
:1031500006E000BF4FF0010C02E000BF4FF0010C91
:103160004DF804CD4FEA410C7FEA6C5C4FEA430C0A
:1031700018BF7FEA6C5C1BD001B050EA410C0CBF59
:1031800052EA430C91EA030F02BF90EA020F0020BB
:10319000704710F1000F91EA030F58BF994208BF22
:1031A00090422CBFD8176FEAE37040F001007047DF
:1031B0004FEA410C7FEA6C5C02D150EA013C07D136
:1031C0004FEA430C7FEA6C5CD6D152EA033CD3D081
:1031D0005DF8040B704700BF8446104662468C467B
:1031E0001946634600E000BF01B5FFF7B7FF0028AE
:1031F00048BF10F1000F01BD4DF808EDFFF7F4FFD7
:103200000CBF012000205DF808FB00BF4DF808ED61
:10321000FFF7EAFF34BF012000205DF808FB00BF84
:103220004DF808EDFFF7E0FF94BF012000205DF8A6
:1032300008FB00BF4DF808EDFFF7CEFF94BF01205B
:1032400000205DF808FB00BF4DF808EDFFF7C4FF54
:1032500034BF012000205DF808FB00BF4FEA410C9D
:103260007FEA6C5C02D150EA013C0AD14FEA430C80
:103270007FEA6C5C02D152EA033C02D14FF00000BD
:1032800070474FF0010070474FEA410212F50012FB
:1032900015D211D56FF47873B3EB625212D94FEA9D
:1032A000C12343F0004343EA505311F0004F23FA87
:1032B00002F018BF404270474FF00000704750EADC
:1032C000013005D111F0004008BF6FF00040704799
:1032D0004FF00000704700BF4A0011D212F50012F3
:1032E00011D20DD56FF47873B3EB62520ED44FEA5E
:1032F000C12343F0004343EA505323FA02F07047DE
:103300004FF00000704750EA013002D14FF0FF301B
:1033100070474FF0000070474FEA4102B2F1E043BE
:1033200024BFB3F5001CDCF1FE5C0DD901F0004CAC
:103330004FEAC0024CEA5070B2F1004F40EB8300FC
:1033400008BF20F00100704711F0804F21D113F128
:103350003872BCBF01F00040704741F480114FEA61
:103360005252C2F11802C2F1200C10FA0CF320FAEA
:1033700002F018BF40F001004FEAC1234FEAD32307
:1033800003FA0CFC40EA0C0023FA02F34FEA430371
:10339000CCE77FEA625307D150EA01331EBF4FF0FA
:1033A000FE4040F44000704701F0004040F0FE4015
:1033B00040F40000704700BF80F0004002E000BF12
:1033C00081F0004142001FBF5FEA410392EA030F10
:1033D0007FEA226C7FEA236C6AD04FEA1262D2EB5A
:1033E0001363C1BFD218414048404140B8BF5B425F
:1033F000192B88BF704710F0004F40F4000020F0F8
:103400007F4018BF404211F0004F41F4000121F00D
:103410007F4118BF494292EA030F3FD0A2F1010257
:1034200041FA03FC10EB0C00C3F1200301FA03F195
:1034300000F0004302D5494260EB4000B0F5000FB8
:1034400013D3B0F1807F06D340084FEA310102F177
:103450000102FE2A51D2B1F1004F40EBC25008BF29
:1034600020F0010040EA03007047490040EB0000F3
:10347000013A28BFB0F5000FEDD2B0FA80FCACF1F4
:10348000080CB2EB0C0200FA0CF0AABF00EBC25021
:1034900052421843BCBFD0401843704792F0000F0F
:1034A00081F4000106BF80F400000132013BB5E762
:1034B0004FEA41037FEA226C18BF7FEA236C21D0D8
:1034C00092EA030F04D092F0000F08BF084670473D
:1034D00090EA010F1CBF0020704712F07F4F04D10B
:1034E000400028BF40F00040704712F100723CBF1E
:1034F00000F50000704700F0004343F0FE4040F448
:10350000000070477FEA226216BF08467FEA236305
:103510000146420206BF5FEA412390EA010F40F4F0
:10352000800070474FF0000304E000BF10F000433C
:1035300048BF40425FEA000C08BF704743F0964323
:1035400001464FF000001CE050EA010208BF70473E
:103550004FF000030AE000BF50EA010208BF7047C5
:1035600011F0004302D5404261EB41015FEA010CDA
:1035700002BF84460146002043F0B64308BFA3F1D2
:103580008053A3F50003BCFA8CF2083AA3EBC253B4
:1035900010DB01FA02FC634400FA02FCC2F12002D3
:1035A000BCF1004F20FA02F243EB020008BF20F00A
:1035B0000100704702F1200201FA02FCC2F1200270
:1035C00050EA4C0021FA02F243EB020008BF20EA65
:1035D000DC707047002301461A46184600F04CB8CC
:1035E0000A44914200F1FF3300D1704710B511F841
:1035F000014B914203F8014FF9D110BD034602443B
:10360000934200D1704703F8011BF9E738B5104B1E
:1036100004461D68AB6BB3B91820FEF7BFFB02462A
:10362000A86320B942210B4B0B48FEF7C7FB0B499F
:103630000B4BC0E900130B4B002183600B238381EC
:103640000120C2E904010022AB6B1C615A6138BD44
:103650000C000020FD380A0814390A080E33CDABDF
:1036600034126DE6ECDE0500034613F8012B002A48
:10367000FBD1181A013870472DE9F843DFF8AC8008
:103680000646D8F800001F460D46914600F058F84F
:10369000274B1C6834B9274C1C60274B13B11B689F
:1036A000C4F8883063681F2B07DDD8F8000000F0ED
:1036B00049F84FF0FF30BDE8F8835EB3D4F88800D6
:1036C00088B91E4B23B9D8F8000000F03AF8F0E7AB
:1036D0004FF48470FEF762FB0028F4D00023C0E9A9
:1036E0004033C4F8880001226368022E40F823901A
:1036F00002FA03F200EB8301D0F8003143EA02033F
:10370000C0F80031C1F8807002BFD0F80431134313
:10371000C0F804316368D8F800005A1C02336260B4
:1037200044F8235000F00EF80020C4E77000002099
:1037300054050020C8040020000000009D1D0A0858
:10374000704770477047000021000A0861000A08AE
:1037500089000A088D000A080000000044657669A7
:103760006365204D6F64653A2000427574746F6E16
:103770002070726573730052454144494E472E2EA6
:103780002E0050504D3A20004241433A20000000A4
:103790002C01000018000000F40100002C010000C2
:1037A00050000000000000000000000009180A0896
:1037B0000B180A084B180A08211E0A086E616E00D1
:1037C000696E66006F7666006170700025592D2560
:1037D0006D2D25645425483A254D3A2553257A0008
:1037E00061736374696D65000000000000000000F3
:1037F00023220A0821220A0855220A080000000094
:1038000000000000EF220A0855230A082D230A08A9
:10381000211E0A081F230A08F1220A0801230A08A8
:103820004F230A0811230A08E9220A0800000000B1
:10383000000000007D240A08E5240A08C1240A08C3
:10384000211E0A0891240A08AD240A089F240A08A8
:10385000BB240A087F240A0883240A080000000009
:10386000000000001D250A0867250A083F250A08F0
:103870001F250A0847250A084F250A0857250A0860
:103880005F250A08000000000000000063260A0807
:1038900059260A084F260A08C1250A0843260A089D
:1038A00037260A08C1260A08C9260A082B260A084C
:1038B00023260A0819260A080F260A08CB250A0813
:1038C000000000000000000081260A088B260A087C
:1038D00095260A089F260A08A9260A08B5260A0876
:1038E000C1260A08C9260A08D1260A08DD260A08C0
:1038F000E5260A08EF260A08F9260A080052454577
:103900004E54206D616C6C6F6320737563636565E5
:10391000646564002F6D6E742F776F726B737061C6
:1039200063652F776F726B73706163652F474343D5
:103930002D31302D706970656C696E652F6A656E0A
:103940006B696E732D4743432D31302D706970655F
:103950006C696E652D34385F32303230313132343B
:103960005F313630363138303634312F7372632F51
:103970006E65776C69622F6E65776C69622F6C6912
:1039800062632F7374646C69622F72616E642E635C
:103990000000000001050A08F9170A08FD1D0A08C1
:1039A00089200A0899200A08B5200A086D260A0805
:1039B00049270A0819290A08000000000000000031
:0439C0000000000003
:1039C4001400000064000000E0370A081000002022
:1039D40000000000000000000000000000000000E3
:1039E40000000000000000000000000000000000D3
:1039F40000000000000000000000000000000000C3
:103A040000000000000000000000000000000000B2
:103A140000000000000000000000000000000000A2
:103A24000000000000000000000000000000000092
:043A34005805002011
:103A3800FFFFFFFF00000102030405060708090A4B
:103A48000B0C0D0E0F101112131415161718191A46
:083A58001B1C1D1E1F2028008D
:043A6000785634124E
:04000005080A0020C5
:00000001FF
