:02000004080AE8
:1000000000000A08783E0A08000006000600050104
:080010000402E50C00000000F1
:04001800103B0A0887
:1000200009480A4908B5884205D0094A824202D0E7
:10003000121A03F0B9FC0748074A0021121A03F00C
:10004000C1FC064808BD00BF00000020D43D0A08DE
:100050007C0000207C0000207D0500207D05002024
:1000600070B502F069FA0025054E064CA41BA408E1
:10007000AC4200D170BD56F8043B98470135F7E714
:10008000A43D0A08C83D0A0800F050B808B500F0C1
:100090005BF9BDE8084002F007BA02F02DB802F0A3
:1000A00033B80078B0FA80F040097047012303703C
:1000B0007047000010B40B4B0B4C1B6821680B4AB7
:1000C0008B4206D91368C831B3FA83F35B09136016
:1000D0002160126802B102460021054810BC01F0FF
:1000E000E9BC00BFB4000020F0000020E0000020C8
:1000F0000001002070B506460C4615462AB9BDE839
:1001000070400368C9B29B68184700290BDA0A2AB5
:1001100009D12D2102F05CF861423046EAB2BDE817
:10012000704002F064B82146F7E7000010B502F015
:1001300005FB4FF4165102F0E7FA03211B4C084669
:1001400002F014FD1A4800F0D3FB204600230222DF
:10015000102101F096FD002320461A46FF2101F0F0
:100160007CFD00222046114601F042FD204600247D
:10017000104902F029F8104B1C7001F02FFE0F4BB4
:1001800000F59C4020301860022223460C490D489F
:1001900001F0A2FF234602220B490C4801F09CFF0C
:1001A000BDE81040642002F03FB900BFD00000203D
:1001B00000010020243B0A08BC000020FC000020B5
:1001C000A8000020323B0A08E8000020393B0A085A
:1001D00010B52A4801F002FD294B1C784CBB224681
:1001E0002146264801F004FD2649244801F0ECFF91
:1001F00022460821214801F0FBFC234B0A22196802
:100200001E48FFF777FF012221461C4801F0F0FC51
:100210001E491A4801F0D8FF01220821174801F0B1
:10022000E7FC0A221A4B19681448BDE81040FFF792
:1002300061BF00221148114601F0DAFC15490F4850
:1002400001F0C2FF002208210C4801F0D1FC124B42
:100250000A2219680948FFF74DFF012200210748CB
:1002600001F0C6FC0D49054801F0AEFF012208214E
:10027000024801F0BDFC0A22094BD4E7D00000205F
:10028000BD000020403B0A08E8000020493B0A0866
:10029000A8000020523B0A08E40000205B3B0A084B
:1002A000A40000200A46014610B11046FFF702BF25
:1002B000014801F0FFBB00BF0001002038B51C4D14
:1002C00004462B786BB901282CD11A4B1B684BBB09
:1002D00001F084FD184B194A186013682C703233F2
:1002E0001360174B1A68154B1B689A420FD901F01F
:1002F00075FD114B1B68C01AB0F5FA7F09D9012CA6
:1003000003D102200B4B1C6038BD5CB92C7000205F
:10031000FAE7084B1A682AB9012C03D103202A7086
:100320001C60F1E7034B1C60631E58425841EBE729
:1003300014010020C8000020AC000020B8000020FC
:10034000B4000020000000002DE9F04101F046FD5E
:10035000894D8A4E2860032002F032FCFFF7AEFF81
:10036000307002F0EBF904460A22317801F03FFFC9
:10037000204601F030FF02F0E1F9814901F024FF4D
:1003800002F0DCF907467F4C0A22217801F02FFFAA
:10039000384601F020FF2378042B63D8DFE813F000
:1003A000050065007F006200E601774F774E3B78DD
:1003B000BFF35B8F13F0010F09D13846FFF771FED1
:1003C00028B101F00BFD30603846FFF76FFE704B2F
:1003D0002A681B689A420DD901236E48237001F0E8
:1003E000FDFB00226B48114601F002FC6A49694896
:1003F00001F0EAFE69492B680A68694C934207D903
:10040000236802F5FA72B3FA83F35B0923600A608A
:1004100002F094F90A222168FFF76CFE01F0DEFC7D
:100420003368C01AB0F57A7F1CD95E4C00220E21C9
:10043000584801F0DDFB2368092B09DC0A22002162
:100440005448FFF757FE00220F21524801F0D0FB1D
:1004500021680A224B1E4F482360FFF74BFE01F034
:10046000BDFC3060504B186861E13378013B012BD3
:1004700010D80223237001F0B1FC454B00F51C504D
:1004800010301860434801F0A9FB02F057F94749C2
:1004900001F09AFEBDE8F041454800F05FBA454ED4
:1004A0003378BFF35B8FDB070AD43046FFF7F9FDE3
:1004B00030B101F093FC404B18603046FFF7F6FD79
:1004C000334B2A681B683D4E9A4240F290800423C9
:1004D00023703B4B3B4F18683B4B1B6890FBF3F082
:1004E00003F0E2F9394B0446186803F0DDF902F035
:1004F00081FD1DA3D3E9002302F0D4FD03F0CAF867
:1005000002F078FD1AA3D3E9002302F0CBFD03F03B
:10051000C1F803F01DFA2E4B1860204602F06AFD68
:1005200011A3D3E9002302F0BDFD03F0B3F802F0FC
:1005300061FD0FA3D3E9002302F0B4FD002403F012
:10054000A9F803F005FA234B38601C60224B1C60AD
:10055000FFF73EFE43F697223B6893423EDD124B87
:10056000196841E0AFF30080AFCBBA134001543FAC
:1005700008A68B2EBA688C40B4000020B000002082
:10058000643B0A08BC0000208C000020980000207A
:10059000FC000020D0000020723B0A08F000002080
:1005A000E000002000000020840000207B3B0A08BF
:1005B00000010020900000209C0000208800002006
:1005C000C4000020A8000020C0000020EC00002093
:1005D000E8000020E4000020A400002042F20F7296
:1005E000934240F3A78031682046FFF75BFE844CBE
:1005F0002B682268834F9B1A142B0BD90A2002F018
:10060000F2FA814A1368034413603B6801333B608C
:100610002B6823603B680A2B40F08880DFF8E88174
:100620000024D8F8000002F0D3FC6FA3D3E9002324
:1006300002F038FD02F0E6FF744A214613680546D1
:1006400003441360724AC8F8004013683C600133E9
:100650001360704BDFF8C0811A688242B8BF18601F
:1006600022466E4801F0C4FA6D496C4801F0ACFDB9
:1006700001F0B4FBD8F80030C01AB0F57A7F1DD96C
:10068000684F22460E21654801F0B2FA3B68092BFB
:1006900009DC0A2221466148FFF72CFD22460F2182
:1006A0005E4801F0A5FA39680A224B1E5B483B60A0
:1006B000FFF720FD01F092FBC8F8000001220021A5
:1006C000564801F095FA584B1C78002C34D1574904
:1006D000524801F079FD02F031F8554901F074FDFE
:1006E000012204214D4801F083FA284603F0DCF88A
:1006F00002F080FC3EA3D3E9002302F0D3FC02F019
:10070000C9FF02F077FC3CA3D3E9002302F0CAFC46
:1007100002F0C0FF044601460222404801F046FEB6
:1007200002F00CF80222214601F05DFE3068FFF76E
:10073000C1FCAFE63F4B13E7012CF7D13E493748E8
:1007400001F042FD01F0FAFF3C4901F03DFD224677
:100750000421324801F04CFA022200212F4801F016
:1007600025FE01F0EBFF02220021DDE7344D354E7E
:100770002B78BFF35B8F13F0010F09D12846FFF7E9
:1007800090FC28B101F02AFB30602846FFF78EFC70
:100790002D4D2B680BB90123237001F01FFB33682B
:1007A000C01AB0F57A7F7FF675AE00220E211B4885
:1007B00001F01EFA2B68092B09DC0A2200211748D8
:1007C000FFF798FC00220F21144801F011FA296864
:1007D0000A224B1E11482B60FFF78CFC01F0FEFA39
:1007E000306057E6AFF300809A9999999999B93F8B
:1007F000AFCBBA134001543F08A68B2EBA688C4089
:10080000CC000020F4000020F8000020C4000020EC
:10081000C0000020EC0000209C000020D000002040
:10082000883B0A0804000020BD0000204D3B0A0858
:10083000933B0A087C0000205F3B0A08993B0A08AA
:1008400094000020A00000200800002010B51348EC
:1008500001F0BCF9022304220121114800F06DF8D7
:100860000022104C1046217801F067F900220E4B4F
:1008700011461860207801F060F90C4B217818605F
:100880000022084601F059F90022094B1146186070
:10089000104601F052F9074B186010BDD00000203F
:1008A000000100200C000020840000207C000020BB
:1008B000880000208000002038B50446C0680D463E
:1008C00008B101F021FCA379062B0CBF0420032002
:1008D000684380B2A08001F00FFCE06028B10021E5
:1008E000A28803F06FF8658038BDA0806080FBE7C8
:1008F00010B504460121C07902F038F90021E079F1
:1009000002F045F90123237010BD38B50378054680
:100910000C461BB10021C07902F028F92B78EC714C
:1009200053B1A4B22046012102F020F92046BDE8CF
:100930003840002102F02BB938BD70B500250446BF
:1009400016468371C0E9035505700572FFF7B4FFC1
:1009500020463146FFF7D9FF204670BDC368002B03
:1009600000F04184F0B583790446023BDBB2042BEE
:100970008CBF3225284A87B098BF52F8235001F027
:1009800025FA2369C01AA842F9D372B6A388A579BB
:10099000ADF80A30BDF80A30022DE1689BB200F0D4
:1009A0006E82072D00F06B82062D00F01D84052D50
:1009B00000F0A183082D00F09E83002D40F04F85AC
:1009C000002B00F092834FF40006144A0496BDF801
:1009D0000A300331033B9BB2ADF80A3011F8033CF7
:1009E000DBB28DF8073011F8023CDBB28DF806302F
:1009F00011F8013CDBB28DF808309DF807009DF836
:100A000006301B0243EA00439DF8080003430393AA
:100A10008DF805501BE100BFA03B0A08180100201B
:100A2000004600BF00BF00BF00BF00BF00BF00BF47
:100A300000BF00BF00BF00BF00BF00BF00BF00BFBE
:100A400000BF00BF00BF00BF00BF00BF00BF00BFAE
:100A500000BF00BF00BF00BF00BF00BF00BF00BF9E
:100A600000BF00BF00BF00BF00BF00BF00BF00BF8E
:100A700000BF00BF00BF00BF00BF00BF00BF00BF7E
:100A800000BF00BF00BF00BF00BF00BF00BF00BF6E
:100A900000BF00BF00BF00BF00BF00BF00BF00BF5E
:100AA00000BF00BF00BF00BF00BF00BF00BF00BF4E
:100AB00000BF00BF00BF00BF00BF00BF00BF00BF3E
:100AC00000BF00BF00BF00BF00BF00BF00BF00BF2E
:100AD00000BF00BF00BF00BF00BF00BF00BF00BF1E
:100AE00000BF00BF00BF00BF00BF00BF00BF00BF0E
:100AF00000BF00BF00BF00BF00BF00BF00BF00BFFE
:100B000000BF00BF00BF00BF00BF00BF00BF00BFED
:100B100000BF00BF00BF00BF00BF00BF00BF00BFDD
:100B200000BF00BF00BF00BFE3791068C3EBC30381
:100B300000EB830750F82330B8885883004600BF85
:100B400000BF00BF00BF00BF00BF00BF00BF00BFAD
:100B500000BF00BF00BF00BF00BF00BF00BF00BF9D
:100B600000BF00BF00BF00BF00BF00BF00BF00BF8D
:100B700000BF00BF00BF00BF00BF00BF00BF00BF7D
:100B800000BF00BF00BF00BF00BF00BF00BF00BF6D
:100B900000BF00BF00BF00BF00BF00BF00BF00BF5D
:100BA00000BF00BF00BF00BF00BF00BF00BF00BF4D
:100BB00000BF00BF00BF00BF00BF00BF00BF00BF3D
:100BC00000BF00BF00BF00BF00BF00BF00BF00BF2D
:100BD00000BF00BF00BF00BF00BF00BF00BF00BF1D
:100BE00000BF00BF00BF00BF00BF00BF00BF00BF0D
:100BF00000BF00BF00BF00BF00BF00BF00BF00BFFD
:100C000000BF00BF00BF00BF00BF00BF00BF00BFEC
:100C100000BF00BF00BF00BF00BF00BF00BF00BFDC
:100C200000BF00BF00BF00BF00BF00BF00BF00BFCC
:100C300000BF00BF00BF049B5B0804939DF8053014
:100C40000133DBB2172B8DF8053000F22387E379EF
:100C50001068C3EBC30300EB830750F82330B88858
:100C600018830398049B18427FF4DAAE004600BF55
:100C700000BF00BF00BF00BF00BF00BF00BF00BF7C
:100C800000BF00BF00BF00BF00BF00BF00BF00BF6C
:100C900000BF00BF00BF00BF00BF00BF00BF00BF5C
:100CA00000BF00BF00BF00BF00BF00BF00BF00BF4C
:100CB00000BF00BF00BF00BF00BF00BF00BFE3799F
:100CC0001068C3EBC30300EB830750F82330B888E8
:100CD0005883004600BF00BF00BF00BF00BF00BF79
:100CE00000BF00BF00BF00BF00BF00BF00BF00BF0C
:100CF00000BF00BF00BF00BF00BF00BF00BF00BFFC
:100D000000BF00BF00BF00BF00BF00BF00BF00BFEB
:100D100000BF00BF00BF00BF00BF00BF00BF00BFDB
:100D200000BF00BF00BF00BF00BF00BF00BF00BFCB
:100D300000BF00BF00BF00BF00BF00BF00BF00BFBB
:100D400000BF00BF00BF00BF00BF00BF00BF00BFAB
:100D500000BF00BF00BF00BF00BF00BF00BF00BF9B
:100D600000BF00BF00BF00BF00BF00BF00BF00BF8B
:100D700000BF00BF00BF00BF00BF00BF00BF00BF7B
:100D800000BF00BF00BF00BF00BF00BF00BF00BF6B
:100D900000BF00BF00BF00BF00BF00BF00BF00BF5B
:100DA00000BF00BF00BF00BF00BF00BF00BF00BF4B
:100DB00000BF00BF00BF00BF00BF00BF00BF00BF3B
:100DC00000BF00BF00BF00BF00BF00BF00BF00BF2B
:100DD00000BF00BF00BF00BF00BF00BF00BF00BF1B
:100DE00000BF00BF00BF00BF00BF00BF00BF00BF0B
:100DF00000BF00BF00BF00BF00BF00BF00BF00BFFB
:100E000000BF00BF00BF00BF00BF00BF00BF00BFEA
:100E100000BF00BF00BF00BF00BF00BF00BF00BFDA
:100E200000BF00BF00BF00BF00BF00BF00BF00BFCA
:100E300000BF00BF00BF00BF00BF00BF00BF00BFBA
:100E400000BF00BF00BF00BF00BF00BF00BF00BFAA
:100E500000BF00BF00BF00BF00BF00BF00BF00BF9A
:100E600000BF00BF00BF00BF00BF00BF00BF00BF8A
:100E700000BF00BF00BF00BF00BF00BFDBE6002B0C
:100E800000F033814FF400054FF0000C124A084681
:100E90000495BDF80A300331033B9BB2ADF80A302C
:100EA00011F8033CDBB28DF8063011F8023CDBB2DE
:100EB0008DF807308378DBB28DF808309DF8066036
:100EC0009DF807309DF808001B0243EA06430343E0
:100ED00003938DF805C07FE018010020004600BF95
:100EE00000BF00BF00BF00BF00BF00BF00BF00BF0A
:100EF00000BF00BF00BF00BF00BF00BF00BF00BFFA
:100F000000BF00BF00BF00BF00BF00BF00BF00BFE9
:100F100000BF00BF00BF00BF00BF00BF00BF00BFD9
:100F200000BF00BF00BF00BF00BF00BF00BF00BFC9
:100F300000BF00BF00BF00BF00BF00BF00BF00BFB9
:100F400000BF00BF00BF00BF00BF00BF00BF00BFA9
:100F500000BF00BF00BF00BF00BF00BF00BF00BF99
:100F600000BF00BF00BF00BF00BF00BF00BF00BF89
:100F700000BF00BF00BFE3791068C3EBC30300EB01
:100F8000830650F82330B0885883004600BF00BF66
:100F900000BF00BF00BF00BF00BF00BF00BF00BF59
:100FA00000BF00BF00BF00BF00BF00BF00BF00BF49
:100FB00000BF00BF00BF00BF00BF00BF00BF00BF39
:100FC000049B5B0804939DF805300133DBB2172BBB
:100FD0008DF8053000F28380E3791068C3EBC3031A
:100FE00000EB830650F82330B08818830398049BE5
:100FF00018427FF473AF004600BF00BF00BF00BFC0
:1010000000BF00BF00BF00BF00BF00BF00BF00BFE8
:1010100000BF00BF00BF00BF00BF00BF00BFE3793B
:101020001068C3EBC30300EB830650F82330B0888D
:101030005883004600BF00BF00BF00BF00BF00BF15
:1010400000BF00BF00BF00BF00BF00BF00BF00BFA8
:1010500000BF00BF00BF00BF00BF00BF00BF00BF98
:1010600000BF00BF00BF00BF00BF00BF00BF00BF88
:1010700000BF00BF00BF00BF00BF00BF00BF00BF78
:1010800000BF00BF00BF00BF00BF00BF00BF00BF68
:1010900000BF00BF00BF00BF00BF00BF00BF00BF58
:1010A00000BF00BF00BF00BF00BF00BF00BF00BF48
:1010B00000BF00BF00BF00BF00BF00BF00BF00BF38
:1010C00000BF00BF00BF00BF00BF00BF00BF00BF28
:1010D00000BF00BF00BF00BF00BF00BF70E7BDF88A
:1010E0000A309BB2002B7FF4D2AE62B600F06EFEE7
:1010F000206107B0F0BD002BF7D04FF400054FF092
:10110000000C544B1868544B0495BDF80A20033169
:10111000033A92B2ADF80A2011F8032CD2B28DF83E
:10112000062011F8022CD2B28DF8072011F8012CFC
:10113000D2B28DF808209DF806609DF807201202B3
:1011400042EA06429DF80860324303928DF805C0DA
:10115000E2795F68C2EBC20200EB8206B68850F803
:10116000222005971683039E049A164225D05A68BA
:10117000059E921B4F2AFAD9E279C2EBC20200EB1C
:101180008206B68850F8222056835A6805925A681B
:10119000059E921B072AFAD9049A520804929DF8D8
:1011A00005200132D2B2172A8DF80520D0D9BDF81A
:1011B0000A2092B2002AA7D197E75A68059E921B8F
:1011C000182AFAD9E279C2EBC20200EB8206B6888D
:1011D00050F8222056835A6805925A68059E921B41
:1011E000452AFAD9D8E77047002B3FF47EAF4FF07D
:1011F00000450026174A0495BDF80A300431043B27
:101200009BB2ADF80A3011F8043CDBB28DF8073020
:1012100011F8033CDBB28DF8063011F8023CDBB26A
:101220008DF8083011F8013CDBB28DF809309DF8DB
:1012300007009DF806301B0443EA00639DF8080090
:101240009DF809703B4343EA002303938DF8056042
:101250007FE000BF18010020001000E0004600BF42
:1012600000BF00BF00BF00BF00BF00BF00BF00BF86
:1012700000BF00BF00BF00BF00BF00BF00BF00BF76
:1012800000BF00BF00BF00BF00BF00BF00BF00BF66
:1012900000BF00BF00BF00BF00BF00BF00BF00BF56
:1012A00000BF00BF00BF00BF00BF00BF00BF00BF46
:1012B00000BF00BF00BF00BF00BF00BF00BF00BF36
:1012C00000BF00BF00BF00BF00BFE3791068C3EBE1
:1012D000C30300EB830750F82330B88858830046D7
:1012E00000BF00BF00BF00BF00BF00BF00BF00BF06
:1012F00000BF00BF00BF00BF00BF00BF00BF00BFF6
:1013000000BF00BF00BF00BF00BF00BF00BF00BFE5
:1013100000BF00BF00BF00BF00BF00BF00BF00BFD5
:1013200000BF00BF00BF00BF00BF00BF00BF00BFC5
:1013300000BF00BF00BF00BF00BF00BF049B5B0831
:1013400004939DF805300133DBB21F2B8DF8053077
:101350007ED8E3791068C3EBC30300EB830750F832
:101360002330B88818830398049B18427FF476AF23
:10137000004600BF00BF00BF00BF00BF00BF00BFEE
:1013800000BF00BF00BF00BF00BF00BF00BF00BF65
:1013900000BF00BF00BF00BFE3791068C3EBC30309
:1013A00000EB830750F82330B8885883004600BF0D
:1013B00000BF00BF00BF00BF00BF00BF00BF00BF35
:1013C00000BF00BF00BF00BF00BF00BF00BF00BF25
:1013D00000BF00BF00BF00BF00BF00BF00BF00BF15
:1013E00000BF00BF00BF00BF00BF00BF00BF00BF05
:1013F00000BF00BF00BF00BF00BF00BF00BF00BFF5
:1014000000BF00BF00BF00BF00BF00BF00BF00BFE4
:1014100000BF00BF00BF00BF00BF00BF00BF00BFD4
:1014200000BF00BF00BF00BF00BF00BF00BF00BFC4
:1014300000BF00BF00BF00BF00BF00BF00BF00BFB4
:1014400000BF00BF00BF00BF00BF00BF00BF75E707
:10145000BDF80A309BB2002B7FF4CDAE45E6032DDC
:1014600000F02881002B3FF440AE4FF40005002629
:10147000164A0495BDF80A30E079033B9BB2ADF8FB
:101480000A300B781768DBB28DF807304B78C0EB69
:10149000C000DBB28DF808308B780331DBB28DF8F9
:1014A00006309DF807C09DF808301B0243EA0C4344
:1014B0009DF806C043EA0C0307EB800C039357F832
:1014C00020308DF80560BCF804007AE01801002097
:1014D000049B5B080493004600BF00BF00BF00BF31
:1014E00000BF00BF00BF00BF00BF00BF00BF00BF04
:1014F00000BF00BF00BF00BF00BF00BF00BF00BFF4
:1015000000BF00BF00BF00BF00BF00BF00BF00BFE3
:1015100000BF00BF00BF00BF00BF00BF00BF00BFD3
:1015200000BF00BF00BF00BF00BF00BF00BF00BFC3
:1015300000BF00BF00BF00BF00BF00BF00BF00BFB3
:1015400000BF00BF00BF00BF00BF00BF00BF00BFA3
:1015500000BF00BF00BF00BF00BF00BFE079176839
:101560009DF80530C0EBC00007EB800C013357F845
:101570002000BCF80470DBB28DF80530078300460C
:1015800000BF00BF00BF00BF00BF00BF00BF00BF63
:1015900000BF00BF00BF00BF00BF00BF00BF00BF53
:1015A00000BF00BF00BF00BF9DF80530182B7AD0E8
:1015B000E3791068C3EBC30300EB830750F82330D3
:1015C000B88858830398049B184281D1004600BF15
:1015D00000BF00BF00BF00BF00BF00BF00BF00BF13
:1015E00000BF00BF00BF00BF00BF00BF00BFE37966
:1015F0001068C3EBC30300EB830750F82330B888AF
:1016000018839DF805300133DBB28DF80530049B5B
:101610005B080493004600BF00BF00BF00BF00BFCF
:1016200000BF00BF00BF00BF00BF00BF00BF00BFC2
:1016300000BF00BF00BF00BF00BF00BF00BF00BFB2
:1016400000BF00BF00BF00BF00BF00BF00BF00BFA2
:1016500000BF00BF00BF00BF00BF00BF00BF00BF92
:1016600000BF00BF00BF00BF00BF00BF00BF00BF82
:1016700000BF00BF00BF00BF00BF00BF00BF00BF72
:1016800000BF00BF00BF00BF00BF00BF00BF00BF62
:1016900000BF00BF00BF00BF00BF00BF00BF9DF87C
:1016A0000530182B84D1BDF80A309BB2002B7FF493
:1016B000E0AE1AE5002B3FF418AD4FF4000500260C
:1016C000124A0495BDF80A300331033B9BB2ADF8D2
:1016D0000A3011F8033CDBB28DF8073011F8023CF8
:1016E000DBB28DF8063011F8013CDBB28DF8083022
:1016F0009DF807009DF806301B0243EA00439DF861
:101700000800034303938DF80560E0E01801002012
:10171000004600BF00BF00BF00BF00BF00BF00BF4A
:1017200000BF00BF00BF00BF00BF00BF00BF00BFC1
:1017300000BF00BF00BF00BF00BF00BF00BF00BFB1
:1017400000BF00BF00BF00BF00BF00BF00BF00BFA1
:1017500000BF00BF00BF00BF00BF00BF00BF00BF91
:1017600000BF00BF00BF00BF00BF00BF00BF00BF81
:1017700000BF00BF00BF00BF00BF00BF00BF00BF71
:1017800000BF00BF00BF00BF00BF00BF00BF00BF61
:1017900000BF00BF00BF00BF00BF00BF00BF00BF51
:1017A00000BF00BF00BF00BF00BF00BF00BF00BF41
:1017B00000BF00BF00BF00BF00BF00BF00BF00BF31
:1017C00000BF00BF00BF00BF00BF00BF00BF00BF21
:1017D00000BF00BF00BF00BF00BF00BF00BF00BF11
:1017E00000BF00BF00BF00BF00BF00BF00BF00BF01
:1017F00000BF00BF00BF00BF00BF00BF00BF00BFF1
:1018000000BF00BF00BF00BF00BF00BF00BF00BFE0
:1018100000BF00BF00BF00BF00BF00BF00BF00BFD0
:1018200000BF00BF00BF00BF00BF00BF00BF00BFC0
:1018300000BFE3791068C3EBC30300EB830750F8E4
:101840002330B8885883004600BF00BF00BF00BFE8
:1018500000BF00BF00BF00BF00BF00BF00BF00BF90
:1018600000BF00BF00BF00BF00BF00BF00BF00BF80
:1018700000BF00BF00BF00BF00BF00BF00BF00BF70
:1018800000BF00BF00BF00BF00BF00BF00BF00BF60
:1018900000BF00BF00BF00BF00BF00BF00BF00BF50
:1018A00000BF00BF00BF00BF00BF00BF00BF00BF40
:1018B00000BF00BF00BF049B5B0804939DF8053088
:1018C0000133DBB2172B8DF8053000F2EB80E379A2
:1018D0001068C3EBC30300EB830750F82330B888CC
:1018E00018830398049B18427FF412AF004600BF90
:1018F00000BF00BF00BF00BF00BF00BF00BF00BFF0
:1019000000BF00BF00BF00BF00BF00BF00BF00BFDF
:1019100000BF00BF00BF00BF00BF00BF00BF00BFCF
:1019200000BF00BF00BF00BF00BF00BF00BF00BFBF
:1019300000BF00BF00BF00BF00BF00BF00BF00BFAF
:1019400000BF00BF00BF00BF00BF00BF00BF00BF9F
:1019500000BF00BF00BF00BF00BF00BF00BF00BF8F
:1019600000BF00BF00BF00BF00BF00BF00BFE379E2
:101970001068C3EBC30300EB830750F82330B8882B
:101980005883004600BF00BF00BF00BF00BF00BFBC
:1019900000BF00BF00BF00BF00BF00BF00BF00BF4F
:1019A00000BF00BF00BF00BF00BF00BF00BF00BF3F
:1019B00000BF00BF00BF00BF00BF00BF00BF00BF2F
:1019C00000BF00BF00BF00BF00BF00BF00BF00BF1F
:1019D00000BF00BF00BF00BF00BF00BF00BF00BF0F
:1019E00000BF00BF00BF00BF00BF00BF00BF00BFFF
:1019F00000BF00BF00BF00BF00BF00BF00BF00BFEF
:101A000000BF00BF00BF00BF00BF00BF00BF00BFDE
:101A100000BF00BF00BF00BF00BF00BF00BF00BFCE
:101A200000BF00BF00BF00BF00BF00BF00BF00BFBE
:101A300000BF00BF00BF00BF00BF00BF00BF00BFAE
:101A400000BF00BF00BF00BF00BF00BF00BF00BF9E
:101A500000BF00BF00BF00BF00BF00BF00BF00BF8E
:101A600000BF00BF00BF00BF00BF00BF00BF00BF7E
:101A700000BF00BF00BF00BF00BF00BF00BF00BF6E
:101A800000BF00BF00BF00BF00BF00BF00BF00BF5E
:101A900000BF10E7BDF80A309BB2002B7EF496AF72
:101AA000FFF723BBBDF80A309BB2002B7FF409AED1
:101AB000FFF71BBB4388F0B58B422DD9067AC2F3E2
:101AC0000743C2F30724D5B23EB173437443754351
:101AD000C3F30723C4F307242D0A90F806C0C76890
:101AE000BCF1060F0CBF042603264E43ACF1020CDA
:101AF000B919BCF1060F1DD8DFE80CF0041C08046E
:101B00000F040400BC554B708D7005E0FE2B28BF00
:101B1000FE23BB554D708C70F0BDBB554C708D7065
:101B2000037A120E13B9D2B2CA70F5E75A43C2F360
:101B30000722F9E7BB554C70E6E742EA012242EA88
:101B40000040704708B500F0F9F8014B186008BD77
:101B500018010020704710B504461021FEF79FFAC7
:101B6000204610BD70B50E46054601F0B9F83E217D
:101B700000F0DAFE0024A64207DD01F0B1F80368A8
:101B8000295D9B6898470134F5E701F0A9F8BDE8A5
:101B9000704000F0D0BE402307B58DF8051001A8B5
:101BA00002218DF80430FFF7DDFF012003B05DF85E
:101BB00004FB802307B502218DF8050001A88DF8EC
:101BC0000430FFF7CFFF03B05DF804FB0022426052
:101BD000014A0260704700BFBC3B0A0808B50120FB
:101BE000FFF7E7FFBDE808404FF4FA6000F0E6B801
:101BF00007B56AB941F0800180238DF8051001A86E
:101C000002218DF80430FFF7ADFF03B05DF804FB4F
:101C100041F0C001F0E7437A43F00402427243F01E
:101C20000C00FFF7C6BF38B514460D4601F058F852
:101C3000622100F079FE01F053F8036829469B68A1
:101C4000984701F04DF8036821469B68984701F0DA
:101C500047F8BDE8384000F06EBE70B50446164641
:101C60001D460A460421FFF7DEFF324620460321C7
:101C7000FFF7D9FF2A462046BDE870400221FFF752
:101C8000D2BF70B5154604461E4601F029F800F093
:101C900041FE012D88BF237A257384BF43F00803DA
:101CA0002372002363732EB1012D02BF237A43F008
:101CB000040323724CF2503000F080F8207A40F098
:101CC0002000FFF776FF41F2941000F077F8207AB9
:101CD00040F02000FFF76DFF962000F06FF8207AAB
:101CE00040F02000FFF765FF207A40F02000FFF76A
:101CF00060FF042320466372FFF78DFF2046FFF745
:101D00006DFF02230620A372FFF753FF0022204637
:101D10001146FFF788FF204600220121FFF783FFCD
:101D20002046AA220821FFF77EFFFF232046BDE8B8
:101D300070401A461946FFF790BF000008B5024BE5
:101D40001B681B68019308BDB001060808B5024B6B
:101D50001B685B68019308BDB001060808B5024B1B
:101D60001B689B68019308BDB001060808B5024BCB
:101D70001B68DB68019308BDB001060808B5024B7B
:101D80001B681B69019308BDB001060808B5024B2A
:101D90001B685B69019308BDB001060808B5024BDA
:101DA0001B681B6B019308BDB001060808B5024B08
:101DB0001B685B68019308BD9C01060808B5024BCF
:101DC0001B68DB68019308BD9C01060808B5024B3F
:101DD0001B681B69019308BD9C01060808B5024BEE
:101DE0001B685B69019308BD9C01060808B5024B9E
:101DF0001B685B6C019308BDD001060808B5024B57
:101E00001B689B6C019308BDD001060808B5024B06
:101E10001B685B6A019308BDC401060808B5024B44
:101E20001B689B6A019308BDC401060808B5024BF4
:101E30001B68DB6A019308BDC401060808B5024BA4
:101E40001B681B6B019308BDC401060808B5024B53
:101E50001B685B6B019308BDC401060808B5024B03
:101E60001B689B6B019308BDC401060808B5024BB3
:101E70001B681B6C019308BDC401060808B5024B22
:101E80001B681B6E019308BDC401060808B5024B10
:101E90001B68DB6C019308BDAC01060808B5024B5A
:101EA0001B689B6D019308BDAC01060808B5024B89
:101EB0001B68DB6D019308BDAC01060808B5024B39
:101EC0001B681B6E019308BDAC01060808B5024BE8
:101ED0001B685B6E019308BDAC01060808B5024B98
:101EE0001B689B6E019308BDAC01060808B5024B48
:101EF0001B68DB6E019308BDAC01060808B5024BF8
:101F00001B681B6F019308BDAC01060808B5024BA6
:101F10001B685B6F019308BDAC01060808B5034B55
:101F20001B68D3F88030019308BD0000AC0106089F
:101F300008B5024B1B68DB69019308BDB4010608B4
:101F400008B5024B1B681B6A019308BDB401060863
:101F500008B5024B1B681B68019308BDD801060831
:101F600008B5024B1B685B68019308BDD8010608E1
:101F700008B5024B1B681B69019308BDD801060810
:101F800008B5024B1B685B69019308BDD8010608C0
:101F900008B5024B1B689B69019308BDD801060870
:101FA00008B5024B1B68DB69019308BDD801060820
:101FB00008B5024B1B681B6A019308BDD8010608CF
:101FC00008B5024B1B689B6C019308BDC001060855
:101FD00008B5024B1B685B68019308BDA4010608A5
:101FE00008B5024B1B685B69019308BDA401060894
:101FF00008B5034B1B68D3F89030019308BD00006F
:10200000A401060808B5034B1B68D3F89C30019364
:1020100008BD0000A401060808B5024B1B685B68F8
:10202000019308BDC801060808B5024B1B689B68F0
:10203000019308BDC801060808B5024B1B68DB68A0
:10204000019308BDC801060808B5024B1B681B694F
:10205000019308BDC801060808B5024B1B685B69FF
:10206000019308BDC801060808B5024B1B689B69AF
:10207000019308BDC801060808B5024B1B68DB695F
:10208000019308BDC801060808B5024B1B681B6A0E
:10209000019308BDC801060808B5024B1B681B6BFD
:1020A000019308BDC801060808B5024B1B685B6BAD
:1020B000019308BDC801060808B5024B1B681B6CDC
:1020C000019308BDC801060808B5024B1B685B6C8C
:1020D000019308BDC801060808B5024B1B681B68C0
:1020E000019308BDCC01060808B5024B1B68DB6BE9
:1020F000019308BDCC01060808B5024B1B681B689C
:10210000019308BDA001060808B5024B1B685B6877
:10211000019308BDA001060808B5024B1B681B6CA3
:10212000019308BDA001060808B5024B1B685B6C53
:10213000019308BDA001060870B5002604460D46AF
:1021400040F8086FFFF752FE28462570FFF7F0FEB3
:102150002046666070BD000002220020044B1A6019
:10216000044B054AC3E900009A60FFF731BF00BF86
:10217000280100201C0100200000FFFFF8B50646E2
:102180000D4600248F18BD420CD0336830469B6842
:1021900015F8011B9847031E01DB1C44F3E7002CD4
:1021A00008BF1C462046F8BD70B505460C460846DB
:1021B00049B101F03DFC2B68024621462846BDE8A6
:1021C0007040DB68184770BD08B5FFF7EDFF08BD2C
:1021D00003689B68184738B50D210546FFF7F8FFDF
:1021E0000A2104462846FFF7F3FF204438BD0023A8
:1021F000012A98BF0A2230B58BB00C468DF82430E6
:1022000009A92546B4FBF2F404FB1253DBB2092BF7
:1022100094BF30333733DBB2AA4201F8013DF0D925
:10222000FFF7C2FF0BB030BD2DE9F74F0546194649
:10223000104692461F469DF8306001F0CDF940B13E
:1022400051492846FFF7B0FF0446204603B0BDE8D9
:10225000F08F27F000444FF0FF32504621464B4BA1
:1022600001F0BAF948B94FF0FF3250462146474BCA
:1022700001F094F908B94649E3E74FF0604250464F
:102280003946444B01F09EF908B14349D9E74FF074
:10229000604250463946414B01F076F90028F4D1AE
:1022A000002200235046394601F06EF9044630B151
:1022B0002D212846FFF78CFF044607F100474FF019
:1022C000000B00204FF000083549DFF8D8905FFA86
:1022D0008BF39E4206D942464B4601F00DF80BF1B6
:1022E000010BF4E73B46524600F026FD8946804646
:1022F00001F0B0F9074600F05BFE02460B4640468F
:10230000494600F017FD0A2280468946284639468C
:10231000FFF76DFF0444002E97D028462249FFF7AF
:1023200043FF4FF0000ADFF87CB00444002E8CD04D
:1023300052465B464046494600F0B4FE8046894618
:1023400001F060F9071E1BDA2D212846FFF740FF38
:10235000034679420A2228460193FFF748FF019B72
:10236000013E034438461C4400F032FE02460B4650
:102370004046494600F0DEFCF6B280468946D5E785
:1023800039460023E6E700BFCC3B0A08FFFFEF7F9A
:10239000D03B0A08FFFFEF41D43B0A08FFFFEFC123
:1023A0000000E03F00002440913B0A0837B5054695
:1023B0001446084600F01EFEE4B202460B462846CC
:1023C0000094FFF731FF03B030BD37B59DF818100A
:1023D00005460091FFF728FF04462846FFF7FBFE5D
:1023E000204403B030BD37B504460846154600F01A
:1023F00001FE009502460B462046FFF7E6FF03B0BC
:1024000030BD0000014B024A1A6070472C010020C9
:10241000D83B0A08024B1A68024B1A60704700BF8B
:1024200010000020300100200021FFF7D9BD00007E
:102430000022014B9A60704734010020014B186064
:10244000704700BF1400002008B5134B43B100F0E3
:1024500075F903681B699847002801DDAFF3008018
:102460000E4B43B100F0F2FB03681B69984700284C
:1024700001DDAFF300800A4B0BB1AFF30080094BD5
:1024800043B100F095F903681B699847002801DD06
:10249000AFF3008008BD00BF000000000000000096
:1024A000000000000000000008B5FFF7CDFFFFF7B7
:1024B00095FC014B186008BDB80400200548064A89
:1024C00008B5121A054901F06FFA054B054A1A6062
:1024D00008BD00BF0040024004400240D03D0A0851
:1024E000004002401E1C279A002307B51A466FF0D1
:1024F00077010093FFF786FD03B05DF804FB000051
:1025000007B543880A2B08D0502B0BD1094B1B6809
:102510004BB103B05DF804EB1847FFF7E5FF03B0DC
:102520005DF804FB00231A466FF077010093FFF774
:1025300069FDF4E748010020002110B51148FFF7BC
:10254000F3FD114B1A68114B9A420CBF0122002275
:102550000F4B1A7001D0FFF7B1FFFFF727FC0446BD
:1025600001F038FA0B4B13B12046AFF30080002185
:102570000848FFF7B9FDBDE8104000210648FFF705
:1025800037BD00BF3D240A08004002401E1C279AA8
:10259000440100200000000001250A087047F8B53A
:1025A0000E46002400F10807051D17F8011D0A2238
:1025B0003046FFF71CFEAF42044401D12046F8BD6F
:1025C000002CF2D02E213046FFF702FE0444ECE747
:1025D00010B504461821FDF762FD204610BD00002D
:1025E00010B50446044B1122002140F8043B01F0D1
:1025F000E9F9204610BD00BF003C0A080346074A1F
:1026000010B543F8042B01F1100251F8044B91422C
:1026100043F8044BF9D10A781A7010BD003C0A083F
:10262000024AC0E90021042202757047003C0A08F2
:1026300010B59DF8084044EA0324042344EA024408
:1026400044EA01644460037510BD000013B5044CF6
:1026500004609DF810400094FFF7EAFF02B010BD3F
:10266000003C0A08417470477047704708B5002164
:10267000007CFFF78DFC40EAE07008BD08B5012141
:10268000007CFFF785FC40EAE07008BD08B5007CDF
:10269000FFF776FC20EAE07008BD08B5007CFFF784
:1026A00067FC20EAE07008BD38B50446007C0D46A2
:1026B000FFF766FC002801DC607C28B12946207CFD
:1026C000FFF76EFC20EAE07038BD007CFFF770BCBD
:1026D00010B504461421FDF7E2FC204610BD7047FA
:1026E00010B54FF47A73044608460021C4E901137B
:1026F000044B20742360012311466374FFF728FC08
:10270000204610BD143C0A080022007CFFF728BCBC
:1027100010B504461422002101F054F9054B20465F
:102720006360054BE36040F2011323818123238220
:1027300010BD00BF7C0100207D02002030B50E4D91
:1027400087B001A8FFF7E4FF2978BFF35B8F11F092
:1027500001040ED12846FDF7A4FC50B1214601AA80
:102760000648FFF7BDFF2846FDF7A0FC044801F02E
:1027700015F9024807B030BD4C010020540100207B
:1027800069260A0810B504461422002101F01AF93E
:10279000054B20466360054BE36040F20113238143
:1027A0008123238210BD00BFFE020020FF03002012
:1027B00010B50E4C86B001A8FFF7E4FF2378BFF3F5
:1027C0005B8FDB070ED42046FDF76BFC50B1012177
:1027D00001AA0748FFF784FF2046FDF767FC05487C
:1027E00001F0DCF8024806B010BD00BF5001002027
:1027F00068010020DF260A0870474174704708B559
:10280000007CFFF733FB20EAE07008BD08B5007CD0
:10281000FFF704FB20EAE07008BD08B5007CFFF775
:102820000DFB40EAE07008BD08B5007CFFF7FEFA3A
:1028300040EAE07008BD007CFFF708BB70B5467C3D
:1028400004460D462EB12946207CBDE87040FFF7B6
:10285000DDBA007CFFF70AFB0028F4DC304670BDCF
:1028600010B504461421FDF71AFC204610BD0000E7
:1028700010B54FF47A730446084611460022C4E9A5
:102880000123044B2074236001236374FFF7F6FADD
:10289000204610BD443C0A087047F8B50646154668
:1028A0000C468F18BC4206D0336830469B6814F83B
:1028B000011B9847F6E72846F8BD0022007CFFF789
:1028C000FDBA0021007CFFF701BB0021007CFFF76F
:1028D00005BB0021007CFFF709BB0021007CFFF74E
:1028E0000DBB10B504461421FDF7D9FB204610BDE1
:1028F00010B54FF47A73044608460021C4E9011369
:10290000034B114623602074FFF708FB204610BDDF
:10291000743C0A080023007C1A461946FFF7B6BA31
:102920000022007CFFF7BABAC9B2FFF7F9BF002254
:10293000007CFFF7BBBA0121FFF7F9BF0022406816
:102940001146FFF781BBF0B5154689B011220E463E
:102950000446002103A801F035F8284601F068F884
:10296000002781B273682846009703AAFFF728FB67
:1029700030B139462046FFF753FE204609B0F0BD7E
:10298000204603A9FFF73AFEF7E700224068114608
:10299000FFF77ABB002240681146FFF785BB002293
:1029A0004068FFF779BB0022406881F00101FFF722
:1029B00063BB002340681A461946FFF755BB002346
:1029C00040681A461946FFF747BB00224068114687
:1029D000FFF72ABB002202214068FFF72DBB00232E
:1029E00040681A46FFF718BB0422024B5A60024A9D
:1029F0001A607047800400209C3C0A08002340684D
:102A00001A46FFF709BB002202214068FFF714BBFA
:102A1000002240681146FFF707BB002240681146BC
:102A2000FFF712BB002340681A461946FFF714BB94
:102A3000002340681A461946FFF716BB002140687C
:102A4000FFF73ABB00214068FFF73EBB0022406819
:102A500081F00101FFF710BB00224068FFF71CBBAB
:102A6000002240681146FFF71FBB00224068114654
:102A7000FFF70ABB70B515468EB0044608A8FFF7ED
:102A8000AFFD1122002103A800F09CFF002628467C
:102A900000F0CEFF0A4B009681B25B68284603AA7D
:102AA000FFF78EFA30B131462046FFF7B9FD2046D8
:102AB0000EB070BD204603A9FFF7A0FDF7E700BFE9
:102AC00080040020024B034A1A6000225A607047BB
:102AD00088040020D83C0A08024B986808B1FFF728
:102AE0008DB9704794040020172870B5044601D9A9
:102AF000002070BDA0F10D03022B0BD9012824D8B2
:102B000000F0EEF80021007CFFF700FA80F00100F1
:102B1000C0B2EEE7124E3178BFF35B8F11F00105C2
:102B20000DD13046FDF7BDFA48B129460D48FFF7F3
:102B300003FB3046FDF7BAFA0B4800F02FFF094BB4
:102B40001878FFF7FDF90028D2D1123C012C05D8E6
:102B500000F07CF8007CFFF781F9D7E70120C8E797
:102B60009004002094040020D92A0A08172838B5B8
:102B700004460D460AD8FF2908D0FFF7B5FF28B153
:102B800029462046BDE83840FFF7E8B838BD38B5DB
:102B900004460D46FFF7EAF8FF2810D0062804D8AF
:102BA0004D2323FA00F0C30709D42046FFF79CFF0A
:102BB00028B129462046BDE83840FFF7DFB838BDC8
:102BC00010B50446FFF7D2F8031FDBB2012B08D97A
:102BD0002046FFF789FF20B12046BDE81040FFF7EF
:102BE000D5B8002010BD10B5044609289CBF0A3492
:102BF000A4B22046FFF778FF50B103212046FFF72B
:102C0000A5F8032804D12046BDE81040FFF7C6B858
:102C1000002010BD7047000070B5142504462A46F8
:102C2000002100F0CFFE25808025074E2846314642
:102C30002581258200F078F831466060284600F052
:102C400073F8E060204670BD0C3D0A0830B50E4DAB
:102C500087B02978BFF35B8F11F0010411D12846AA
:102C6000FDF71FFA68B101A8FFF7D6FF214601AAB8
:102C70000648FFF7FDFD2846FDF718FA044800F066
:102C80008DFE024807B030BDA0040020A40400203F
:102C9000152C0A08002307B51A4619460093034865
:102CA000FFF7D4FC03B05DF804FB00BFBC040020B8
:102CB0007047000070B514232025084E04460360B9
:102CC000314685600561284600F02EF83146606087
:102CD000284600F029F8E060204670BD0C3D0A0847
:102CE00030B50E4D87B02978BFF35B8F11F001042A
:102CF00011D12846FDF7D5F968B101A8FFF7DAFF31
:102D0000214601AA0648FFF7F3FD2846FDF7CEF954
:102D1000044800F043FE024807B030BDD404002050
:102D2000D8040020B12C0A08FDF7B7B981F00041A2
:102D300002E000BF83F0004330B54FEA41044FEAA0
:102D4000430594EA050F08BF90EA020F1FBF54EA3B
:102D5000000C55EA020C7FEA645C7FEA655C00F0D7
:102D6000E2804FEA5454D4EB5555B8BF6D420CDDA8
:102D70002C4480EA020281EA030382EA000083EA2B
:102D8000010180EA020281EA0303362D88BF30BDCB
:102D900011F0004F4FEA01314FF4801C4CEA113121
:102DA00002D0404261EB410113F0004F4FEA033380
:102DB0004CEA133302D0524263EB430394EA050F0B
:102DC00000F0A780A4F10104D5F1200E0DDB02FA7A
:102DD0000EFC22FA05F2801841F1000103FA0EF20E
:102DE000801843FA05F359410EE0A5F120050EF1D4
:102DF000200E012A03FA0EFC28BF4CF0020C43FA05
:102E000005F3C01851EBE37101F0004507D54FF011
:102E1000000EDCF1000C7EEB00006EEB0101B1F561
:102E2000801F1BD3B1F5001F0CD349085FEA3000A7
:102E30004FEA3C0C04F101044FEA445212F5800FB2
:102E400080F09A80BCF1004F08BF5FEA500C50F14F
:102E5000000041EB045141EA050130BD5FEA4C0C32
:102E6000404141EB0101013C28BFB1F5801FE9D28F
:102E700091F0000F04BF01460020B1FA81F308BFB2
:102E80002033A3F10B03B3F120020CDA0C3208DD7E
:102E900002F1140CC2F10C0201FA0CF021FA02F159
:102EA0000CE002F11402D8BFC2F1200C01FA02F1C9
:102EB00020FA0CFCDCBF41EA0C019040E41AA2BFEE
:102EC00001EB0451294330BD6FEA04041F3C1CDAB6
:102ED0000C340EDC04F11404C4F1200220FA04F0D6
:102EE00001FA02F340EA030021FA04F345EA030180
:102EF00030BDC4F10C04C4F1200220FA02F001FA42
:102F000004F340EA0300294630BD21FA04F02946C3
:102F100030BD94F0000F83F4801306BF81F480115C
:102F20000134013D4EE77FEA645C18BF7FEA655CCF
:102F300029D094EA050F08BF90EA020F05D054EAA1
:102F4000000C04BF1946104630BD91EA030F1EBFA6
:102F50000021002030BD5FEA545C05D140004941AA
:102F600028BF41F0004130BD14F580043CBF01F59D
:102F7000801130BD01F0004545F0FE4141F4700183
:102F80004FF0000030BD7FEA645C1ABF194610465E
:102F90007FEA655C1CBF0B46024650EA013406BF5F
:102FA00052EA033591EA030F41F4002130BD00BF1E
:102FB00090F0000F04BF0021704730B54FF48064DB
:102FC00004F132044FF000054FF0000150E700BF5C
:102FD00090F0000F04BF0021704730B54FF48064BB
:102FE00004F1320410F0004548BF40424FF00001A8
:102FF0003EE700BF42004FEAE2014FEA31014FEAEB
:1030000002701FBF12F07F4393F07F4F81F0605139
:10301000704732F07F4208BF704793F07F4F04BF84
:1030200041F40021704730B54FF4607401F0004561
:1030300021F000411CE700BF50EA010208BF7047C1
:1030400030B54FF000050AE050EA010208BF7047B2
:1030500030B511F0004502D5404261EB41014FF41B
:10306000806404F132045FEA915C3FF4D8AE4FF023
:1030700003025FEADC0C18BF03325FEADC0C18BF06
:10308000033202EBDC02C2F1200300FA03FC20FA57
:1030900002F001FA03FE40EA0E0021FA02F11444A4
:1030A000BDE600BF70B54FF0FF0C4CF4E06C1CEABD
:1030B00011541DBF1CEA135594EA0C0F95EA0C0F2E
:1030C00000F0DEF82C4481EA030621EA4C5123EAA1
:1030D0004C5350EA013518BF52EA033541F48011D0
:1030E00043F4801338D0A0FB02CE4FF00005E1FB83
:1030F00002E506F00042E0FB03E54FF00006E1FBCD
:1031000003569CF0000F18BF4EF0010EA4F1FF040F
:10311000B6F5007F64F5407404D25FEA4E0E6D414F
:1031200046EB060642EAC62141EA55514FEAC52060
:1031300040EA5E504FEACE2EB4F1FD0C88BFBCF5DC
:10314000E06F1ED8BEF1004F08BF5FEA500E50F18D
:10315000000041EB045170BD06F0004646EA010153
:1031600040EA020081EA0301B4EB5C04C2BFD4EB85
:103170000C0541EA045170BD41F480114FF0000E7E
:10318000013C00F3AB8014F1360FDEBF002001F0EC
:10319000004170BDC4F10004203C35DA0C341BDC66
:1031A00004F11404C4F1200500FA05F320FA04F038
:1031B00001FA05F240EA020001F0004221F000416C
:1031C00010EBD37021FA04F642EB06015EEA430EDF
:1031D00008BF20EAD37070BDC4F10C04C4F120050F
:1031E00000FA04F320FA05F001FA04F240EA0200C2
:1031F00001F0004110EBD37041F100015EEA430E93
:1032000008BF20EAD37070BDC4F1200500FA05F2B2
:103210004EEA020E20FA04F301FA05F243EA020331
:1032200021FA04F001F0004121FA04F220EA020040
:1032300000EBD3705EEA430E08BF20EAD37070BD86
:1032400094F0000F0FD101F00046400041EB010166
:1032500011F4801F08BF013CF7D041EA060195F048
:10326000000F18BF704703F00046520043EB030302
:1032700013F4801F08BF013DF7D043EA06037047EF
:1032800094EA0C0F0CEA135518BF95EA0C0F0CD0FA
:1032900050EA410618BF52EA4306D1D181EA030140
:1032A00001F000414FF0000070BD50EA410606BF3A
:1032B0001046194652EA430619D094EA0C0F02D17F
:1032C00050EA013613D195EA0C0F05D152EA0336C4
:1032D0001CBF104619460AD181EA030101F00041E2
:1032E00041F0FE4141F470014FF0000070BD41F02B
:1032F000FE4141F4780170BD70B54FF0FF0C4CF405
:10330000E06C1CEA11541DBF1CEA135594EA0C0F23
:1033100095EA0C0F00F0A7F8A4EB050481EA030E70
:1033200052EA03354FEA013100F088804FEA033357
:103330004FF0805545EA131343EA12634FEA022225
:1033400045EA111545EA10654FEA00260EF00041E6
:103350009D4208BF964244F1FD0404F5407402D238
:103360005B084FEA3202B61A65EB03055B084FEAC9
:1033700032024FF480104FF4002CB6EB020E75EBC6
:10338000030E22BFB61A754640EA0C005B084FEAEE
:103390003202B6EB020E75EB030E22BFB61A75466B
:1033A00040EA5C005B084FEA3202B6EB020E75EBB6
:1033B000030E22BFB61A754640EA9C005B084FEA2E
:1033C0003202B6EB020E75EB030E22BFB61A75463B
:1033D00040EADC0055EA060E18D04FEA051545EA2A
:1033E00016754FEA06164FEAC30343EA52734FEAD3
:1033F000C2025FEA1C1CC0D111F4801F0BD141EA4C
:1034000000014FF000004FF0004CB6E711F4801FB0
:1034100004BF01430020B4F1FD0C88BFBCF5E06F90
:103420003FF6AFAEB5EB030C04BFB6EB020C5FEAA0
:10343000500C50F1000041EB045170BD0EF0004EF5
:103440004EEA113114EB5C04C2BFD4EB0C0541EA27
:10345000045170BD41F480114FF0000E013C90E624
:1034600045EA060E8DE60CEA135594EA0C0F08BFE8
:1034700095EA0C0F3FF43BAF94EA0C0F0AD150EAE7
:1034800001347FF434AF95EA0C0F7FF425AF10467A
:1034900019462CE795EA0C0F06D152EA03353FF4A2
:1034A000FDAE1046194622E750EA410618BF52EA1F
:1034B00043067FF4C5AE50EA41047FF40DAF52EAF3
:1034C00043057FF4EBAE12E74FF0FF3C06E000BF90
:1034D0004FF0010C02E000BF4FF0010C4DF804CD9D
:1034E0004FEA410C7FEA6C5C4FEA430C18BF7FEA5D
:1034F0006C5C1BD001B050EA410C0CBF52EA430C8B
:1035000091EA030F02BF90EA020F0020704710F10A
:10351000000F91EA030F58BF994208BF90422CBF99
:10352000D8176FEAE37040F0010070474FEA410C92
:103530007FEA6C5C02D150EA013C07D14FEA430CB0
:103540007FEA6C5CD6D152EA033CD3D05DF8040B21
:10355000704700BF8446104662468C461946634653
:1035600000E000BF01B5FFF7B7FF002848BF10F12A
:10357000000F01BD4DF808EDFFF7F4FF0CBF01206F
:1035800000205DF808FB00BF4DF808EDFFF7EAFFEB
:1035900034BF012000205DF808FB00BF4DF808EDA6
:1035A000FFF7E0FF94BF012000205DF808FB00BF9B
:1035B0004DF808EDFFF7CEFF94BF012000205DF825
:1035C00008FB00BF4DF808EDFFF7C4FF34BF012032
:1035D00000205DF808FB00BF4FEA410C7FEA6C5CFD
:1035E00002D150EA013C0AD14FEA430C7FEA6C5CFD
:1035F00002D152EA033C02D14FF0000070474FF075
:10360000010070474FEA410212F5001215D211D5A0
:103610006FF47873B3EB625212D94FEAC12343F0CF
:10362000004343EA505311F0004F23FA02F018BF51
:10363000404270474FF00000704750EA013005D11A
:1036400011F0004008BF6FF0004070474FF00000DD
:10365000704700BF4A0011D212F5001211D20DD5E9
:103660006FF47873B3EB62520ED44FEAC12343F088
:10367000004343EA505323FA02F070474FF0000032
:10368000704750EA013002D14FF0FF3070474FF0E1
:10369000000070474FEA4102B2F1E04324BFB3F5A6
:1036A000001CDCF1FE5C0DD901F0004C4FEAC002B9
:1036B0004CEA5070B2F1004F40EB830008BF20F09D
:1036C0000100704711F0804F21D113F13872BCBF57
:1036D00001F00040704741F480114FEA5252C2F1AC
:1036E0001802C2F1200C10FA0CF320FA02F018BFF5
:1036F00040F001004FEAC1234FEAD32303FA0CFC48
:1037000040EA0C0023FA02F34FEA4303CCE77FEAD6
:10371000625307D150EA01331EBF4FF0FE4040F420
:103720004000704701F0004040F0FE4040F40000CF
:10373000704700BF80F0004002E000BF81F0004110
:1037400042001FBF5FEA410392EA030F7FEA226C47
:103750007FEA236C6AD04FEA1262D2EB1363C1BFD7
:10376000D218414048404140B8BF5B42192B88BF46
:10377000704710F0004F40F4000020F07F4018BF69
:10378000404211F0004F41F4000121F07F4118BF89
:10379000494292EA030F3FD0A2F1010241FA03FC31
:1037A00010EB0C00C3F1200301FA03F100F0004319
:1037B00002D5494260EB4000B0F5000F13D3B0F1E1
:1037C000807F06D340084FEA310102F10102FE2A50
:1037D00051D2B1F1004F40EBC25008BF20F00100C0
:1037E00040EA03007047490040EB0000013A28BF5F
:1037F000B0F5000FEDD2B0FA80FCACF1080CB2EBE2
:103800000C0200FA0CF0AABF00EBC250524218435F
:10381000BCBFD0401843704792F0000F81F4000104
:1038200006BF80F400000132013BB5E74FEA4103D7
:103830007FEA226C18BF7FEA236C21D092EA030F43
:1038400004D092F0000F08BF0846704790EA010FBD
:103850001CBF0020704712F07F4F04D1400028BFEA
:1038600040F00040704712F100723CBF00F50000CC
:10387000704700F0004343F0FE4040F40000704702
:103880007FEA226216BF08467FEA236301464202AE
:1038900006BF5FEA412390EA010F40F480007047C1
:1038A0004FF0000304E000BF10F0004348BF404267
:1038B0005FEA000C08BF704743F0964301464FF0A3
:1038C00000001CE050EA010208BF70474FF00003FF
:1038D0000AE000BF50EA010208BF704711F0004340
:1038E00002D5404261EB41015FEA010C02BF844610
:1038F0000146002043F0B64308BFA3F18053A3F56F
:103900000003BCFA8CF2083AA3EBC25310DB01FAB5
:1039100002FC634400FA02FCC2F12002BCF1004F39
:1039200020FA02F243EB020008BF20F001007047CA
:1039300002F1200201FA02FCC2F1200250EA4C001E
:1039400021FA02F243EB020008BF20EADC70704764
:103950004FEA4002B2F1FE4F0FD34FF09E03B3EB9C
:1039600012620DD94FEA002343F0004310F0004FDC
:1039700023FA02F018BF404270474FF00000704732
:1039800012F1610F01D1420205D110F0004008BFD1
:103990006FF0004070474FF0000070470023014671
:1039A0001A46184600F04CB80A44914200F1FF3321
:1039B00000D1704710B511F8014B914203F8014F47
:1039C000F9D110BD03460244934200D1704703F879
:1039D000011BF9E738B5104B04461D68AB6BB3B952
:1039E0001820FEF789FB0246A86320B942210B4B41
:1039F0000B48FEF791FB0B490B4BC0E900130B4B37
:103A0000002183600B2383810120C2E9040100228D
:103A1000AB6B1C615A6138BD140000200D3D0A08D3
:103A2000243D0A080E33CDAB34126DE6ECDE050002
:103A3000034613F8012B002AFBD1181A01387047EE
:103A40002DE9F843DFF8AC800646D8F800001F46A1
:103A50000D46914600F058F8274B1C6834B9274CA6
:103A60001C60274B13B11B68C4F8883063681F2B98
:103A700007DDD8F8000000F049F84FF0FF30BDE84E
:103A8000F8835EB3D4F8880088B91E4B23B9D8F800
:103A9000000000F03AF8F0E74FF48470FEF72CFBDA
:103AA0000028F4D00023C0E94033C4F88800012284
:103AB0006368022E40F8239002FA03F200EB8301C0
:103AC000D0F8003143EA0203C0F80031C1F8807039
:103AD00002BFD0F804311343C0F804316368D8F84A
:103AE00000005A1C0233626044F8235000F00EF8C4
:103AF0000020C4E77800002078050020EC040020B6
:103B000000000000F9200A08704770477047000065
:103B100021000A0861000A0889000A088D000A08C5
:103B2000000000005741524D494E472055502E2E5F
:103B30002E0061766750504D006D617850504D00F9
:103B40004D41582050504D3A004156472050504D5D
:103B50003A004D4158204241433A004156472042E5
:103B600041433A00446576696365204D6F64653A68
:103B7000200052454144592E2E2E00427574746F18
:103B80006E2070726573730052454144494E472E52
:103B90002E2E0050504D3A20004241433A20000062
:103BA0002C01000018000000F40100002C010000AE
:103BB000500000000000000000000000551B0A0833
:103BC000571B0A08971B0A087D210A086E616E00C0
:103BD000696E66006F7666006170700025592D254C
:103BE0006D2D25645425483A254D3A2553257A00F4
:103BF00061736374696D65000000000000000000DF
:103C00009F250A089D250A08D1250A080000000002
:103C1000000000006B260A08D1260A08A9260A0817
:103C20007D210A089B260A086D260A087D260A08B7
:103C3000CB260A088D260A0865260A08000000001F
:103C400000000000F9270A0861280A083D280A0830
:103C50007D210A080D280A0829280A081B280A08B5
:103C600037280A08FB270A08FF270A080000000077
:103C70000000000099280A08E3280A08BB280A085F
:103C80009B280A08C3280A08CB280A08D3280A0850
:103C9000DB280A080000000000000000DF290A08F5
:103CA000D5290A08CB290A083D290A08BF290A088C
:103CB000B3290A083D2A0A08452A0A08A7290A083A
:103CC0009F290A0895290A088B290A0847290A0802
:103CD0000000000000000000FD290A08072A0A0869
:103CE000112A0A081B2A0A08252A0A08312A0A0862
:103CF0003D2A0A08452A0A084D2A0A08592A0A08AC
:103D0000612A0A086B2A0A08752A0A0800524545E2
:103D10004E54206D616C6C6F6320737563636565D1
:103D2000646564002F6D6E742F776F726B737061B2
:103D300063652F776F726B73706163652F474343C1
:103D40002D31302D706970656C696E652F6A656EF6
:103D50006B696E732D4743432D31302D706970654B
:103D60006C696E652D34385F323032303131323427
:103D70005F313630363138303634312F7372632F3D
:103D80006E65776C69622F6E65776C69622F6C69FE
:103D900062632F7374646C69622F72616E642E6348
:103DA000000000004D080A08451B0A0859210A08AE
:103DB00005240A0815240A0831240A08E9290A08F2
:103DC000C52A0A08952C0A0800000000000000001F
:043DD00000000000EF
:103DD400140000000A000000140000006400000049
:103DE400F03B0A081800002000000000000000005A
:103DF40000000000000000000000000000000000BF
:103E040000000000000000000000000000000000AE
:103E1400000000000000000000000000000000009E
:103E2400000000000000000000000000000000008E
:103E3400000000000000000000000000000000007E
:0C3E440000000000000000007C050020D1
:103E5000FFFFFFFF00000102030405060708090A2F
:103E60000B0C0D0E0F101112131415161718191A2A
:083E70001B1C1D1E1F20280071
:043E78007856341232
:04000005080A0020C5
:00000001FF
